:020000040800F2
:1000000000500020F53D0008213D0008273D000874
:100010002D3D0008333D0008393D00080000000078
:100020000000000000000000000000003F3D00084C
:100030004B3D000800000000573D0008633D0008EC
:100040003D3E00083D3E00083D3E00083D3E0008A4
:100050003D3E00083D3E00083D3E0008491D0008A9
:10006000651D0008811D00089D1D00083D3E00081B
:100070003D3E00083D3E0008713D0008853D0008FA
:10008000993D0008AD3D00083D3E00083D3E00089A
:100090003D3E00083D3E00083D3E0008B91D0008F9
:1000A0003D3E00083D3E00083D3E00083D3E000844
:1000B0003D3E00083D3E00083D3E00083D3E000834
:1000C0003D3E00083D3E00083D3E00083D3E000824
:1000D0003D3E0008C13D0008D53D00083D3E0008FA
:1000E000451E00083D3E00083D3E0008000000009F
:1000F0000000000000000000000000000000000000
:0C01000000000000000000005FF808F1A3
:1001100010B5054C237833B9044B13B10448AFF341
:1001200000800123237010BD7C000020000000002F
:100130008C8A000808B5034B1BB103490348AFF391
:10014000008008BD00000000800000208C8A0008AC
:1001500081F0004102E000BF83F0004330B54FEA78
:1001600041044FEA430594EA050F08BF90EA020FE5
:100170001FBF54EA000C55EA020C7FEA645C7FEA78
:10018000655C00F0E2804FEA5454D4EB5555B8BF9B
:100190006D420CDD2C4480EA020281EA030382EA0C
:1001A000000083EA010180EA020281EA0303362D9E
:1001B00088BF30BD11F0004F4FEA01314FF4801C71
:1001C0004CEA113102D0404261EB410113F0004F83
:1001D0004FEA03334CEA133302D0524263EB43033A
:1001E00094EA050F00F0A780A4F10104D5F1200ED8
:1001F0000DDB02FA0EFC22FA05F2801841F1000133
:1002000003FA0EF2801843FA05F359410EE0A5F106
:1002100020050EF1200E012A03FA0EFC28BF4CF037
:10022000020C43FA05F3C01851EBE37101F00045ED
:1002300007D54FF0000EDCF1000C7EEB00006EEBFA
:100240000101B1F5801F1BD3B1F5001F0CD3490884
:100250005FEA30004FEA3C0C04F101044FEA4452DB
:1002600012F5800F80F09A80BCF1004F08BF5FEA62
:10027000500C50F1000041EB045141EA050130BD42
:100280005FEA4C0C404141EB0101013C28BFB1F554
:10029000801FE9D291F0000F04BF01460020B1FA9F
:1002A00081F308BF2033A3F10B03B3F120020CDA72
:1002B0000C3208DD02F1140CC2F10C0201FA0CF050
:1002C00021FA02F10CE002F11402D8BFC2F1200CB5
:1002D00001FA02F120FA0CFCDCBF41EA0C0190406B
:1002E000E41AA2BF01EB0451294330BD6FEA0404B4
:1002F0001F3C1CDA0C340EDC04F11404C4F120029F
:1003000020FA04F001FA02F340EA030021FA04F3B0
:1003100045EA030130BDC4F10C04C4F1200220FA07
:1003200002F001FA04F340EA0300294630BD21FA45
:1003300004F0294630BD94F0000F83F4801306BF0B
:1003400081F480110134013D4EE77FEA645C18BFFF
:100350007FEA655C29D094EA050F08BF90EA020F96
:1003600005D054EA000C04BF1946104630BD91EA8E
:10037000030F1EBF0021002030BD5FEA545C05D191
:100380004000494128BF41F0004130BD14F58004D0
:100390003CBF01F5801130BD01F0004545F0FE4144
:1003A00041F470014FF0000030BD7FEA645C1ABF79
:1003B000194610467FEA655C1CBF0B46024650EAB0
:1003C000013406BF52EA033591EA030F41F40021DC
:1003D00030BD00BF90F0000F04BF0021704730B562
:1003E0004FF4806404F132044FF000054FF0000137
:1003F00050E700BF90F0000F04BF0021704730B5F8
:100400004FF4806404F1320410F0004548BF4042CC
:100410004FF000013EE700BF42004FEAE2014FEA21
:1004200031014FEA02701FBF12F07F4393F07F4FFC
:1004300081F06051704732F07F4208BF704793F0FF
:100440007F4F04BF41F40021704730B54FF4607412
:1004500001F0004521F000411CE700BF50EA010215
:1004600008BF704730B54FF000050AE050EA0102BE
:1004700008BF704730B511F0004502D5404261EB2E
:1004800041014FF4806404F132045FEA915C3FF46F
:10049000D8AE4FF003025FEADC0C18BF03325FEA0C
:1004A000DC0C18BF033202EBDC02C2F1200300FABD
:1004B00003FC20FA02F001FA03FE40EA0E0021FAE2
:1004C00002F11444BDE600BF70B54FF0FF0C4CF4D0
:1004D000E06C1CEA11541DBF1CEA135594EA0C0F82
:1004E00095EA0C0F00F0DEF82C4481EA030621EABD
:1004F0004C5123EA4C5350EA013518BF52EA0335F8
:1005000041F4801143F4801338D0A0FB02CE4FF0A9
:100510000005E1FB02E506F00042E0FB03E54FF0D9
:100520000006E1FB03569CF0000F18BF4EF0010ED1
:10053000A4F1FF04B6F5007F64F5407404D25FEACD
:100540004E0E6D4146EB060642EAC62141EA555180
:100550004FEAC52040EA5E504FEACE2EB4F1FD0CC2
:1005600088BFBCF5E06F1ED8BEF1004F08BF5FEA40
:10057000500E50F1000041EB045170BD06F00046F2
:1005800046EA010140EA020081EA0301B4EB5C049F
:10059000C2BFD4EB0C0541EA045170BD41F4801197
:1005A0004FF0000E013C00F3AB8014F1360FDEBFBC
:1005B000002001F0004170BDC4F10004203C35DA98
:1005C0000C341BDC04F11404C4F1200500FA05F31B
:1005D00020FA04F001FA05F240EA020001F00042BC
:1005E00021F0004110EBD37021FA04F642EB060132
:1005F0005EEA430E08BF20EAD37070BDC4F10C045C
:10060000C4F1200500FA04F320FA05F001FA04F21F
:1006100040EA020001F0004110EBD37041F100010B
:100620005EEA430E08BF20EAD37070BDC4F1200516
:1006300000FA05F24EEA020E20FA04F301FA05F27E
:1006400043EA020321FA04F001F0004121FA04F226
:1006500020EA020000EBD3705EEA430E08BF20EAF6
:10066000D37070BD94F0000F0FD101F00046400030
:1006700041EB010111F4801F08BF013CF7D041EAB2
:10068000060195F0000F18BF704703F000465200B6
:1006900043EB030313F4801F08BF013DF7D043EA87
:1006A0000603704794EA0C0F0CEA135518BF95EA3D
:1006B0000C0F0CD050EA410618BF52EA4306D1D1C4
:1006C00081EA030101F000414FF0000070BD50EAE3
:1006D000410606BF1046194652EA430619D094EA6D
:1006E0000C0F02D150EA013613D195EA0C0F05D157
:1006F00052EA03361CBF104619460AD181EA0301AB
:1007000001F0004141F0FE4141F470014FF0000062
:1007100070BD41F0FE4141F4780170BD70B54FF0FD
:10072000FF0C4CF4E06C1CEA11541DBF1CEA13557D
:1007300094EA0C0F95EA0C0F00F0A7F8A4EB05045F
:1007400081EA030E52EA03354FEA013100F0888056
:100750004FEA03334FF0805545EA131343EA12631F
:100760004FEA022245EA111545EA10654FEA0026D4
:100770000EF000419D4208BF964244F1FD0404F58D
:10078000407402D25B084FEA3202B61A65EB0305E9
:100790005B084FEA32024FF480104FF4002CB6EBA6
:1007A000020E75EB030E22BFB61A754640EA0C0026
:1007B0005B084FEA3202B6EB020E75EB030E22BF66
:1007C000B61A754640EA5C005B084FEA3202B6EBA7
:1007D000020E75EB030E22BFB61A754640EA9C0066
:1007E0005B084FEA3202B6EB020E75EB030E22BF36
:1007F000B61A754640EADC0055EA060E18D04FEAF4
:10080000051545EA16754FEA06164FEAC30343EA93
:1008100052734FEAC2025FEA1C1CC0D111F4801F60
:100820000BD141EA00014FF000004FF0004CB6E759
:1008300011F4801F04BF01430020B4F1FD0C88BFF8
:10084000BCF5E06F3FF6AFAEB5EB030C04BFB6EB03
:10085000020C5FEA500C50F1000041EB045170BDF6
:100860000EF0004E4EEA113114EB5C04C2BFD4EB23
:100870000C0541EA045170BD41F480114FF0000EA7
:10088000013C90E645EA060E8DE60CEA135594EA23
:100890000C0F08BF95EA0C0F3FF43BAF94EA0C0F26
:1008A0000AD150EA01347FF434AF95EA0C0F7FF49B
:1008B00025AF104619462CE795EA0C0F06D152EAEF
:1008C00003353FF4FDAE1046194622E750EA4106D3
:1008D00018BF52EA43067FF4C5AE50EA41047FF4E4
:1008E0000DAF52EA43057FF4EBAE12E74FF0FF3C49
:1008F00006E000BF4FF0010C02E000BF4FF0010C1A
:100900004DF804CD4FEA410C7FEA6C5C4FEA430C92
:1009100018BF7FEA6C5C1BD001B050EA410C0CBFE1
:1009200052EA430C91EA030F02BF90EA020F002043
:10093000704710F1000F91EA030F58BF994208BFAA
:1009400090422CBFD8176FEAE37040F00100704767
:100950004FEA410C7FEA6C5C02D150EA013C07D1BE
:100960004FEA430C7FEA6C5CD6D152EA033CD3D009
:100970005DF8040B704700BF8446104662468C4603
:100980001946634600E000BF01B5FFF7B7FF002836
:1009900048BF10F1000F01BD4DF808EDFFF7F4FF5F
:1009A0000CBF012000205DF808FB00BF4DF808EDEA
:1009B000FFF7EAFF34BF012000205DF808FB00BF0D
:1009C0004DF808EDFFF7E0FF94BF012000205DF82F
:1009D00008FB00BF4DF808EDFFF7CEFF94BF0120E4
:1009E00000205DF808FB00BF4DF808EDFFF7C4FFDD
:1009F00034BF012000205DF808FB00BF4FEA410C26
:100A00007FEA6C5C02D150EA013C0AD14FEA430C08
:100A10007FEA6C5C02D152EA033C02D14FF0000045
:100A200070474FF0010070474FEA410212F5001283
:100A300015D211D56FF47873B3EB625212D94FEA25
:100A4000C12343F0004343EA505311F0004F23FA0F
:100A500002F018BF404270474FF00000704750EA64
:100A6000013005D111F0004008BF6FF00040704721
:100A70004FF00000704700BF4A0011D212F500127B
:100A800011D20DD56FF47873B3EB62520ED44FEAE6
:100A9000C12343F0004343EA505323FA02F0704766
:100AA0004FF00000704750EA013002D14FF0FF30A4
:100AB00070474FF0000070474FEA4102B2F1E04347
:100AC00024BFB3F5001CDCF1FE5C0DD901F0004C35
:100AD0004FEAC0024CEA5070B2F1004F40EB830085
:100AE00008BF20F00100704711F0804F21D113F1B1
:100AF0003872BCBF01F00040704741F480114FEAEA
:100B00005252C2F11802C2F1200C10FA0CF320FA72
:100B100002F018BF40F001004FEAC1234FEAD3238F
:100B200003FA0CFC40EA0C0023FA02F34FEA4303F9
:100B3000CCE77FEA625307D150EA01331EBF4FF082
:100B4000FE4040F44000704701F0004040F0FE409D
:100B500040F40000704700BF80F0004002E000BF9A
:100B600081F0004142001FBF5FEA410392EA030F98
:100B70007FEA226C7FEA236C6AD04FEA1262D2EBE2
:100B80001363C1BFD218414048404140B8BF5B42E7
:100B9000192B88BF704710F0004F40F4000020F080
:100BA0007F4018BF404211F0004F41F4000121F096
:100BB0007F4118BF494292EA030F3FD0A2F10102E0
:100BC00041FA03FC10EB0C00C3F1200301FA03F11E
:100BD00000F0004302D5494260EB4000B0F5000F41
:100BE00013D3B0F1807F06D340084FEA310102F100
:100BF0000102FE2A51D2B1F1004F40EBC25008BFB2
:100C000020F0010040EA03007047490040EB00007B
:100C1000013A28BFB0F5000FEDD2B0FA80FCACF17C
:100C2000080CB2EB0C0200FA0CF0AABF00EBC250A9
:100C300052421843BCBFD0401843704792F0000F97
:100C400081F4000106BF80F400000132013BB5E7EA
:100C50004FEA41037FEA226C18BF7FEA236C21D060
:100C600092EA030F04D092F0000F08BF08467047C5
:100C700090EA010F1CBF0020704712F07F4F04D193
:100C8000400028BF40F00040704712F100723CBFA6
:100C900000F50000704700F0004343F0FE4040F4D0
:100CA000000070477FEA226216BF08467FEA23638E
:100CB0000146420206BF5FEA412390EA010F40F479
:100CC000800070474FF0000304E000BF10F00043C5
:100CD00048BF40425FEA000C08BF704743F09643AC
:100CE00001464FF000001CE050EA010208BF7047C7
:100CF0004FF000030AE000BF50EA010208BF70474E
:100D000011F0004302D5404261EB41015FEA010C62
:100D100002BF84460146002043F0B64308BFA3F15A
:100D20008053A3F50003BCFA8CF2083AA3EBC2533C
:100D300010DB01FA02FC634400FA02FCC2F120025B
:100D4000BCF1004F20FA02F243EB020008BF20F092
:100D50000100704702F1200201FA02FCC2F12002F8
:100D600050EA4C0021FA02F243EB020008BF20EAED
:100D7000DC7070474FF0FF0C1CEAD0521EBF1CEA1B
:100D8000D15392EA0C0F93EA0C0F6FD01A4480EA09
:100D9000010C400218BF5FEA41211ED04FF00063F2
:100DA00043EA501043EA5111A0FB01310CF000401E
:100DB000B1F5000F3EBF490041EAD3715B0040EA44
:100DC000010062F17F02FD2A1DD8B3F1004F40EB14
:100DD000C25008BF20F00100704790F0000F0CF0E7
:100DE000004C08BF49024CEA502040EA51207F3AAB
:100DF000C2BFD2F1FF0340EAC250704740F4000086
:100E00004FF00003013A5DDC12F1190FDCBF00F076
:100E100000407047C2F10002410021FA02F1C2F124
:100E2000200200FA02FC5FEA310040F1000053EAC0
:100E30004C0308BF20EADC70704792F0000F00F00E
:100E4000004C02BF400010F4000F013AF9D040EA14
:100E50000C0093F0000F01F0004C02BF490011F4A8
:100E6000000F013BF9D041EA0C018FE70CEAD153A6
:100E700092EA0C0F18BF93EA0C0F0AD030F0004C26
:100E800018BF31F0004CD8D180EA010000F00040DA
:100E9000704790F0000F17BF90F0004F084691F098
:100EA000000F91F0004F14D092EA0C0F01D14202D2
:100EB0000FD193EA0C0F03D14B0218BF084608D19B
:100EC00080EA010000F0004040F0FE4040F40000E5
:100ED000704740F0FE4040F4400070474FF0FF0C78
:100EE0001CEAD0521EBF1CEAD15392EA0C0F93EABF
:100EF0000C0F69D0A2EB030280EA010C49024FEA11
:100F0000402037D04FF0805343EA111143EA1013C9
:100F10000CF000408B4238BF5B0042F17D024FF481
:100F2000000C8B4224BF5B1A40EA0C00B3EB510F5C
:100F300024BFA3EB510340EA5C00B3EB910F24BF45
:100F4000A3EB910340EA9C00B3EBD10F24BFA3EBCA
:100F5000D10340EADC001B0118BF5FEA1C1CE0D192
:100F6000FD2A3FF650AF8B4240EBC25008BF20F045
:100F7000010070470CF0004C4CEA50207F32C2BF99
:100F8000D2F1FF0340EAC250704740F400004FF036
:100F90000003013A37E792F0000F00F0004C02BF67
:100FA000400010F4000F013AF9D040EA0C0093F031
:100FB000000F01F0004C02BF490011F4000F013B8B
:100FC000F9D041EA0C0195E70CEAD15392EA0C0FF3
:100FD00008D142027FF47DAF93EA0C0F7FF470AF2B
:100FE000084676E793EA0C0F04D14B023FF44CAF6E
:100FF00008466EE730F0004C18BF31F0004CCAD103
:1010000030F000427FF45CAF31F000437FF43CAF3E
:101010005FE700BF4FF0FF3C06E000BF4FF0010C60
:1010200002E000BF4FF0010C4DF804CD4FEA400242
:101030004FEA41037FEA226C18BF7FEA236C11D08C
:1010400001B052EA530C18BF90EA010F58BFB2EB3F
:10105000030088BFC81738BF6FEAE17018BF40F0BF
:10106000010070477FEA226C02D15FEA402C05D173
:101070007FEA236CE4D15FEA412CE1D05DF8040BF8
:10108000704700BF844608466146FFE70FB5FFF78B
:10109000C9FF002848BF10F1000F0FBD4DF808ED43
:1010A000FFF7F4FF0CBF012000205DF808FB00BF34
:1010B0004DF808EDFFF7EAFF34BF012000205DF88E
:1010C00008FB00BF4DF808EDFFF7E0FF94BF0120DB
:1010D00000205DF808FB00BF4DF808EDFFF7D2FFD8
:1010E00094BF012000205DF808FB00BF4DF808ED1B
:1010F000FFF7C8FF34BF012000205DF808FB00BFE8
:101100004FEA4002B2F1FE4F0FD34FF09E03B3EB14
:1011100012620DD94FEA002343F0004310F0004F54
:1011200023FA02F018BF404270474FF000007047AA
:1011300012F1610F01D1420205D110F0004008BF49
:101140006FF0004070474FF00000704780B584B0EA
:1011500000AFF860B9607A60074AFB681360074A1D
:10116000BB681360064A7B681360064800F084FB86
:1011700000BF1037BD4680BD980000209C000020B5
:10118000A0000020A88A000880B485B000AF034604
:101190000A46FB711346BB710023FB60FB79392BB8
:1011A00004D9FB79573B1B01FB6003E0FB79303B23
:1011B0001B01FB60BB79392B05D9BB79573BFA681A
:1011C0001344FB6004E0BB79303BFA681344FB60D6
:1011D000FB6818461437BD4680BC704780B586B0A2
:1011E00000AFF860B9607A6000237B613AE07B6908
:1011F000214A134404222149184606F029FD0346DA
:10120000002B2CD17B6904331B4AD25C7B690533EC
:101210001949CB5C19461046FFF7B6FF0246BB687A
:101220001A607B690633144AD25C7B690733124922
:10123000CB5C19461046FFF7A7FF0246FB681A6011
:101240007B690A330C4AD25C7B690B330A49CB5C5D
:1012500019461046FFF798FF02467B681A607B69C3
:1012600001337B617B69B3F5806FC0D300BF00BFE2
:101270001837BD4680BD00BFA4000020000000203C
:1012800080B586B000AFF860B9607A6002F030FED9
:1012900003463B613B697B614FF4806200211F483C
:1012A00006F0E6FC1E4B00221A601E4B18681C4B11
:1012B0001B681A4A13440122194605F023FE03460F
:1012C0001946194800F0D8FA16E002F011FE02465D
:1012D0007B69D31A41F2883293420DD90F491348E2
:1012E00000F0CAFA4FF480620C49114800F0C4FAC9
:1012F00002F0FEFD03467B6102F0FAFD02463B6907
:10130000D31A4EF65F229342DFD97A68B968F8683B
:10131000FFF764FF00BF1837BD4680BDA400002062
:10132000A404002098000020D48A0008E48A000861
:10133000F48A000880B582B000AF78607B681B68D3
:101340000A4A93420ED10A4B1B680133084A1360C4
:10135000084B1868064B1B68074A134401221946BC
:1013600005F0D0FD00BF0837BD4680BD00440040F9
:10137000A404002098000020A400002080B584B0C0
:1013800000AF0346FB710023FB7315E0FB7923F0EC
:101390007F03DBB219460C4801F0BCF801210B4871
:1013A00001F0B8F80021094801F0B4F8FB795B00BE
:1013B000FB71FB7B0133FB73FB7B072BE6D900BF83
:1013C00000BF1037BD4680BDAC040020CC04002017
:1013D00080B584B000AF78607B6899787B681A88A4
:1013E0000123274801F066F80346FB73FB7B002BC3
:1013F00007D0FB7B4E222349184600F073F80346C2
:1014000039E07B6899797B689A8801231E4801F04E
:1014100051F80346FB73FB7B002B07D0FB7B50226C
:101420001849184600F05EF8034624E07B68997A74
:101430007B681A890123154801F03CF80346FB73C9
:10144000FB7B002B07D0FB7B52220E49184600F095
:1014500049F803460FE001210C4801F05BF8002138
:10146000094801F057F80021054801F053F8084BEE
:1014700001221A70002318461037BD4680BD00BFF8
:10148000AC040020048B0008CC040020EC040020F5
:10149000A804002080B582B000AF0346FB710F4B5B
:1014A0001B78002B16D00E4B1B6C0D4AB2F85C104B
:1014B0000022184603F051FBFB791846FFF75EFF48
:1014C000074B1B6C064AB2F85C100122184603F069
:1014D00044FB00E000BF0837BD4680BDA8040020E3
:1014E000AC04002080B584B000AF0346B9607A60D8
:1014F000FB73FB7B002B01D1002306E0F97B7B68AB
:10150000BA68044800F0B8F9FB7B18461037BD46AE
:1015100080BD00BF1C8B000880B586B002AFF860AC
:10152000B9607A60114B1B780133DAB20F4B1A7035
:101530000E4B1B78632B02D80C4B64221A700B4B9A
:101540001B78C72B02D9094B64221A70074B1B78F2
:1015500019467B680093BB68FA68054800F08CF96F
:10156000024B1B7818461037BD4680BDA9040020E9
:10157000308B000880B582B000AF0346FB71FB7969
:101580001F2B2AD87E20FFF785FFFB799F2B05D9DB
:10159000FB791B09DBB23733DBB204E0FB791B09B3
:1015A000DBB23033DBB21846FFF774FFFB7903F090
:1015B0000F03DBB2092B06D9FB7903F00F03DBB273
:1015C0003733DBB205E0FB7903F00F03DBB23033D6
:1015D000DBB21846FFF75EFF03E0FB791846FFF722
:1015E00059FF00BF0837BD4680BD80B584B000AF4D
:1015F00078600023FB6009E0FB687A6813441B787D
:101600001846FFF747FFFB680133FB60FB687A6809
:1016100013441B78002BEFD100BF00BF1037BD462D
:1016200080BD000080B586B000AF78600023FB75F8
:101630007B68002B1CD13020FFF72CFF2DE0796850
:10164000174BA3FB0123DA0813469B0013445B00EE
:10165000CA1AFB7DD2B218333B4403F80C2C7B68CA
:101660000F4AA2FB0323DB087B60FB7D0133FB7584
:101670007B68002BE3D10DE0FB7D013B18333B443D
:1016800013F80C3C3033DBB21846FFF703FFFB7D49
:10169000013BFB75FB7D002BEED11837BD4680BDAD
:1016A000CDCCCCCC80B586B000AF78600B46FB705B
:1016B0000023FB757B68002B03D13020FFF7EAFE87
:1016C0003AE0FB78642B22D17B68002B1FDA2D20B7
:1016D000FFF7E0FE7B685B427B6018E07968184B9F
:1016E000A3FB0123DA0813469B0013445B00CA1ACC
:1016F000FB7DD2B218333B4403F80C2C7B68104AB4
:10170000A2FB0323DB087B60FB7D0133FB757B6859
:10171000002BE3D10DE0FB7D013B18333B4413F874
:101720000C3C3033DBB21846FFF7B4FEFB7D013BC7
:10173000FB75FB7D002BEED11837BD4680BD00BF89
:10174000CDCCCCCC80B584B000AF78600B46FB70BC
:101750000023FB600023FB727B68002B12D130203A
:10176000FFF798FE3AE0FB681B01FB607B6803F023
:101770000F03FA681344FB607B681B097B60FB7AEC
:101780000133FB727B68002BEDD124E0FB68DBB2F8
:1017900003F00F03BB72BB7A092B06D8BB7A303338
:1017A000DBB21846FFF776FE0FE0FB78582B06D128
:1017B000BB7A3733DBB21846FFF76CFE05E0BB7A25
:1017C0005733DBB21846FFF765FEFB681B09FB6069
:1017D000FB7A013BFB72FB7A002BD7D11037BD4659
:1017E00080BD80B584B000AF78600B46FB700023ED
:1017F000FB600023BB72FB78422B02D12023BB721B
:1018000001E00823BB720023FB7210E0FB685B0061
:10181000FB607B6803F00103002B02D0FB680133FF
:10182000FB607B685B087B60FB7A0133FB72FA7AB2
:10183000BB7A9A42EAD30023FB7211E0FB6803F003
:101840000103002B03D03120FFF724FE02E03020FB
:10185000FFF720FEFB685B08FB60FB7A0133FB723D
:10186000FA7ABB7A9A42E9D300BF00BF1037BD466F
:1018700080BD0000000000000FB4B0B598B000AF0C
:101880000023FB6507F17403BB6025E2FB6D3A6F33
:1018900013441B78252B0AD0FB6D3A6F13441B7839
:1018A0001846FFF7F7FDFB6D0133FB6514E2FB6D96
:1018B00001333A6F13441B78002B00F00D82FB6D4F
:1018C00001333A6F13441B78423B362B00F20182FE
:1018D00001A252F823F000BF891B0008D31C0008A6
:1018E000D31C0008D31C0008D31C0008D31C00081C
:1018F000D31C0008D31C0008D31C0008D31C00080C
:10190000D31C00083F1C0008D31C0008D31C00088F
:10191000D31C0008D31C0008D31C0008D31C0008EB
:10192000D31C0008D31C0008D31C0008D31C0008DB
:10193000611B0008D31C0008D31C0008D31C00083E
:10194000D31C0008D31C0008D31C0008D31C0008BB
:10195000D31C0008D31C0008751B0008351B0008A9
:10196000B5190008D31C0008DF190008D31C0008B3
:10197000D31C0008D31C0008D31C0008D31C00088B
:10198000D31C00089D1B0008D31C0008D31C0008B2
:101990007F1C0008D31C0008D31C0008231B000870
:1019A000D31C0008CB190008D31C0008D31C000866
:1019B0004D1B0008BB681A1DBA601B687B627B6AFE
:1019C00064211846FFF76EFE83E1BB681A1DBA60FA
:1019D0001B68BB637521B86BFFF764FE79E1BB68D8
:1019E000073323F0070303F10802BA60D3E90023A9
:1019F000C7E912234FF000024FF00003D7E91201AC
:101A0000FEF7D4FF0346002B08D0BC6CFB6C83F0C0
:101A10000045C7E912452D20FFF73CFDD7E912012B
:101A2000FFF72AF803461846FFF7FCFD2E20FFF7C4
:101A300031FDD7E91201FEF7F7FF03461846FEF71E
:101A4000D9FC02460B46D7E91201FEF785FB024698
:101A50000B46C7E91223A8A3D3E90023D7E9120153
:101A6000FEF732FD02460B4610461946FEF7DCFF34
:101A70000346BB65BA6DA24B83FB02139911D317C2
:101A8000CB1A4FF47A7101FB03F3D31AB3F5FA7F43
:101A900009DDBB6D9A4A82FB03129211DB17D31A40
:101AA0000133BB6507E0BB6D954A82FB03129211BF
:101AB000DB17D31ABB65062387F8573097F85730E2
:101AC00060333B44002203F8602C21E097F8573044
:101AD000013B87F85730BA6D8A4B83FB021399108C
:101AE000D317C91A0B469B000B445B00D11ACAB22C
:101AF00097F857303032D2B260333B4403F8602C51
:101B0000BB6D804A82FB03129210DB17D31ABB65B0
:101B100097F85730002BD9D13B461846FFF765FDA3
:101B2000D7E0BB681A1DBA601B687B63786BFFF750
:101B30005CFDCEE0BB681A1DBA601B6887F82330D5
:101B400097F823301846FFF715FDC2E0BB681A1D51
:101B5000BA601B68FB637821F86BFFF7F3FDB8E010
:101B6000BB681A1DBA601B68BB615821B869FFF7D2
:101B7000E9FDAEE0BB681A1DBA601B68FB6162211B
:101B8000F869FFF72EFEA4E0BB681A1DBA601B6857
:101B9000FB604221F868FFF724FE9AE0BB681A1D3B
:101BA000BA601B68FB62BB681A1DBA601B687B8544
:101BB00000237B643EE07B6CFA6A13441B789F2B06
:101BC00008D97B6CFA6A13441B781B09DBB23733E4
:101BD000DBB207E07B6CFA6A13441B781B09DBB2AB
:101BE0003033DBB21846FFF755FC7B6CFA6A1344BE
:101BF0001B7803F00F03DBB2092B09D97B6CFA6A5F
:101C000013441B7803F00F03DBB23733DBB208E079
:101C10007B6CFA6A13441B7803F00F03DBB230339A
:101C2000DBB21846FFF736FC2020FFF733FC7B6C55
:101C300001337B647B8D7A6C9A42BCDB49E0BB68E4
:101C40001A1DBA601B687B61BB681A1DBA601B68ED
:101C50007B8200233B640DE03B6C7A6913441B7864
:101C600075211846FFF71EFD2020FFF713FC3B6C83
:101C700001333B647B8A3A6C9A42EDDB29E0BB6816
:101C80001A1DBA601B683B633B6B1B7875211846B5
:101C9000FFF708FD2E20FFF7FDFB3B6B01331B78A0
:101CA00075211846FFF7FEFC2E20FFF7F3FB3B6B78
:101CB00002331B7875211846FFF7F4FC2E20FFF73E
:101CC000E9FB3B6B03331B7875211846FFF7EAFCF1
:101CD00000BFFB6D0233FB65FB6D3A6F13441B784D
:101CE000002B7FF4D3AD00BF00BF6037BD46BDE819
:101CF000B04004B0704700BF0000000065CDCD418A
:101D0000D34D62106766666680B483B000AF7860BA
:101D100039607B681A783B681A707B685A683B6840
:101D20005A607B689A683B689A607B681A693B686E
:101D30001A613B6800221A733B6800225A7300BF85
:101D40000C37BD4680BC704780B500AF034B5B6865
:101D50009847034B02225A6100BF80BD0C0500204A
:101D60000004014080B500AF034B9B689847034BCC
:101D700004225A6100BF80BD0C0500200004014010
:101D800080B500AF034BDB689847034B08225A61CC
:101D900000BF80BD0C0500200004014080B500AFED
:101DA000034B1B699847034B10225A6100BF80BD4B
:101DB0000C0500200004014080B500AF1F4B5B699B
:101DC00003F02003002B05D01D4B5B6998471B4B8C
:101DD00020225A61194B5B6903F04003002B05D0A8
:101DE000174B9B699847154B40225A61134B5B690F
:101DF00003F08003002B05D0114BDB6998470F4B94
:101E000080225A610D4B5B6903F48073002B06D06E
:101E10000B4B1B6A9847094B4FF480725A61074B72
:101E20005B6903F40073002B06D0054B5B6A98478F
:101E3000024B4FF400725A6100BF80BD00040140A4
:101E40000C05002080B500AF274B5B6903F480636D
:101E5000002B06D0254B9B6A9847234B4FF480629A
:101E60005A61214B5B6903F40063002B06D01F4BC2
:101E7000DB6A98471C4B4FF400625A611A4B5B694E
:101E800003F48053002B06D0184B1B6B9847164B5E
:101E90004FF480525A61144B5B6903F40053002BDA
:101EA00006D0124B5B6B98470F4B4FF400525A61B0
:101EB0000D4B5B6903F48043002B06D00B4B9B6BEF
:101EC0009847094B4FF480425A61074B5B6903F412
:101ED0000043002B06D0054BDB6B9847024B4FF4B9
:101EE00000425A6100BF80BD000401400C05002083
:101EF00080B483B000AF0346FB71FB79042B17D885
:101F000001A252F823F000BF1D1F0008211F000886
:101F1000251F0008291F00082D1F0008074B08E097
:101F2000074B06E0074B04E0074B02E0074B00E0DD
:101F3000002318460C37BD4680BC7047000801409E
:101F4000000C014000100140001401400018014045
:101F500080B483B000AF0346FB80FB8803F001032D
:101F6000002B01D0002369E0FB8803F00203002B63
:101F700001D0012362E0FB8803F00403002B01D0B1
:101F800002235BE0FB8803F00803002B01D003234E
:101F900054E0FB8803F01003002B01D004234DE034
:101FA000FB8803F02003002B01D0052346E0FB88CB
:101FB00003F04003002B01D006233FE0FB8803F031
:101FC0008003002B01D0072338E0FB8803F48073E3
:101FD000002B01D0082331E0FB8803F40073002BB1
:101FE00001D009232AE0FB8803F48063002B01D091
:101FF0000A2323E0FB8803F40063002B01D00B23AA
:102000001CE0FB8803F48053002B01D00C2315E067
:10201000FB8803F40053002B01D00D230EE0FB8856
:1020200003F48043002B01D00E2307E0B7F90630FC
:10203000002B01DA0F2301E04FF0FF3318460C3775
:10204000BD4680BC7047000080B588B000AF034635
:10205000FB71FB79042B4ED801A252F823F000BF8C
:10206000752000088F200008A9200008C320000860
:10207000DD200008254B9B69244A43F0040393614B
:10208000224B9B6903F00403FB61FB6938E01F4BA3
:102090009B691E4A43F0080393611C4B9B6903F044
:1020A0000803BB61BB692BE0184B9B69174A43F0DF
:1020B00010039361154B9B6903F010037B617B69EF
:1020C0001EE0124B9B69114A43F0200393610F4BB2
:1020D0009B6903F020033B613B6911E00B4B9B695B
:1020E0000A4A43F040039361084B9B6903F04003A5
:1020F000FB60FB6804E0A42205490648FFF70CFAE0
:10210000002318462037BD4680BD00BF00100240A6
:10211000748B00088C8B000880B582B000AF7860AB
:102120000B46FB70FB780B2B59D801A252F823F019
:10213000612100088B210008612100087D21000831
:102140006F2100088B21000899210008A7210008B1
:10215000B5210008C3210008A7210008D1210008EB
:102160007B6800225A607B6800229A603EE07B68B0
:1021700000225A607B6801229A6037E07B68002267
:102180005A607B6802229A6030E07B6801225A60C4
:102190007B6800229A6029E07B6811225A607B6884
:1021A00000229A6022E07B6800225A607B6800224D
:1021B0009A601BE07B6802225A607B6800229A606A
:1021C00014E07B6812225A607B6800229A600DE05E
:1021D0007B6803225A607B6800229A6006E0E9224D
:1021E00005490648FFF798F9034600E00023184622
:1021F0000837BD4680BD00BF748B00089C8B00086B
:1022000080B582B000AF78600B46FB70FB78032B83
:102210001AD801A252F823F029220008312200081E
:1022200039220008412200087B680322DA6012E0AC
:102230007B680322DA600EE07B680122DA600AE044
:102240007B680222DA6006E0F92205490548FFF7BB
:1022500063F9034600E0002318460837BD4680BDF9
:10226000748B0008B48B000880B588B000AF78602C
:1022700039603A687B68043319461046FFF744FD1D
:102280007B681B791846FFF733FE02467B681A60AD
:102290003B681A8B7B689A837B689B8BBB607B68EF
:1022A0001B791846FFF7D0FE0346FB77FB7F002B18
:1022B00008D0FB7F40F2131278491846FFF712F955
:1022C0000346E7E03B689A7E07F10803114618468B
:1022D000FFF722FF0346FB77FB7F002B08D0FB7F35
:1022E0004FF48B726D491846FFF7FCF80346D1E0B6
:1022F0003B68DA7E07F1080311461846FFF780FFB6
:102300000346FB77FB7F002B08D0FB7F40F21912BE
:1023100062491846FFF7E6F80346BBE03B681B6AD4
:10232000002B13D03B681B7F032B0CD0032B0EDC40
:10233000012B02D0022B03D009E0594BFB6006E0D1
:10234000574BFB6003E0564BFB6000E000BF7B682F
:102350001B6807F108021146184602F0A7F97B68CE
:102360009B68002B0ED07B689B681B68002B09D0F4
:102370007B6859697B681B791A467B689B8B494847
:10238000FFF77AFA3B681B6A002B00F082807B68BB
:102390009B8B1846FFF7DCFDB861BB69002B07DAA1
:1023A00040F22F123D494048FFF7B6F8034671E06E
:1023B0003B681A6A3D49BB6941F82320BB690F2B72
:1023C0003ED801A252F823F0092400081124000885
:1023D00019240008212400082924000831240008B9
:1023E0003124000831240008312400083124000879
:1023F0003924000839240008392400083924000849
:1024000039240008392400087B6806229A7717E0EF
:102410007B6807229A7713E07B6808229A770FE09F
:102420007B6809229A770BE07B680A229A7707E09B
:102430007B6817229A7703E07B6828229A7700BF8F
:102440007B689B7F58B23B685B7F1B09DBB203F064
:102450000F013B685B7F03F00F031A4601F04DFE4E
:102460007B689B7F5BB2184601F063FE7B689B68CC
:10247000002B0ED07B689B681B68002B09D07B6803
:1024800059697B681B791A467B689B7F0848FFF770
:10249000F3F9002318462037BD4680BD748B000831
:1024A00000001110CC8B0008E48B00080C05002004
:1024B000F08B000880B58CB000AF786008461146FC
:1024C0001A460346FB700B463B801346BB70FB78F5
:1024D0003B730F4BFB6100233B6100237B613B8817
:1024E000BB84BB7887F82630002387F82730002389
:1024F000FB62002387F8283007F10C03194678683F
:10250000FFF7B2FE034618463037BD4680BD00BF18
:10251000108C000880B582B000AF78600B46FB706D
:10252000FB78002B08D07B6818687B689B8B0122A6
:10253000194602F012FB07E07B6818687B689B8BEA
:102540000022194602F009FB00BF0837BD4680BDD6
:1025500080B582B000AF01F0D5F9FB1D194600200F
:1025600001F014F901F02CF900BF0837BD4680BD19
:1025700090B593B006AFF860B9607A60002387F831
:102580002F3093E097F82F309B009E4A1A4497F81B
:102590002F309B009C490B441946104601F040F92E
:1025A00097F82F30984A52F82320984B1B689A428C
:1025B00038D997F82F30944A52F82320934B1B6850
:1025C000D31A1846FEF77EFB0346BB62904B1A688F
:1025D000904B1B68D31A1846FEF774FB0346194646
:1025E000B86AFEF77BFC0346BB628B49B86AFEF70C
:1025F000C1FB0346BB62894B1B68B96A1846FEF7EC
:10260000AFFA03461A46854B1A60844B1B6884490F
:102610001846FEF74DFD0346002B3BD07F4B804A0A
:102620001A6037E0794B1A6897F82F30764951F8DD
:102630002330D31A1846FEF745FB0346BB62744BA2
:102640001A68744B1B68D31A1846FEF73BFB034607
:102650001946B86AFEF742FC0346BB626E49B86A87
:10266000FEF788FB0346BB626C4B1B68B96A1846D1
:10267000FEF778FA03461A46684B1A60674B1B68E8
:1026800068491846FEF732FD0346002B02D0634B23
:10269000644A1A6097F82F305B4A52F823305B4A3D
:1026A000136097F82F30013387F82F3097F82F30C9
:1026B0001F2B7FF667AF574B5B4A1A60544B0022C3
:1026C0001A60002387F82F3024E097F82F304E4A05
:1026D00052F823204F4B1B689A4206D297F82F30AE
:1026E000494A52F823304B4A136097F82F30464A34
:1026F00052F82320464B1B689A4206D997F82F3090
:10270000414A52F82330424A136097F82F30013380
:1027100087F82F3097F82F301F2BD6D907F12402D6
:1027200007F11C03049307F12003039307F113033C
:10273000029307F11403019307F11B03009313465F
:10274000314A20212F4800F07BF897F91330002BF5
:1027500050D097F91B30002B4CD07B6801221A70A7
:10276000324B1C68324B1B781846FEF7AFFA034613
:1027700019462046FEF7B2FB03461A46FB681A606C
:102780002C4B1B682A4A127893FBF2F31A46BB685B
:102790001A6001F0ADFB0246274B1B68D31A42F2C8
:1027A000107293420ED9224B00221A701F4B4FF029
:1027B00000021A601F4B00221A6001F099FB0346C9
:1027C0001D4A1360194B1B687A6A11461846FEF7BA
:1027D000C9F903461A46154B1A60164B1A687B69ED
:1027E0001344144A1360124B1B780133DAB2104BB6
:1027F0001A7003E07B6800221A7000BF00BF3437F4
:10280000BD4690BD4C050020CC0500205C06002094
:10281000600600200400002000000C436406002035
:102820000000C8C100002543FFFF0300540600203C
:1028300050060020580600204C0600200000000032
:10284000B0B5D6B004AF07F5A474A4F59E742060AB
:1028500007F5A470A0F5A070016007F5A471A1F5BB
:10286000A2710A6007F5A472A2F5A47213604FF07A
:102870000003C7F840314FF00003C7F83C31002394
:10288000C7F8443130E0D7F844319B0007F5A47213
:10289000A2F59E72126813441B681846FEF712FADE
:1028A00003461946D7F84001FEF75CF90346C7F81E
:1028B0004031D7F844319B0007F5A472A2F5A2720B
:1028C000126813441B681846FEF7FCF903461946C4
:1028D000D7F83C01FEF746F90346C7F83C31D7F874
:1028E00044310133C7F8443107F5A473A3F5A0734D
:1028F000D7F844211B689A42C5DB07F5A473A3F5FA
:10290000A0731868FEF7E2F903461946D7F84001AC
:10291000FEF7E4FA0346C7F8403107F5A473A3F5C0
:10292000A0731868FEF7D2F903461946D7F83C01A0
:10293000FEF7D4FA0346C7F83C310023C7F8443108
:1029400007F19403C7F8343107F11403C7F83031A5
:102950003EE0D7F844319B0007F5A472A2F59E72C1
:10296000126813441B681846FEF7ACF90346D7F803
:1029700040111846FEF7F4F803461A46D7F83431EA
:102980001A60D7F844319B0007F5A472A2F5A27231
:10299000126813441B681846FEF794F90346D7F8EB
:1029A0003C111846FEF7DCF803461A46D7F83031DA
:1029B0001A60D7F844310133C7F84431D7F83431BD
:1029C0000433C7F83431D7F830310433C7F8303125
:1029D00007F5A473A3F5A073D7F844211B689A42A6
:1029E000B7DB07F19403C84AC849184600F0ACF9B0
:1029F000C7F82C0107F11403C34AC449184600F074
:102A0000A3F9C7F828010023C7F84431C04BC7F821
:102A1000383107F19403C7F8343107F11403C7F8CC
:102A200030313DE0D7F834311C68D7F83811D7F889
:102A30002C01FEF79FF9034619462046FEF790F851
:102A400003461A46D7F834311A60D7F830311C687B
:102A5000D7F83811D7F82801FEF78CF90346194644
:102A60002046FEF77DF803461A46D7F830311A6043
:102A7000D7F844310133C7F844314FF07E51D7F8CD
:102A80003801FEF76FF80346C7F83831D7F834310C
:102A90000433C7F83431D7F830310433C7F8303154
:102AA00007F5A473A3F5A073D7F844211B689A42D5
:102AB000B8DB07F58A7207F5A473A3F5A07307F1D5
:102AC0001400196800F0B8FAC7F8240107F58C72F1
:102AD00007F5A473A3F5A07307F19400196800F03B
:102AE000ABFAC7F8200107F5A473A3F5A07307F1AB
:102AF000140107F194001A6800F0EFFA0346184633
:102B0000FDF78AFC04460D46D7F81431D7F8182192
:102B100011461846FEF72EF903461846FDF77CFCD1
:102B200002460B461046194605F012F902460B46BE
:102B300020462946FDF7F2FD02460B46104619468F
:102B4000FDF7BAFF0246D7F868311A60D7F8683146
:102B50001B6870491846FEF7BFFA0346002B27D0C2
:102B60006D4B1B68082B0CD1D7F8183107F1940076
:102B700001934FF07C5300932523674A202100F0F6
:102B800062F9654B1B68002B15D0D7F8183107F197
:102B90009400D7F86421039202934FF07C53019381
:102BA0002523009308235C4A202100F0BFF902E0AE
:102BB000594B00221A60584B1B68002B2FD0564BE4
:102BC0001B6840F2DC5292FBF3F2D7F85C311A60DA
:102BD000D7F8603101221A70D7F84011D7F82401D4
:102BE000FEF7C8F803461C46D7F83C11D7F8200179
:102BF000FEF7C0F8034619462046FEF76FF9034674
:102C0000C7F81C31D7F81C01FDF706FC34A3D3E943
:102C10000023FDF7E9FE0346002B17D182E03E4B6F
:102C200008221A60D7F85C313C4A1A60D7F8603144
:102C300000221A7007F5A473A3F5A4731B68384A21
:102C40001A60D7F8583100221A7076E0D7F81C01C4
:102C5000FDF7E2FB24A3D3E90023FDF7A7FE03461B
:102C6000002B5FD0D7F81C01FDF7D6FB20A3D3E9DA
:102C70000023FDF729FC02460B46104619461EA309
:102C8000D3E90023FDF76AFA02460B4614461D46B7
:102C9000D7F81C01FDF7C0FB02460B46204629462B
:102CA000FDF712FC02460B461046194614A3D3E961
:102CB0000023FDF753FA02460B4610461946FDF76E
:102CC000FBFE024607F5A473A3F5A4731B681A6004
:102CD000D7F8583101221A702FE000BFAFF30080FF
:102CE0007B14AE47E17A943F713D0AD7A370FD3F54
:102CF00048E17A14AE8746C0B4C876BE9F5A3E40BB
:102D0000AE47E17A14B6574080BEA2470000784132
:102D1000000078C1CDCC4C3F0800002019FCFFFF1B
:102D200000C079C407F5A473A3F5A4731B68054A12
:102D30001A60D7F8583100221A7007F5A477BD46FB
:102D4000B0BD00BF00C079C480B588B000AFF860E6
:102D5000B9607A604FF00003BB61BB6883F0004349
:102D6000FB61FB687B6116E07B691B68F9691846AB
:102D7000FEF700F803461946B869FDF7F3FE03466F
:102D8000BB614FF07E51F869FDF7ECFE0346FB6135
:102D90007B6904337B61B968F869FEF793F90346F0
:102DA000002BE1D17968B869FEF798F80346184618
:102DB0002037BD4680BD80B588B000AFF860B960EF
:102DC0007A60BB689AB27B689BB2D31A9BB27B8253
:102DD0004FF00003BB61B7F91230002B01DCBB6977
:102DE0002DE00023FB83FB687B6117E07B6918689B
:102DF0007B689B007A6913441B681946FDF7BAFF8C
:102E000003461946B869FDF7ADFE0346BB61FB8B6F
:102E100001339BB2FB837B6904337B61B7F91E20CE
:102E2000B7F912309A42E1DBB7F912301846FDF7D4
:102E30004DFF03461946B869FEF750F80346184699
:102E40002037BD4680BD80B588B000AFF860B9605E
:102E50007A603B607B681B68FB61FA69B968F86857
:102E6000FFF7A9FF78617B69BB61F96A7869FEF7B2
:102E700035F803461946B86AFEF724F90346002BD5
:102E80002BD0BB697B61FB690233FB61FA69B968CE
:102E9000F868FFF790FFB861F96AB869FEF71EF8A5
:102EA00003461946B86AFEF70DF90346002B0AD00F
:102EB0007969B869FEF7FCF80346002B03D0FA697C
:102EC0003B689A42DDDDFA693B689A4203DD7B6824
:102ED00000221A6027E0BB697B61BB697B61FB69EB
:102EE0000233FB61FA69B968F868FFF764FFB861FB
:102EF000F96AB869FDF7F2FF03461946B86AFEF7AA
:102F0000F5F80346002B03D0FA693B689A42E4DDEA
:102F1000FA693B689A4203DD7B6800221A6002E08E
:102F20007B68FA691A602037BD4680BD80B58AB0DB
:102F300000AFF860B9607A603B600023FB757B6886
:102F40001B687B627A6AB968F868FFF734FF3862F9
:102F50003B6A3B613B6AFB61FB693B627B6A013B0D
:102F60007B627A6AB968F868FFF725FFF861396A09
:102F7000F869FEF7BBF80346002B03D07A6A3B687A
:102F80009A42E9DA7A6A3B689A4207DA0123FB75CA
:102F90007B681B687B623B693B6202E07B6A0133B2
:102FA0007B627B681B687A6A9A422BD13B6ABB6161
:102FB000BB693B627B6A01337B627A6AB968F868F5
:102FC000FFF7F9FEB861396AB869FEF78FF8034672
:102FD000002B03D07A6A3B6B9A42E9DD7A6A3B6B3D
:102FE0009A4202DD00237B6202E07B6A013B7B6246
:102FF0007B681B687A6A9A4204D1FB7D002B01D062
:1030000000237B62B96B386AFDF768FF03461A46F6
:10301000FB6B1A60FB6B1B681946786BFEF766F852
:103020000346002B01D000237B627B687A6A1A601A
:1030300000BF2837BD4680BD90B589B000AFF860AD
:10304000B9607A607B684FF000021A600023FB834E
:10305000FB68BB6118E0BB691B687B617B681C680F
:1030600079697869FDF786FE034619462046FDF723
:1030700079FD03461A467B681A60FB8B01339BB2CD
:10308000FB83BB690433BB61B7F91E30BA689A424F
:10309000E1DC7B681C68B868FDF718FE034619463A
:1030A0002046FDF71BFF03461A467B681A607B68C3
:1030B0001B681846FDF7B0F902460B461046194644
:1030C00004F046FE02460B4610461946FDF7F4FC96
:1030D000034618462437BD4690BD80B588B000AF82
:1030E000F860B9607A604FF00003BB610023FB8396
:1030F000FB687B61BB683B6118E07B691A683B69D0
:103100001B6819461046FDF735FE03461946B86997
:10311000FDF728FD0346BB61FB8B01339BB2FB83AC
:103120007B6904337B613B6904333B61B7F91E3033
:103130007A689A42E1DC7868FDF7C8FD03461946D3
:10314000B869FDF7CBFE0346BB61BB691846203763
:10315000BD4680BD80B58EB002AF00F071FE00F0BC
:10316000E1F800F00BFA00F0D3F900F07DF900F07F
:103170001FF900F04BF900F0A1F90023BB77002301
:1031800087F82230002387F826301023BB832023C2
:103190003B844023BB8407F11C031846FEF718F953
:1031A0005248FEF769FB40F2B563BB614FF0000384
:1031B0003B610123FB730023BB6000237B60002382
:1031C0003B6000F095FEF862022249494948FDF74C
:1031D000BDFFFFF7BDF9002387F82B303A4607F112
:1031E00008013B1D1846FEF74BF83968BA687B6842
:1031F0004148FEF741FB4FF48051404801F096FCF6
:103200000346002B23D107F10F0207F1140107F148
:1032100010031846FFF7ACF9FB7B002B04D197F89D
:103220002B30013387F82B3097F82B30142B0ED925
:10323000334801F007FE0A2000F064FE304801F038
:10324000BDFC002387F82B302E48FEF715FB00F05D
:103250004FFE0246FB6AD31AB3F57A7FCBD94FF4FF
:103260000051294801F091FC00F0F0F9FB7B012BA3
:103270000BD13B691846FDF7CFF802460B4679693A
:1032800000912248FEF7F8FA02E02148FEF7F4FA2E
:10329000204BAA221A70BB691E4AC2F801307B6912
:1032A0001C4AC2F809303B691B491846FDF762FD0C
:1032B00003463B613B691846FDF722FF03461A4669
:1032C000164B1A60154B1B68124AC2F80D30FA7B78
:1032D000104B5A740F4B55229A7420220D491048F6
:1032E00003F036FE00F004FEF86284E7348C000838
:1032F0000008014058070020688C0008000C0140BD
:1033000068060020908C0008001001409C8C00088A
:10331000E48C0008B008002000007A443009002046
:103320001007002080B590B000AF07F118032822E5
:103330000021184604F09CFC3B1D00221A605A60D4
:103340009A60DA601A610123BB614FF48033FB613C
:1033500000233B620123BB6202237B634FF4803373
:10336000BB634FF4E013FB6307F11803184603F047
:1033700069F90346002B01D000F0E6F90F237B60CA
:103380000223BB600023FB604FF480633B6100239A
:103390007B613B1D0221184603F0D6FB0346002B40
:1033A00001D000F0D1F900BF4037BD4680BD00001C
:1033B00080B500AF124B134A1A60114B124A5A6083
:1033C0000F4B00229A600E4B0022DA600C4B4FF438
:1033D00080421A610A4B00225A61094B00229A610D
:1033E000074B0022DA61064B00221A62044801F002
:1033F000E5FB0346002B01D000F0A6F900BF80BD1D
:103400006806002000540040A086010080B500AF8F
:10341000124B134A1A60114B124A5A600F4B00228A
:103420009A600E4B0022DA600C4B4FF480421A6116
:103430000A4B00225A61094B00229A61074B002275
:10344000DA61064B00221A62044801F0B7FB03461A
:10345000002B01D000F078F900BF80BDBC06002031
:1034600000580040A086010080B500AF114B124A01
:103470001A60104B4FF4E1325A600E4B00229A60F2
:103480000C4B0022DA600B4B00221A61094B0C2214
:103490005A61084B00229A61064B0022DA61054806
:1034A00003F0E0FC0346002B01D000F04DF900BF13
:1034B00080BD00BF100700200038014080B500AF7C
:1034C000114B124A1A60104B4FF4E1325A600E4B06
:1034D00000229A600C4B0022DA600B4B00221A612A
:1034E000094B0C225A61084B00229A61064B0022BC
:1034F000DA61054803F0B6FC0346002B01D000F06A
:1035000023F900BF80BD00BF5807002000440040E1
:1035100080B582B000AF184B5B69174A43F00103D6
:103520005361154B5B6903F001037B607B680022EC
:1035300000210E2000F0E1FD0E2000F0FAFD002237
:1035400000210F2000F0D9FD0F2000F0F2FD002235
:103550000021102000F0D1FD102000F0EAFD002233
:103560000021112000F0C9FD112000F0E2FD00BF94
:103570000837BD4680BD00BF0010024080B588B04E
:1035800000AF07F1100300221A605A609A60DA60F7
:103590002A4B9B69294A43F010039361274B9B698F
:1035A00003F01003FB60FB68244B9B69234A43F044
:1035B00020039361214B9B6903F02003BB60BB6830
:1035C0001E4B9B691D4A43F0040393611B4B9B698F
:1035D00003F004037B607B68184B9B69174A43F038
:1035E00008039361154B9B6903F008033B603B683C
:1035F00000224FF40051124801F0AFFA4FF400538B
:103600003B6101237B610023BB610223FB6107F166
:10361000100319460A4801F049F84FF480533B6102
:10362000084B7B610123BB6107F110031946064873
:1036300001F03CF800BF2037BD4680BD00100240BD
:10364000001001400000211000080140B0B586B014
:1036500002AF0023BB800A230093012300229021A4
:10366000344801F01FFC3A1D0A23009302239021E5
:10367000304801F015FD4FF00003FB606FF00703C9
:10368000BB602AE07B791A46BB68083342FA03F331
:1036900003F00103002B1DD0B868FCF7ABFE024617
:1036A0000B464FF000004FF0804104F0E9FA044669
:1036B0000D46F868FCF7B0FE02460B462046294648
:1036C000FCF74CFD02460B4610461946FDF7F4F98F
:1036D0000346FB60BB680133BB60BB68002BD1DBDA
:1036E0003B791846FDF7F2FA03461946F868FDF7EC
:1036F00039FA0346FB601049F868FDF73BFB0346C7
:10370000FB60F868FDF7FCFC03461A460B4B1A6099
:103710000A4B1B680A4AC2F80530F868FCF77CFEC1
:1037200002460B460748FEF7A7F800BF18461037B9
:10373000BD46B0BDBC06002000007A443009002020
:10374000B0080020308D000880B400AF72B600BF12
:10375000FEE7000080B586B004AF03460A46FB7161
:103760001346BB71FB799AB2642302930123019340
:10377000BB1D00930123AE21034801F0FDFE00BFF5
:103780000837BD4680BD00BF6806002080B586B002
:1037900004AF03463960FB71FB799AB2FA230293B6
:1037A000012301933B6800930123AF21034801F0FB
:1037B000DDFF00BF0837BD4680BD00BF68060020A2
:1037C00080B500AFC0210220FFF7C4FF0021032015
:1037D000FFF7C0FF00210420FFF7BCFF00210520F8
:1037E000FFF7B8FF00210620FFF7B4FF4F210820A4
:1037F000FFF7B0FF03210920FFF7ACFF27210A20C4
:10380000FFF7A8FF24210C20FFF7A4FF24210D209F
:10381000FFF7A0FF7F211020FFF79CFF00BF80BDB6
:1038200080B58AB004AF7860396007F11303194698
:103830000020FFF7ABFF07F1130319460120FFF744
:10384000A5FFFA2302930623019307F10C030093CB
:1038500001230722AF212A4801F088FF3B6800229C
:103860001A607B6800221A603B7B7B617B691B04CA
:103870007B617B681A687B691A447B681A607B7B72
:103880007B617B691B027B617B681A687B691A44D8
:103890007B681A60BB7B7B617B681A687B691A4412
:1038A0007B681A60FB7B7B617B691B047B613B68E7
:1038B0001A687B691A443B681A603B7C7B617B69B0
:1038C0001B027B613B681A687B691A443B681A607B
:1038D0007B7C7B613B681A687B691A443B681A6091
:1038E0007B681B68C3F311027B681A603B681B6826
:1038F000C3F311023B681A6000BF1837BD4680BD94
:103900006806002080B500AF40210920FFF722FFA4
:1039100000BF80BD80B483B000AF0E4B9B690D4AE1
:1039200043F0010393610B4B9B6903F001037B6040
:103930007B68084BDB69074A43F08053D361054B32
:10394000DB6903F080533B603B6800BF0C37BD462A
:1039500080BC70470010024080B58AB000AF78602C
:1039600007F1180300221A605A609A60DA607B68D7
:103970001B682B4A934224D12A4B9B69294A43F066
:1039800008039361274B9B6903F008037B617B6904
:10399000C023BB611223FB6103237B6207F1180381
:1039A0001946214800F082FE1E4BDB691D4A43F494
:1039B0000013D3611B4BDB6903F400133B613B69CC
:1039C00029E07B681B68194A934224D1154B9B69F7
:1039D000144A43F008039361124B9B6903F00803F8
:1039E000FB60FB684FF44063BB611223FB61032360
:1039F0007B6207F1180319460B4800F057FE094B8C
:103A0000DB69084A43F48003D361064BDB6903F4A6
:103A10008003BB60BB6800BF2837BD4680BD00BFC8
:103A20000054004000100240000C014000580040CB
:103A300080B582B000AF78607B681B68154A9342FE
:103A40000ED1154BDB69144A23F40013D3614021D6
:103A5000124800F0AFFF8021104800F0ABFF14E0E7
:103A60007B681B680E4A93420FD10B4BDB690A4AF5
:103A700023F48003D3614FF48061084800F09AFF7B
:103A80004FF40061054800F095FF00BF0837BD46C0
:103A900080BD00BF0054004000100240000C0140F7
:103AA0000058004080B58AB000AF786007F1180375
:103AB00000221A605A609A60DA607B681B688C4A40
:103AC000934240F087808B4B9B698A4A43F4804342
:103AD0009361884B9B6903F480437B617B69854BD1
:103AE0009B69844A43F004039361824B9B6903F012
:103AF00004033B613B694FF40073BB610223FB612C
:103B000003237B6207F1180319467B4800F0CEFDC2
:103B10004FF48063BB610023FB6100233B6207F12C
:103B200018031946744800F0C1FD744B744A1A60BA
:103B3000724B00225A60714B00229A606F4B8022B8
:103B4000DA606E4B00221A616C4B00225A616B4B9B
:103B500000229A61694B0022DA61684800F004FB98
:103B60000346002B01D0FFF7EFFD7B68634ADA6361
:103B7000624A7B685362634B634A1A60614B10224E
:103B80005A60604B00229A605E4B8022DA605D4B87
:103B900000221A615B4B00225A615A4B00229A6143
:103BA000584B0022DA61574800F0DEFA0346002B3A
:103BB00001D0FFF7C9FD7B68524A9A63514A7B687E
:103BC000536200220021252000F097FA252000F002
:103BD000B0FA89E07B681B684C4A934240F08480CD
:103BE000444BDB69434A43F40033D361414BDB6907
:103BF00003F40033FB60FB683E4B9B693D4A43F096
:103C0000040393613B4B9B6903F00403BB60BB68F7
:103C10000423BB610223FB6103237B6207F11803CA
:103C20001946354800F042FD0823BB610023FB61C3
:103C300000233B6207F1180319462F4800F036FDB8
:103C4000334B344A1A60324B00225A60304B002208
:103C50009A602F4B8022DA602D4B00221A612C4B88
:103C600000225A612A4B00229A61294B0022DA6114
:103C7000274800F079FA0346002B01D0FFF764FDD6
:103C80007B68234ADA63224A7B685362224B234AC9
:103C90001A60214B10225A601F4B00229A601E4B63
:103CA0008022DA601C4B00221A611B4B00225A61F1
:103CB000194B00229A61184B0022DA61164800F075
:103CC00053FA0346002B01D0FFF73EFD7B68124AF2
:103CD0009A63114A7B68536200220021262000F07B
:103CE0000CFA262000F025FA00BF2837BD4680BD1B
:103CF000003801400010024000080140A0070020E9
:103D000058000240E4070020440002400044004004
:103D1000280800206C0002406C080020800002404F
:103D200080B400AFFEE780B400AFFEE780B400AF20
:103D3000FEE780B400AFFEE780B400AFFEE780B4DA
:103D400000AF00BFBD4680BC704780B400AF00BF6D
:103D5000BD4680BC704780B400AF00BFBD4680BC8C
:103D6000704780B500AF00F0B1F800BF80BD000023
:103D700080B500AF024800F065FB00BF80BD00BF0A
:103D8000E407002080B500AF024800F05BFB00BFF5
:103D900080BD00BFA007002080B500AF024800F042
:103DA00051FB00BF80BD00BF2808002080B500AFD8
:103DB000024800F047FB00BF80BD00BF6C08002038
:103DC00080B500AF024803F033F900BF80BD00BFEB
:103DD0001007002080B500AF024803F029F900BFAA
:103DE00080BD00BF5807002080B400AF00BFBD46B3
:103DF00080BC7047FFF7F8FF0B480C490C4A0023C2
:103E000002E0D458C4500433C4188C42F9D3094A90
:103E1000094C002301E013600432A242FBD303F0FB
:103E2000F3FEFFF797F97047000000207C000020A8
:103E3000A08D00087C00002038090020FEE700006B
:103E400080B500AF084B1B68074A43F010031360AE
:103E5000032000F047F90F2000F008F8FFF75AFDA3
:103E60000023184680BD00BF0020024080B582B00C
:103E700000AF7860124B1A68124B1B7819464FF44A
:103E80007A73B3FBF1F3B2FBF3F3184600F05FF97A
:103E90000346002B01D001230EE07B680F2B0AD8CC
:103EA000002279684FF0FF3000F027F9064A7B685E
:103EB0001360002300E0012318460837BD4680BD8B
:103EC0000C000020140000201000002080B400AF7F
:103ED000054B1B781A46054B1B681344034A1360B5
:103EE00000BFBD4680BC704714000020340900208C
:103EF00080B400AF024B1B681846BD4680BC7047BB
:103F00003409002080B584B000AF7860FFF7F0FF7F
:103F1000B8607B68FB60FB68B3F1FF3F05D00A4BDC
:103F20001B781A46FB681344FB6000BFFFF7E0FFF5
:103F30000246BB68D31AFA689A42F7D800BF00BF9E
:103F40001037BD4680BD00BF1400002080B485B08E
:103F500000AF78607B6803F00703FB600C4BDB6805
:103F6000BB60BA684FF6FF031340BB60FB681A02E0
:103F7000BB68134343F0BF6343F40033BB60044AA0
:103F8000BB68D36000BF1437BD4680BC704700BF1C
:103F900000ED00E080B400AF044BDB681B0A03F0C7
:103FA00007031846BD4680BC704700BF00ED00E027
:103FB00080B483B000AF0346FB7197F90730002B44
:103FC0000BDBFB7903F01F02064997F907305B0909
:103FD000012000FA02F241F8232000BF0C37BD4651
:103FE00080BC704700E100E080B483B000AF0346BE
:103FF0003960FB7197F90730002B0ADB3B68DAB2B6
:104000000C4997F907301201D2B20B4483F8002310
:104010000AE03B68DAB20849FB7903F00F03043B7E
:104020001201D2B20B441A7600BF0C37BD4680BCD9
:10403000704700BF00E100E000ED00E080B489B00F
:1040400000AFF860B9607A60FB6803F00703FB61BA
:10405000FB69C3F10703042B28BF0423BB61FB6981
:104060000433062B02D9FB69033B00E000237B618C
:104070004FF0FF32BB6902FA03F3DA43BB681A4020
:104080007B699A404FF0FF317B6901FA03F3D94312
:104090007B680B40134318462437BD4680BC7047ED
:1040A00080B582B000AF78607B68013BB3F1807F60
:1040B00001D301230FE00A4A7B68013B53600F21C3
:1040C0004FF0FF30FFF790FF054B00229A60044B42
:1040D00007221A60002318460837BD4680BD00BF7E
:1040E00010E000E080B582B000AF78607868FFF73C
:1040F0002DFF00BF0837BD4680BD80B586B000AF3C
:104100000346B9607A60FB7300237B61FFF742FFCF
:1041100078617A68B9687869FFF790FF024697F985
:104120000F3011461846FFF75FFF00BF1837BD4636
:1041300080BD80B582B000AF0346FB7197F90730B0
:104140001846FFF735FF00BF0837BD4680BD80B574
:1041500082B000AF78607868FFF7A2FF0346184688
:104160000837BD4680BD000080B485B000AF7860E0
:104170000023FB607B68002B01D1012343E07B68B7
:104180001B681A46224B1344224AA2FB03231B0935
:104190009A007B681A647B681F4ADA637B68022294
:1041A00083F821207B681B681B68FB60FB6823F495
:1041B0007F5323F03003FB607B685A687B689B6801
:1041C0001A437B68DB681A437B681B691A437B6868
:1041D0005B691A437B689B691A437B68DB691343FD
:1041E000FA681343FB607B681B68FA681A607B6897
:1041F00000229A637B68012283F821207B680022D9
:1042000083F82020002318461437BD4680BC704731
:10421000F8FFFDBFCDCCCCCC0000024080B586B00D
:1042200000AFF860B9607A603B600023FB75FB6803
:1042300093F82030012B01D102234BE0FB680122CF
:1042400083F82020FB6893F82130DBB2012B3AD1B0
:10425000FB68022283F82120FB6800229A63FB6836
:104260001B681A68FB681B6822F001021A603B6831
:104270007A68B968F86800F0EBF9FB68DB6A002B34
:1042800008D0FB681B681A68FB681B6842F00E02C6
:104290001A600FE0FB681B681A68FB681B6822F055
:1042A00004021A60FB681B681A68FB681B6842F00E
:1042B0000A021A60FB681B681A68FB681B6842F0F8
:1042C00001021A6005E0FB68002283F82020022327
:1042D000FB75FB7D18461837BD4680BD80B485B0A0
:1042E00000AF78600023FB737B6893F82130DBB26A
:1042F000022B08D07B6804229A637B68002283F833
:104300002020012320E07B681B681A687B681B68FB
:1043100022F00E021A607B681B681A687B681B68B3
:1043200022F001021A607B681A6C7B68DB6B01214A
:1043300001FA02F25A607B68012283F821207B682F
:10434000002283F82020FB7B18461437BD4680BC32
:104350007047000080B584B000AF78600023FB7325
:104360007B6893F82130DBB2022B05D07B680422F6
:104370009A630123FB7351E07B681B681A687B68B2
:104380001B6822F00E021A607B681B681A687B6843
:104390001B6822F001021A607B681B68224A934264
:1043A00029D07B681B68214A934222D07B681B6816
:1043B0001F4A93421AD07B681B681E4A934212D050
:1043C0007B681B681C4A93420AD07B681B681B4AA7
:1043D000934202D14FF480130EE04FF080730BE054
:1043E0004FF4803308E04FF4805305E04FF48073BE
:1043F00002E0102300E00123114A53607B68012290
:1044000083F821207B68002283F820207B685B6B87
:10441000002B03D07B685B6B78689847FB7B184662
:104420001037BD4680BD00BF080002401C0002409E
:104430003000024044000240580002406C0002403C
:104440000000024080B584B000AF78607B68DB6B11
:104450001B68FB607B681B681B68BB607B681B6C10
:1044600004229A40FB681340002B4FD0BB6803F036
:104470000403002B4AD07B681B681B6803F02003F1
:10448000002B07D17B681B681A687B681B6822F0C9
:1044900004021A607B681B68664A934229D07B68D5
:1044A0001B68654A934222D07B681B68634A93422B
:1044B0001AD07B681B68624A934212D07B681B68E3
:1044C000604A93420AD07B681B685F4A934202D1DC
:1044D0004FF480030EE04FF080630BE04FF4802335
:1044E00008E04FF4804305E04FF4806302E040238E
:1044F00000E00423554A53607B68DB6A002B00F020
:1045000094807B68DB6A786898478EE07B681B6CD8
:1045100002229A40FB681340002B56D0BB6803F080
:104520000203002B51D07B681B681B6803F020033B
:10453000002B0BD17B681B681A687B681B6822F014
:104540000A021A607B68012283F821207B681B68BD
:10455000384A934229D07B681B68374A934222D05D
:104560007B681B68354A93421AD07B681B68344AC3
:10457000934212D07B681B68324A93420AD07B6810
:104580001B68314A934202D14FF400130EE04FF002
:1045900000730BE04FF4003308E04FF4005305E0E4
:1045A0004FF4007302E0202300E00223274A536007
:1045B0007B68002283F820207B689B6A002B34D024
:1045C0007B689B6A786898472FE07B681B6C0822A1
:1045D0009A40FB681340002B28D0BB6803F0080307
:1045E000002B23D07B681B681A687B681B6822F04D
:1045F0000E021A607B681A6C7B68DB6B012101FA82
:1046000002F25A607B6801229A637B68012283F878
:1046100021207B68002283F820207B681B6B002B05
:1046200004D07B681B6B7868984700BF00BF1037C9
:10463000BD4680BD080002401C0002403000024020
:1046400044000240580002406C000240000002405A
:1046500080B485B000AFF860B9607A603B60FB68F9
:104660001A6CFB68DB6B012101FA02F25A60FB68ED
:104670001B683A685A60FB685B68102B08D1FB68BE
:104680001B687A689A60FB681B68BA68DA6007E0A2
:10469000FB681B68BA689A60FB681B687A68DA6016
:1046A00000BF1437BD4680BC7047000080B48BB09B
:1046B00000AF7860396000237B6200233B6269E1D0
:1046C00001227B6A02FA03F3FB613B681B68FA690B
:1046D0001340BB61BA69FB699A4240F058813B685C
:1046E0005B689A4A93425ED0984A934275D8984A3A
:1046F000934258D0964A93426FD8964A934252D0EA
:10470000944A934269D8944A93424CD0924A934235
:1047100063D8924A934246D0904A93425DD8122B76
:104720002AD8122B59D801A252F823F0A747000823
:104730008147000893470008D5470008DB47000879
:10474000DB470008DB470008DB470008DB470008C1
:10475000DB470008DB470008DB470008DB470008B1
:10476000DB470008DB470008DB470008DB470008A1
:10477000894700089D470008794A934213D02CE0EE
:104780003B68DB683B6229E03B68DB6804333B62E3
:1047900024E03B68DB6808333B621FE03B68DB6872
:1047A0000C333B621AE03B689B68002B02D1042368
:1047B0003B6213E03B689B68012B05D108233B62F9
:1047C0007B68FA691A6109E008233B627B68FA6931
:1047D0005A6103E000233B6200E000BFBB69FF2B8E
:1047E00001D87B6801E07B6804337B61BB69FF2BE8
:1047F00002D87B6A9B0002E07B6A083B9B003B611E
:104800007B691A680F213B6901FA03F3DB431A4005
:10481000396A3B6901FA03F31A437B691A603B6802
:104820005B6803F08053002B00F0B1804D4B9B6917
:104830004C4A43F0010393614A4B9B6903F0010327
:10484000BB60BB68484A7B6A9B08023352F823303E
:10485000FB607B6A03F003039B000F2202FA03F361
:10486000DB43FA681340FB607B68404A934213D0F5
:104870007B683F4A93420DD07B683E4A934207D003
:104880007B683D4A934201D1032306E0042304E000
:10489000022302E0012300E000237A6A02F003020F
:1048A00092009340FA681343FB602F497B6A9B0890
:1048B0000233FA6841F823203B685B6803F48013F5
:1048C000002B06D02D4B9A682C49BB6913438B6093
:1048D00006E02A4B9A68BB69DB43284913408B608A
:1048E0003B685B6803F40013002B06D0234BDA68A7
:1048F0002249BB691343CB6006E0204BDA68BB69F1
:10490000DB431E491340CB603B685B6803F4003314
:10491000002B06D0194B5A681849BB6913434B60EA
:1049200006E0164B5A68BB69DB43144913404B60E1
:104930003B685B6803F48033002B21D00F4B1A686F
:104940000E49BB6913430B6021E000BF0000321029
:104950000000311000002210000021100000121091
:10496000000011100010024000000140000801404A
:10497000000C0140001001400014014000040140FF
:104980000B4B1A68BB69DB43094913400B607B6A18
:1049900001337B623B681A687B6A22FA03F3002BBF
:1049A0007FF48EAE00BF00BF2C37BD4680BC704781
:1049B0000004014080B489B000AF78603960002302
:1049C000FB619AE00122FB6902FA03F33A681340A3
:1049D000BB61BB69002B00F08D804E4AFB699B08D0
:1049E000023352F823307B61FB6903F003039B0021
:1049F0000F2202FA03F37A6913407B617B68464A0F
:104A0000934213D07B68454A93420DD07B68444A59
:104A1000934207D07B68434A934201D1032306E0C7
:104A2000042304E0022302E0012300E00023FA69EA
:104A300002F00302920093407A699A4232D13A4BD3
:104A40001A68BB69DB43384913400B60364B5A6820
:104A5000BB69DB43344913404B60334BDA68BB69B5
:104A6000DB4331491340CB602F4B9A68BB69DB4372
:104A70002D4913408B60FB6903F003039B000F2259
:104A800002FA03F37B61234AFB699B08023352F865
:104A900023107B69DA431F48FB699B080A400233F5
:104AA00040F82320BB69FF2B01D87B6801E07B68BD
:104AB00004333B61BB69FF2B02D8FB699B0002E01A
:104AC000FB69083B9B00FB603B691A680F21FB6890
:104AD00001FA03F3DB431A400421FB6801FA03F3F4
:104AE0001A433B691A607B68DA68BB69DB431A408A
:104AF0007B68DA60FB690133FB613A68FB6922FA83
:104B000003F3002B7FF45EAF00BF00BF2437BD4628
:104B100080BC70470000014000080140000C0140CB
:104B200000100140001401400004014080B485B031
:104B300000AF78600B467B807B689A687B88134067
:104B4000002B02D00123FB7301E00023FB73FB7BEE
:104B500018461437BD4680BC704780B483B000AFA0
:104B600078600B467B8013467B707B78002B03D0EC
:104B70007A887B681A6103E07B881A047B681A6173
:104B800000BF0C37BD4680BC704780B485B000AF15
:104B900078600B467B807B68DB68FB607A88FB680B
:104BA00013401A04FB68D9437B880B401A437B6887
:104BB0001A6100BF1437BD4680BC704780B584B011
:104BC00000AF78607B68002B01D101232BE17B686B
:104BD00093F83D30DBB2002B06D17B68002283F8CE
:104BE0003C207868FEF7B8FE7B68242283F83D20DD
:104BF0007B681B681A687B681B6822F001021A60D8
:104C00007B681B681A687B681B6842F400421A6064
:104C10007B681B681A687B681B6822F400421A6074
:104C200002F0DAF8F8607B685B68814A934207D843
:104C3000FB68804A934294BF01230023DBB206E065
:104C4000FB687D4A934294BF01230023DBB2002B13
:104C500001D00123E7E0FB68784AA2FB03239B0C09
:104C6000BB607B681B685B6823F03F017B681B6847
:104C7000BA680A435A607B681B681B6A23F03F01CD
:104C80007B685B686A4A934202D8BB68013309E0DB
:104C9000BB684FF4967202FB03F3694AA2FB03233D
:104CA0009B0901337A6812680B4313627B681B68A7
:104CB000DB6923F44F4222F0FF027B685B685C49AA
:104CC0008B4219D8FB68591E7B685B685B00B1FB9F
:104CD000F3F3591C40F6FC730B40002B0AD0FB6821
:104CE000591E7B685B685B00B1FBF3F30133C3F3D0
:104CF0000B0351E004234FE07B689B68002B11D12C
:104D0000FB68581E7B6859680B465B000B44B0FB80
:104D1000F3F30133C3F30B03002B0CBF0123002378
:104D2000DBB212E0FB68581E7B6859680B469B009B
:104D30000B4499000B44B0FBF3F30133C3F30B03B3
:104D4000002B0CBF01230023DBB2002B01D0012379
:104D500022E07B689B68002B0ED1FB68581E7B68A5
:104D600059680B465B000B44B0FBF3F30133C3F30C
:104D70000B0343F400430FE0FB68581E7B6859683F
:104D80000B469B000B4499000B44B0FBF3F301333B
:104D9000C3F30B0343F44043796809681343CB61C1
:104DA0007B681B681B6823F0C0017B68DA697B683D
:104DB0001B6A1A437B681B680A431A607B681B687E
:104DC0009B6823F4034323F0FF037A6811697A6830
:104DD000D26811437A6812680B4393607B681B6842
:104DE000DB6823F0FF017B685A697B689B691A4383
:104DF0007B681B680A43DA607B681B681A687B68FB
:104E00001B6842F001021A607B6800221A647B680A
:104E1000202283F83D207B6800221A637B680022F1
:104E200083F83E20002318461037BD4680BD00BFE2
:104E3000A08601007F841E00FF083D0083DE1B4327
:104E4000D34D621080B582B000AF78607B68002BD4
:104E500001D1012321E07B68242283F83D207B6877
:104E60001B681A687B681B6822F001021A60786868
:104E7000FEF7DEFD7B6800221A647B68002283F85F
:104E80003D207B6800221A637B68002283F83E2065
:104E90007B68002283F83C20002318460837BD4673
:104EA00080BD000080B588B002AFF8607A601A4615
:104EB0000B467B8113463B81FFF71AF87861FB684C
:104EC00093F83D30DBB2202B40F0E0807B6900930B
:104ED000192301227049F86801F07EF90346002B7E
:104EE00001D00223D3E0FB6893F83C30012B01D1C1
:104EF0000223CCE0FB68012283F83C20FB681B689E
:104F00001B6803F00103012B07D0FB681B681A68BC
:104F1000FB681B6842F001021A60FB681B681A6894
:104F2000FB681B6822F400621A60FB68212283F888
:104F30003D20FB68102283F83E20FB6800221A64A3
:104F4000FB687A685A62FB683A895A85FB685B8D10
:104F50009AB2FB681A85FB68504ADA6279897B69E4
:104F60003A6AF86800F06AFE0346002B01D001237C
:104F70008DE000233B61FB681B685B693B61FB685C
:104F80001B689B693B613B6966E07A69396AF8682E
:104F900001F03CFA0346002B0DD0FB681B6C042B80
:104FA00007D1FB681B681A68FB681B6842F4007233
:104FB0001A6001236BE0FB685B6A1A78FB681B6868
:104FC0001A61FB685B6A5A1CFB685A62FB685B8D5E
:104FD0009BB2013B9AB2FB685A85FB681B8D013B73
:104FE0009AB2FB681A85FB681B685B6903F00403CF
:104FF000042B1BD1FB681B8D002B17D0FB685B6A51
:105000001A78FB681B681A61FB685B6A5A1CFB68AC
:105010005A62FB685B8D9BB2013B9AB2FB685A8572
:10502000FB681B8D013B9AB2FB681A857A69396A65
:10503000F86801F033FA0346002B0DD0FB681B6CB7
:10504000042B07D1FB681B681A68FB681B6842F4D5
:1050500000721A6001231AE0FB681B8D002B94D1AB
:10506000FB681B681A68FB681B6842F400721A60D0
:10507000FB68202283F83D20FB68002283F83E2055
:10508000FB68002283F83C20002300E0022318463E
:105090001837BD4680BD00BF020010000000FFFFB2
:1050A00080B58CB002AFF8607A601A460B467B81FF
:1050B00013463B8100233B62FEF71AFF7862FB68D0
:1050C00093F83D30DBB2202B40F04B827B6A00939B
:1050D000192301227F49F86801F07EF80346002B6E
:1050E00001D002233EE2FB6893F83C30012B01D152
:1050F000022337E2FB68012283F83C20FB681B682F
:105100001B6803F00103012B07D0FB681B681A68BA
:10511000FB681B6842F001021A60FB681B681A6892
:10512000FB681B6822F400621A60FB68222283F885
:105130003D20FB68102283F83E20FB6800221A64A1
:10514000FB687A685A62FB683A895A85FB685B8D0E
:105150009AB2FB681A85FB685F4ADA6279897B6AD2
:105160003A6BF86800F0ECFD0346002B01D00123F8
:10517000F8E1FB681B8D002B13D10023FB61FB685A
:105180001B685B69FB61FB681B689B69FB61FB69D2
:10519000FB681B681A68FB681B6842F400721A609F
:1051A000CCE1FB681B8D012B1ED1FB681B681A68C4
:1051B000FB681B6822F480621A6072B600BF00238D
:1051C000BB61FB681B685B69BB61FB681B689B6913
:1051D000BB61BB69FB681B681A68FB681B6842F40B
:1051E00000721A6062B635E0FB681B8D022B1ED17F
:1051F000FB681B681A68FB681B6842F400621A604F
:1052000072B600BF00237B61FB681B685B697B6132
:10521000FB681B689B697B617B69FB681B681A687C
:10522000FB681B6822F480621A6062B612E0FB68B9
:105230001B681A68FB681B6842F480621A600023CE
:105240003B61FB681B685B693B61FB681B689B6992
:105250003B613B6972E1FB681B8D032B00F21F81F0
:10526000FB681B8D012B23D17A6A396BF86801F03A
:105270005DF90346002B01D0012373E1FB681B6835
:105280001A69FB685B6AD2B21A70FB685B6A5A1CC7
:10529000FB685A62FB681B8D013B9AB2FB681A855A
:1052A000FB685B8D9BB2013B9AB2FB685A8545E176
:1052B000FB681B8D022B52D17B6A00933B6B002253
:1052C0000649F86800F088FF0346002B08D0012348
:1052D00048E100BF020010000000FFFF04000100D1
:1052E00072B600BFFB681B681A68FB681B6842F453
:1052F00000721A60FB681B681A69FB685B6AD2B2AD
:105300001A70FB685B6A5A1CFB685A62FB681B8D4B
:10531000013B9AB2FB681A85FB685B8D9BB2013B2F
:105320009AB2FB685A8562B600BFFB681B681A69AF
:10533000FB685B6AD2B21A70FB685B6A5A1CFB6836
:105340005A62FB681B8D013B9AB2FB681A85FB68A9
:105350005B8D9BB2013B9AB2FB685A85EEE07B6A9B
:1053600000933B6B00228149F86800F035FF03464B
:10537000002B01D00123F5E0FB681B681A68FB686D
:105380001B6822F480621A6072B600BFFB681B685B
:105390001A69FB685B6AD2B21A70FB685B6A5A1CB6
:1053A000FB685A62FB681B8D013B9AB2FB681A8549
:1053B000FB685B8D9BB2013B9AB2FB685A856C4BD4
:1053C0001B68DB086B4AA2FB03231A0A13469B00E7
:1053D0001344DA00D31A3B623B6A013B3B623B6AEF
:1053E000002B18D1FB6800221A63FB68202283F887
:1053F0003D20FB68002283F83E20FB681B6C43F0D5
:105400002002FB681A6462B600BFFB68002283F8C2
:105410003C200123A6E0FB681B685B6903F00403E2
:10542000042BD9D1FB681B681A68FB681B6842F41F
:1054300000721A60FB681B681A69FB685B6AD2B26B
:105440001A70FB685B6A5A1CFB685A62FB681B8D0A
:10545000013B9AB2FB681A85FB685B8D9BB2013BEE
:105460009AB2FB685A8562B600BFFB681B681A696E
:10547000FB685B6AD2B21A70FB685B6A5A1CFB68F5
:105480005A62FB681B8D013B9AB2FB681A85FB6868
:105490005B8D9BB2013B9AB2FB685A854EE07A6AFB
:1054A000396BF86801F042F80346002B01D0012364
:1054B00058E0FB681B681A69FB685B6AD2B21A7015
:1054C000FB685B6A5A1CFB685A62FB681B8D013BD8
:1054D0009AB2FB681A85FB685B8D9BB2013B9AB25E
:1054E000FB685A85FB681B685B6903F00403042BA7
:1054F00024D1FB681B8D032B07D1FB681B681A683E
:10550000FB681B6822F480621A60FB681B681A69DA
:10551000FB685B6AD2B21A70FB685B6A5A1CFB6854
:105520005A62FB681B8D013B9AB2FB681A85FB68C7
:105530005B8D9BB2013B9AB2FB685A85FB681B8D61
:10554000002B7FF488AEFB68202283F83D20FB68A7
:10555000002283F83E20FB68002283F83C200023D1
:1055600000E0022318462837BD4680BD0400010034
:105570000C00002089B5F81480B588B002AFF8603F
:10558000084611461A4603467B810B463B8113466B
:10559000FB80FEF7ADFC7861FB6893F83D30DBB231
:1055A000202B40F0D9807B690093192301226D499B
:1055B000F86800F011FE0346002B01D00223CCE076
:1055C000FB6893F83C30012B01D10223C5E0FB6856
:1055D000012283F83C20FB681B681B6803F0010371
:1055E000012B07D0FB681B681A68FB681B6842F038
:1055F00001021A60FB681B681A68FB681B6822F4CA
:1056000000621A60FB68212283F83D20FB6840227B
:1056100083F83E20FB6800221A64FB683A6A5A62EB
:10562000FB68BA8C5A85FB685B8D9AB2FB681A8559
:10563000FB684D4ADA62F8883A8979897B69019377
:10564000BB6A00930346F86800F048FC0346002B51
:1056500052D0012381E07A69B96AF86800F0D6FE79
:105660000346002B0DD0FB681B6C042B07D1FB6895
:105670001B681A68FB681B6842F400721A600123F9
:105680006BE0FB685B6A1A78FB681B681A61FB6851
:105690005B6A5A1CFB685A62FB681B8D013B9AB21D
:1056A000FB681A85FB685B8D9BB2013B9AB2FB6875
:1056B0005A85FB681B685B6903F00403042B1BD14C
:1056C000FB681B8D002B17D0FB685B6A1A78FB68A0
:1056D0001B681A61FB685B6A5A1CFB685A62FB68AC
:1056E0001B8D013B9AB2FB681A85FB685B8D9BB2F0
:1056F000013B9AB2FB685A85FB681B8D002BAAD12F
:105700007A69B96AF86800F0C9FE0346002B0DD02B
:10571000FB681B6C042B07D1FB681B681A68FB68CD
:105720001B6842F400721A60012316E0FB681B68D4
:105730001A68FB681B6842F400721A60FB6820223A
:1057400083F83D20FB68002283F83E20FB6800229E
:1057500083F83C20002300E0022318461837BD469A
:1057600080BD00BF020010000000FFFF80B58CB0BC
:1057700002AFF860084611461A4603467B810B4685
:105780003B811346FB8000233B62FEF7B1FB78624E
:10579000FB6893F83D30DBB2202B40F044827B6AFB
:1057A0000093192301228249F86800F015FD034691
:1057B000002B01D0022337E2FB6893F83C30012B29
:1057C00001D1022330E2FB68012283F83C20FB6810
:1057D0001B681B6803F00103012B07D0FB681B68E3
:1057E0001A68FB681B6842F001021A60FB681B68BC
:1057F0001A68FB681B6822F400621A60FB682222A8
:1058000083F83D20FB68402283F83E20FB6800229D
:105810001A64FB683A6B5A62FB68BA8E5A85FB6859
:105820005B8D9AB2FB681A85FB68624ADA62F88877
:105830003A8979897B6A0193BB6B00930346F868C8
:1058400000F0E2FB0346002B01D00123ECE1FB68F2
:105850001B8D002B13D10023FB61FB681B685B6968
:10586000FB61FB681B689B69FB61FB69FB681B684C
:105870001A68FB681B6842F400721A60C0E1FB689A
:105880001B8D012B1ED1FB681B681A68FB681B6807
:1058900022F480621A6072B600BF0023BB61FB680D
:1058A0001B685B69BB61FB681B689B69BB61BB696B
:1058B000FB681B681A68FB681B6842F400721A6078
:1058C00062B635E0FB681B8D022B1ED1FB681B689E
:1058D0001A68FB681B6842F400621A6072B600BF67
:1058E00000237B61FB681B685B697B61FB681B684D
:1058F0009B697B617B69FB681B681A68FB681B6896
:1059000022F480621A6062B612E0FB681B681A68B3
:10591000FB681B6842F480621A6000233B61FB68ED
:105920001B685B693B61FB681B689B693B613B696A
:1059300066E1FB681B8D032B00F21F81FB681B8D4A
:10594000012B23D17A6AB96BF86800F0EFFD0346AA
:10595000002B01D0012367E1FB681B681A69FB6813
:105960005B6AD2B21A70FB685B6A5A1CFB685A62A7
:10597000FB681B8D013B9AB2FB681A85FB685B8D47
:105980009BB2013B9AB2FB685A8539E1FB681B8DDB
:10599000022B52D17B6A0093BB6B00220649F86848
:1059A00000F01AFC0346002B08D001233CE100BFA5
:1059B000020010000000FFFF0400010072B600BFEB
:1059C000FB681B681A68FB681B6842F400721A6067
:1059D000FB681B681A69FB685B6AD2B21A70FB68C5
:1059E0005B6A5A1CFB685A62FB681B8D013B9AB2CA
:1059F000FB681A85FB685B8D9BB2013B9AB2FB6822
:105A00005A8562B600BFFB681B681A69FB685B6A4F
:105A1000D2B21A70FB685B6A5A1CFB685A62FB6858
:105A20001B8D013B9AB2FB681A85FB685B8D9BB2AC
:105A3000013B9AB2FB685A85E2E07B6A0093BB6B3C
:105A400000227B49F86800F0C7FB0346002B01D019
:105A50000123E9E0FB681B681A68FB681B6822F4F5
:105A600080621A6072B600BFFB681B681A69FB6827
:105A70005B6AD2B21A70FB685B6A5A1CFB685A6296
:105A8000FB681B8D013B9AB2FB681A85FB685B8D36
:105A90009BB2013B9AB2FB685A85664B1B68DB08D8
:105AA000654AA2FB03231A0A13469B001344DA003B
:105AB000D31A3B623B6A013B3B623B6A002B18D125
:105AC000FB6800221A63FB68202283F83D20FB68F4
:105AD000002283F83E20FB681B6C43F02002FB6829
