:020000040800F2
:1000000000500020852F0008692E00086F2E000880
:10001000752E00087B2E0008812E000800000000CD
:10002000000000000000000000000000872E000813
:10003000932E0008000000009F2E0008AB2E000841
:10004000CD2F0008CD2F0008CD2F0008CD2F0008A0
:10005000CD2F0008CD2F0008B92E0008A9180008E0
:10006000C5180008E1180008FD180008CD2F000889
:10007000CD2F0008CD2F0008D12E0008E52E000856
:10008000CD2F0008CD2F0008CD2F0008CD2F000860
:10009000CD2F0008CD2F0008CD2F0008191900081A
:1000A000CD2F0008CD2F0008CD2F0008CD2F000840
:1000B000CD2F0008CD2F0008CD2F0008CD2F000830
:1000C000CD2F0008CD2F0008CD2F0008CD2F000820
:1000D000CD2F0008F92E0008CD2F0008CD2F0008E5
:1000E000A5190008CD2F0008CD2F00080000000042
:1000F0000000000000000000000000000000000000
:0C01000000000000000000005FF808F1A3
:1001100010B5054C237833B9044B13B10448AFF341
:1001200000800123237010BD70000020000000003B
:100130007471000808B5034B1BB103490348AFF3C2
:10014000008008BD000000007400002074710008E9
:100150004FF0FF0C1CEAD0521EBF1CEAD15392EAAA
:100160000C0F93EA0C0F6FD01A4480EA010C400286
:1001700018BF5FEA41211ED04FF0006343EA5010E0
:1001800043EA5111A0FB01310CF00040B1F5000F22
:100190003EBF490041EAD3715B0040EA010062F1D1
:1001A0007F02FD2A1DD8B3F1004F40EBC25008BFBB
:1001B00020F00100704790F0000F0CF0004C08BFD9
:1001C00049024CEA502040EA51207F3AC2BFD2F1A6
:1001D000FF0340EAC250704740F400004FF00003B4
:1001E000013A5DDC12F1190FDCBF00F000407047EE
:1001F000C2F10002410021FA02F1C2F1200200FA2C
:1002000002FC5FEA310040F1000053EA4C0308BFF2
:1002100020EADC70704792F0000F00F0004C02BF43
:10022000400010F4000F013AF9D040EA0C0093F0BE
:10023000000F01F0004C02BF490011F4000F013B18
:10024000F9D041EA0C018FE70CEAD15392EA0C0F86
:1002500018BF93EA0C0F0AD030F0004C18BF31F0F1
:10026000004CD8D180EA010000F00040704790F0C7
:10027000000F17BF90F0004F084691F0000F91F06B
:10028000004F14D092EA0C0F01D142020FD193EA31
:100290000C0F03D14B0218BF084608D180EA0100B9
:1002A00000F0004040F0FE4040F40000704740F095
:1002B000FE4040F44000704781F0004102E000BF82
:1002C00083F0004330B54FEA41044FEA430594EA16
:1002D000050F08BF90EA020F1FBF54EA000C55EA51
:1002E000020C7FEA645C7FEA655C00F0E2804FEA22
:1002F0005454D4EB5555B8BF6D420CDD2C4480EA04
:10030000020281EA030382EA000083EA010180EA33
:10031000020281EA0303362D88BF30BD11F0004F81
:100320004FEA01314FF4801C4CEA113102D04042B7
:1003300061EB410113F0004F4FEA03334CEA1333F2
:1003400002D0524263EB430394EA050F00F0A7800A
:10035000A4F10104D5F1200E0DDB02FA0EFC22FA05
:1003600005F2801841F1000103FA0EF2801843FAF9
:1003700005F359410EE0A5F120050EF1200E012AEA
:1003800003FA0EFC28BF4CF0020C43FA05F3C01828
:1003900051EBE37101F0004507D54FF0000EDCF1A1
:1003A000000C7EEB00006EEB0101B1F5801F1BD34A
:1003B000B1F5001F0CD349085FEA30004FEA3C0C4E
:1003C00004F101044FEA445212F5800F80F09A8044
:1003D000BCF1004F08BF5FEA500C50F1000041EB48
:1003E000045141EA050130BD5FEA4C0C404141EB4C
:1003F0000101013C28BFB1F5801FE9D291F0000F47
:1004000004BF01460020B1FA81F308BF2033A3F1F5
:100410000B03B3F120020CDA0C3208DD02F1140CEC
:10042000C2F10C0201FA0CF021FA02F10CE002F127
:100430001402D8BFC2F1200C01FA02F120FA0CFC20
:10044000DCBF41EA0C019040E41AA2BF01EB045169
:10045000294330BD6FEA04041F3C1CDA0C340EDC67
:1004600004F11404C4F1200220FA04F001FA02F3AA
:1004700040EA030021FA04F345EA030130BDC4F168
:100480000C04C4F1200220FA02F001FA04F340EA5D
:100490000300294630BD21FA04F0294630BD94F00E
:1004A000000F83F4801306BF81F480110134013DF5
:1004B0004EE77FEA645C18BF7FEA655C29D094EA66
:1004C000050F08BF90EA020F05D054EA000C04BFE4
:1004D0001946104630BD91EA030F1EBF00210020CF
:1004E00030BD5FEA545C05D14000494128BF41F06E
:1004F000004130BD14F580043CBF01F5801130BDD2
:1005000001F0004545F0FE4141F470014FF000005C
:1005100030BD7FEA645C1ABF194610467FEA655C0D
:100520001CBF0B46024650EA013406BF52EA0335AF
:1005300091EA030F41F4002130BD00BF90F0000F9D
:1005400004BF0021704730B54FF4806404F13204D9
:100550004FF000054FF0000150E700BF90F0000F92
:1005600004BF0021704730B54FF4806404F13204B9
:1005700010F0004548BF40424FF000013EE700BF89
:1005800042004FEAE2014FEA31014FEA02701FBF19
:1005900012F07F4393F07F4F81F06051704732F04B
:1005A0007F4208BF704793F07F4F04BF41F40021A2
:1005B000704730B54FF4607401F0004521F0004100
:1005C0001CE700BF50EA010208BF704730B54FF08A
:1005D00000050AE050EA010208BF704730B511F08B
:1005E000004502D5404261EB41014FF4806404F1C3
:1005F00032045FEA915C3FF4D8AE4FF003025FEA49
:10060000DC0C18BF03325FEADC0C18BF033202EBCC
:10061000DC02C2F1200300FA03FC20FA02F001FA26
:1006200003FE40EA0E0021FA02F11444BDE600BFC9
:1006300070B54FF0FF0C4CF4E06C1CEA11541DBF78
:100640001CEA135594EA0C0F95EA0C0F00F0DEF843
:100650002C4481EA030621EA4C5123EA4C5350EA28
:10066000013518BF52EA033541F4801143F4801379
:1006700038D0A0FB02CE4FF00005E1FB02E506F00A
:100680000042E0FB03E54FF00006E1FB03569CF05F
:10069000000F18BF4EF0010EA4F1FF04B6F5007F65
:1006A00064F5407404D25FEA4E0E6D4146EB0606D7
:1006B00042EAC62141EA55514FEAC52040EA5E5060
:1006C0004FEACE2EB4F1FD0C88BFBCF5E06F1ED80A
:1006D000BEF1004F08BF5FEA500E50F1000041EB41
:1006E000045170BD06F0004646EA010140EA0200EE
:1006F00081EA0301B4EB5C04C2BFD4EB0C0541EA10
:10070000045170BD41F480114FF0000E013C00F324
:10071000AB8014F1360FDEBF002001F0004170BD48
:10072000C4F10004203C35DA0C341BDC04F1140461
:10073000C4F1200500FA05F320FA04F001FA05F2ED
:1007400040EA020001F0004221F0004110EBD370BA
:1007500021FA04F642EB06015EEA430E08BF20EAE6
:10076000D37070BDC4F10C04C4F1200500FA04F389
:1007700020FA05F001FA04F240EA020001F000411B
:1007800010EBD37041F100015EEA430E08BF20EA8E
:10079000D37070BDC4F1200500FA05F24EEA020ED6
:1007A00020FA04F301FA05F243EA020321FA04F005
:1007B00001F0004121FA04F220EA020000EBD370BC
:1007C0005EEA430E08BF20EAD37070BD94F0000FBC
:1007D0000FD101F00046400041EB010111F4801FF0
:1007E00008BF013CF7D041EA060195F0000F18BFA1
:1007F000704703F00046520043EB030313F4801FDD
:1008000008BF013DF7D043EA0603704794EA0C0F96
:100810000CEA135518BF95EA0C0F0CD050EA4106AC
:1008200018BF52EA4306D1D181EA030101F0004129
:100830004FF0000070BD50EA410606BF1046194651
:1008400052EA430619D094EA0C0F02D150EA01365D
:1008500013D195EA0C0F05D152EA03361CBF10469E
:1008600019460AD181EA030101F0004141F0FE413D
:1008700041F470014FF0000070BD41F0FE4141F4C1
:10088000780170BD70B54FF0FF0C4CF4E06C1CEAC1
:1008900011541DBF1CEA135594EA0C0F95EA0C0F76
:1008A00000F0A7F8A4EB050481EA030E52EA033531
:1008B0004FEA013100F088804FEA03334FF0805552
:1008C00045EA131343EA12634FEA022245EA11157F
:1008D00045EA10654FEA00260EF000419D4208BF30
:1008E000964244F1FD0404F5407402D25B084FEADD
:1008F0003202B61A65EB03055B084FEA32024FF489
:1009000080104FF4002CB6EB020E75EB030E22BFE5
:10091000B61A754640EA0C005B084FEA3202B6EBA5
:10092000020E75EB030E22BFB61A754640EA5C0054
:100930005B084FEA3202B6EB020E75EB030E22BFE4
:10094000B61A754640EA9C005B084FEA3202B6EBE5
:10095000020E75EB030E22BFB61A754640EADC00A4
:1009600055EA060E18D04FEA051545EA16754FEA06
:1009700006164FEAC30343EA52734FEAC2025FEA24
:100980001C1CC0D111F4801F0BD141EA00014FF0B3
:1009900000004FF0004CB6E711F4801F04BF014384
:1009A0000020B4F1FD0C88BFBCF5E06F3FF6AFAEA0
:1009B000B5EB030C04BFB6EB020C5FEA500C50F130
:1009C000000041EB045170BD0EF0004E4EEA1131B3
:1009D00014EB5C04C2BFD4EB0C0541EA045170BDBA
:1009E00041F480114FF0000E013C90E645EA060EFE
:1009F0008DE60CEA135594EA0C0F08BF95EA0C0F2C
:100A00003FF43BAF94EA0C0F0AD150EA01347FF473
:100A100034AF95EA0C0F7FF425AF104619462CE74A
:100A200095EA0C0F06D152EA03353FF4FDAE1046AD
:100A3000194622E750EA410618BF52EA43067FF4FE
:100A4000C5AE50EA41047FF40DAF52EA43057FF48E
:100A5000EBAE12E74FF0FF3C06E000BF4FF0010C99
:100A600002E000BF4FF0010C4DF804CD4FEA410CFD
:100A70007FEA6C5C4FEA430C18BF7FEA6C5C1BD0CA
:100A800001B050EA410C0CBF52EA430C91EA030F4B
:100A900002BF90EA020F0020704710F1000F91EAA8
:100AA000030F58BF994208BF90422CBFD8176FEA76
:100AB000E37040F0010070474FEA410C7FEA6C5C44
:100AC00002D150EA013C07D14FEA430C7FEA6C5C4B
:100AD000D6D152EA033CD3D05DF8040B704700BF77
:100AE0008446104662468C461946634600E000BFC5
:100AF00001B5FFF7B7FF002848BF10F1000F01BD97
:100B00004DF808EDFFF7F4FF0CBF012000205DF861
:100B100008FB00BF4DF808EDFFF7EAFF34BF0120E6
:100B200000205DF808FB00BF4DF808EDFFF7E0FF7F
:100B300094BF012000205DF808FB00BF4DF808EDD0
:100B4000FFF7CEFF94BF012000205DF808FB00BF37
:100B50004DF808EDFFF7C4FF34BF012000205DF819
:100B600008FB00BF4FEA410C7FEA6C5C02D150EAFF
:100B7000013C0AD14FEA430C7FEA6C5C02D152EA95
:100B8000033C02D14FF0000070474FF00100704766
:100B90004FEA410212F5001215D211D56FF47873A5
:100BA000B3EB625212D94FEAC12343F0004343EA48
:100BB000505311F0004F23FA02F018BF4042704723
:100BC0004FF00000704750EA013005D111F00040AD
:100BD00008BF6FF0004070474FF00000704700BF43
:100BE0004A0011D212F5001211D20DD56FF47873AC
:100BF000B3EB62520ED44FEAC12343F0004343EA01
:100C0000505323FA02F070474FF00000704750EA4B
:100C1000013002D14FF0FF3070474FF000007047B5
:100C20004FEA4102B2F1E04324BFB3F5001CDCF10E
:100C3000FE5C0DD901F0004C4FEAC0024CEA507046
:100C4000B2F1004F40EB830008BF20F00100704775
:100C500011F0804F21D113F13872BCBF01F0004078
:100C6000704741F480114FEA5252C2F11802C2F1AA
:100C7000200C10FA0CF320FA02F018BF40F001002B
:100C80004FEAC1234FEAD32303FA0CFC40EA0C00DD
:100C900023FA02F34FEA4303CCE77FEA625307D11A
:100CA00050EA01331EBF4FF0FE4040F44000704751
:100CB00001F0004040F0FE4040F40000704700BFEB
:100CC00080F0004002E000BF81F0004142001FBF01
:100CD0005FEA410392EA030F7FEA226C7FEA236C0A
:100CE0006AD04FEA1262D2EB1363C1BFD2184140FF
:100CF00048404140B8BF5B42192B88BF704710F095
:100D0000004F40F4000020F07F4018BF404211F037
:100D1000004F41F4000121F07F4118BF494292EA9F
:100D2000030F3FD0A2F1010241FA03FC10EB0C00CB
:100D3000C3F1200301FA03F100F0004302D5494258
:100D400060EB4000B0F5000F13D3B0F1807F06D305
:100D500040084FEA310102F10102FE2A51D2B1F1FD
:100D6000004F40EBC25008BF20F0010040EA0300F2
:100D70007047490040EB0000013A28BFB0F5000F72
:100D8000EDD2B0FA80FCACF1080CB2EB0C0200FA28
:100D90000CF0AABF00EBC25052421843BCBFD04077
:100DA0001843704792F0000F81F4000106BF80F4F1
:100DB00000000132013BB5E74FEA41037FEA226CB4
:100DC00018BF7FEA236C21D092EA030F04D092F07F
:100DD000000F08BF0846704790EA010F1CBF0020B3
:100DE000704712F07F4F04D1400028BF40F0004010
:100DF000704712F100723CBF00F50000704700F030
:100E0000004343F0FE4040F4000070477FEA226256
:100E100016BF08467FEA23630146420206BF5FEA27
:100E2000412390EA010F40F4800070474FF0000327
:100E300004E000BF10F0004348BF40425FEA000CEE
:100E400008BF704743F0964301464FF000001CE096
:100E500050EA010208BF70474FF000030AE000BFEC
:100E600050EA010208BF704711F0004302D540422A
:100E700061EB41015FEA010C02BF8446014600209C
:100E800043F0B64308BFA3F18053A3F50003BCFAB7
:100E90008CF2083AA3EBC25310DB01FA02FC634464
:100EA00000FA02FCC2F12002BCF1004F20FA02F26B
:100EB00043EB020008BF20F00100704702F120025E
:100EC00001FA02FCC2F1200250EA4C0021FA02F2BF
:100ED00043EB020008BF20EADC70704780B584B0A5
:100EE00000AF0346FB710023FB7315E0FB7923F091
:100EF0007F03DBB219460C4801F0BCF801210B4816
:100F000001F0B8F80021094801F0B4F8FB795B0062
:100F1000FB71FB7B0133FB73FB7B072BE6D900BF27
:100F200000BF1037BD4680BD90000020B0000020FB
:100F300080B584B000AF78607B6899787B681A8848
:100F40000123274801F066F80346FB73FB7B002B67
:100F500007D0FB7B4E222349184600F073F8034666
:100F600039E07B6899797B689A8801231E4801F0F3
:100F700051F80346FB73FB7B002B07D0FB7B502211
:100F80001849184600F05EF8034624E07B68997A19
:100F90007B681A890123154801F03CF80346FB736E
:100FA000FB7B002B07D0FB7B52220E49184600F03A
:100FB00049F803460FE001210C4801F05BF80021DD
:100FC000094801F057F80021054801F053F8084B93
:100FD00001221A70002318461037BD4680BD00BF9D
:100FE0009000002090710008B0000020D000002088
:100FF0008C00002080B582B000AF0346FB710F4B20
:101000001B78002B16D00E4B1B6C0D4AB2F85C10EF
:101010000022184602F072FDFB791846FFF75EFFCA
:10102000074B1B6C064AB2F85C100122184602F00E
:1010300065FD00E000BF0837BD4680BD8C00002084
:101040009000002080B584B000AF0346B9607A609C
:10105000FB73FB7B002B01D1002306E0F97B7B684F
:10106000BA68044800F0B8F9FB7B18461037BD4653
:1010700080BD00BFA871000880B586B002AFF860DF
:10108000B9607A60114B1B780133DAB20F4B1A70DA
:101090000E4B1B78632B02D80C4B64221A700B4B3F
:1010A0001B78C72B02D9094B64221A70074B1B7897
:1010B00019467B680093BB68FA68054800F08CF914
:1010C000024B1B7818461037BD4680BD8D000020AE
:1010D000BC71000880B582B000AF0346FB71FB799C
:1010E0001F2B2AD87E20FFF785FFFB799F2B05D980
:1010F000FB791B09DBB23733DBB204E0FB791B0958
:10110000DBB23033DBB21846FFF774FFFB7903F034
:101110000F03DBB2092B06D9FB7903F00F03DBB217
:101120003733DBB205E0FB7903F00F03DBB230337A
:10113000DBB21846FFF75EFF03E0FB791846FFF7C6
:1011400059FF00BF0837BD4680BD80B584B000AFF1
:1011500078600023FB6009E0FB687A6813441B7821
:101160001846FFF747FFFB680133FB60FB687A68AE
:1011700013441B78002BEFD100BF00BF1037BD46D2
:1011800080BD000080B586B000AF78600023FB759D
:101190007B68002B1CD13020FFF72CFF2DE07968F5
:1011A000174BA3FB0123DA0813469B0013445B0093
:1011B000CA1AFB7DD2B218333B4403F80C2C7B686F
:1011C0000F4AA2FB0323DB087B60FB7D0133FB7529
:1011D0007B68002BE3D10DE0FB7D013B18333B44E2
:1011E00013F80C3C3033DBB21846FFF703FFFB7DEE
:1011F000013BFB75FB7D002BEED11837BD4680BD52
:10120000CDCCCCCC80B586B000AF78600B46FB70FF
:101210000023FB757B68002B03D13020FFF7EAFE2B
:101220003AE0FB78642B22D17B68002B1FDA2D205B
:10123000FFF7E0FE7B685B427B6018E07968184B43
:10124000A3FB0123DA0813469B0013445B00CA1A70
:10125000FB7DD2B218333B4403F80C2C7B68104A58
:10126000A2FB0323DB087B60FB7D0133FB757B68FE
:10127000002BE3D10DE0FB7D013B18333B4413F819
:101280000C3C3033DBB21846FFF7B4FEFB7D013B6C
:10129000FB75FB7D002BEED11837BD4680BD00BF2E
:1012A000CDCCCCCC80B584B000AF78600B46FB7061
:1012B0000023FB600023FB727B68002B12D13020DF
:1012C000FFF798FE3AE0FB681B01FB607B6803F0C8
:1012D0000F03FA681344FB607B681B097B60FB7A91
:1012E0000133FB727B68002BEDD124E0FB68DBB29D
:1012F00003F00F03BB72BB7A092B06D8BB7A3033DD
:10130000DBB21846FFF776FE0FE0FB78582B06D1CC
:10131000BB7A3733DBB21846FFF76CFE05E0BB7AC9
:101320005733DBB21846FFF765FEFB681B09FB600D
:10133000FB7A013BFB72FB7A002BD7D11037BD46FD
:1013400080BD80B584B000AF78600B46FB70002391
:10135000FB600023BB72FB78422B02D12023BB72BF
:1013600001E00823BB720023FB7210E0FB685B0006
:10137000FB607B6803F00103002B02D0FB680133A4
:10138000FB607B685B087B60FB7A0133FB72FA7A57
:10139000BB7A9A42EAD30023FB7211E0FB6803F0A8
:1013A0000103002B03D03120FFF724FE02E03020A0
:1013B000FFF720FEFB685B08FB60FB7A0133FB72E2
:1013C000FA7ABB7A9A42E9D300BF00BF1037BD4614
:1013D00080BD0000000000000FB4B0B598B000AFB1
:1013E0000023FB6507F17403BB6025E2FB6D3A6FD8
:1013F00013441B78252B0AD0FB6D3A6F13441B78DE
:101400001846FFF7F7FDFB6D0133FB6514E2FB6D3A
:1014100001333A6F13441B78002B00F00D82FB6DF3
:1014200001333A6F13441B78423B362B00F20182A2
:1014300001A252F823F000BFE91600083318000893
:101440003318000833180008331800083318000850
:101450003318000833180008331800083318000840
:10146000331800089F1700083318000833180008C5
:101470003318000833180008331800083318000820
:101480003318000833180008331800083318000810
:10149000C116000833180008331800083318000874
:1014A00033180008331800083318000833180008F0
:1014B0003318000833180008D516000895160008E0
:1014C00015150008331800083F15000833180008E8
:1014D00033180008331800083318000833180008C0
:1014E00033180008FD1600083318000833180008E8
:1014F000DF170008331800083318000883160008A7
:10150000331800082B15000833180008331800089A
:10151000AD160008BB681A1DBA601B687B627B6A47
:1015200064211846FFF76EFE83E1BB681A1DBA609E
:101530001B68BB637521B86BFFF764FE79E1BB687C
:10154000073323F0070303F10802BA60D3E900234D
:10155000C7E912234FF000024FF00003D7E9120150
:10156000FFF7D8FA0346002B08D0BC6CFB6C83F065
:101570000045C7E912452D20FFF73CFDD7E91201D0
:10158000FFF72EFB03461846FFF7FCFD2E20FFF762
:1015900031FDD7E91201FFF7FBFA03461846FEF7C3
:1015A000DDFF02460B46D7E91201FEF789FE02462F
:1015B0000B46C7E91223A8A3D3E90023D7E91201F8
:1015C000FFF736F802460B4610461946FFF7E0FAD9
:1015D0000346BB65BA6DA24B83FB02139911D31767
:1015E000CB1A4FF47A7101FB03F3D31AB3F5FA7FE8
:1015F00009DDBB6D9A4A82FB03129211DB17D31AE5
:101600000133BB6507E0BB6D954A82FB0312921163
:10161000DB17D31ABB65062387F8573097F8573086
:1016200060333B44002203F8602C21E097F85730E8
:10163000013B87F85730BA6D8A4B83FB0213991030
:10164000D317C91A0B469B000B445B00D11ACAB2D0
:1016500097F857303032D2B260333B4403F8602CF5
:10166000BB6D804A82FB03129210DB17D31ABB6555
:1016700097F85730002BD9D13B461846FFF765FD48
:10168000D7E0BB681A1DBA601B687B63786BFFF7F5
:101690005CFDCEE0BB681A1DBA601B6887F823307A
:1016A00097F823301846FFF715FDC2E0BB681A1DF6
:1016B000BA601B68FB637821F86BFFF7F3FDB8E0B5
:1016C000BB681A1DBA601B68BB615821B869FFF777
:1016D000E9FDAEE0BB681A1DBA601B68FB616221C0
:1016E000F869FFF72EFEA4E0BB681A1DBA601B68FC
:1016F000FB604221F868FFF724FE9AE0BB681A1DE0
:10170000BA601B68FB62BB681A1DBA601B687B85E8
:1017100000237B643EE07B6CFA6A13441B789F2BAA
:1017200008D97B6CFA6A13441B781B09DBB2373388
:10173000DBB207E07B6CFA6A13441B781B09DBB24F
:101740003033DBB21846FFF755FC7B6CFA6A134462
:101750001B7803F00F03DBB2092B09D97B6CFA6A03
:1017600013441B7803F00F03DBB23733DBB208E01E
:101770007B6CFA6A13441B7803F00F03DBB230333F
:10178000DBB21846FFF736FC2020FFF733FC7B6CFA
:1017900001337B647B8D7A6C9A42BCDB49E0BB6889
:1017A0001A1DBA601B687B61BB681A1DBA601B6892
:1017B0007B8200233B640DE03B6C7A6913441B7809
:1017C00075211846FFF71EFD2020FFF713FC3B6C28
:1017D00001333B647B8A3A6C9A42EDDB29E0BB68BB
:1017E0001A1DBA601B683B633B6B1B78752118465A
:1017F000FFF708FD2E20FFF7FDFB3B6B01331B7845
:1018000075211846FFF7FEFC2E20FFF7F3FB3B6B1C
:1018100002331B7875211846FFF7F4FC2E20FFF7E2
:10182000E9FB3B6B03331B7875211846FFF7EAFC95
:1018300000BFFB6D0233FB65FB6D3A6F13441B78F1
:10184000002B7FF4D3AD00BF00BF6037BD46BDE8BD
:10185000B04004B0704700BF0000000065CDCD412E
:10186000D34D62106766666680B483B000AF78605F
:1018700039607B681A783B681A707B685A683B68E5
:101880005A607B689A683B689A607B681A693B6813
:101890001A613B6800221A733B6800225A7300BF2A
:1018A0000C37BD4680BC704780B500AF034B5B680A
:1018B0009847034B02225A6100BF80BDF000002010
:1018C0000004014080B500AF034B9B689847034B71
:1018D00004225A6100BF80BDF000002000040140D6
:1018E00080B500AF034BDB689847034B08225A6171
:1018F00000BF80BDF00000200004014080B500AFB3
:10190000034B1B699847034B10225A6100BF80BDEF
:10191000F00000200004014080B500AF1F4B5B6960
:1019200003F02003002B05D01D4B5B6998471B4B30
:1019300020225A61194B5B6903F04003002B05D04C
:10194000174B9B699847154B40225A61134B5B69B3
:1019500003F08003002B05D0114BDB6998470F4B38
:1019600080225A610D4B5B6903F48073002B06D013
:101970000B4B1B6A9847094B4FF480725A61074B17
:101980005B6903F40073002B06D0054B5B6A984734
:10199000024B4FF400725A6100BF80BD0004014049
:1019A000F000002080B500AF274B5B6903F4806333
:1019B000002B06D0254B9B6A9847234B4FF480623F
:1019C0005A61214B5B6903F40063002B06D01F4B67
:1019D000DB6A98471C4B4FF400625A611A4B5B69F3
:1019E00003F48053002B06D0184B1B6B9847164B03
:1019F0004FF480525A61144B5B6903F40053002B7F
:101A000006D0124B5B6B98470F4B4FF400525A6154
:101A10000D4B5B6903F48043002B06D00B4B9B6B93
:101A20009847094B4FF480425A61074B5B6903F4B6
:101A30000043002B06D0054BDB6B9847024B4FF45D
:101A400000425A6100BF80BD00040140F000002048
:101A500080B483B000AF0346FB71FB79042B17D829
:101A600001A252F823F000BF7D1A0008811A000875
:101A7000851A0008891A00088D1A0008074B08E02B
:101A8000074B06E0074B04E0074B02E0074B00E082
:101A9000002318460C37BD4680BC70470008014043
:101AA000000C0140001001400014014000180140EA
:101AB00080B483B000AF0346FB80FB8803F00103D2
:101AC000002B01D0002369E0FB8803F00203002B08
:101AD00001D0012362E0FB8803F00403002B01D056
:101AE00002235BE0FB8803F00803002B01D00323F3
:101AF00054E0FB8803F01003002B01D004234DE0D9
:101B0000FB8803F02003002B01D0052346E0FB886F
:101B100003F04003002B01D006233FE0FB8803F0D5
:101B20008003002B01D0072338E0FB8803F4807387
:101B3000002B01D0082331E0FB8803F40073002B55
:101B400001D009232AE0FB8803F48063002B01D035
:101B50000A2323E0FB8803F40063002B01D00B234E
:101B60001CE0FB8803F48053002B01D00C2315E00C
:101B7000FB8803F40053002B01D00D230EE0FB88FB
:101B800003F48043002B01D00E2307E0B7F90630A1
:101B9000002B01DA0F2301E04FF0FF3318460C371A
:101BA000BD4680BC7047000080B588B000AF0346DA
:101BB000FB71FB79042B4ED801A252F823F000BF31
:101BC000D51B0008EF1B0008091C0008231C000897
:101BD0003D1C0008254B9B69244A43F00403936194
:101BE000224B9B6903F00403FB61FB6938E01F4B48
:101BF0009B691E4A43F0080393611C4B9B6903F0E9
:101C00000803BB61BB692BE0184B9B69174A43F083
:101C100010039361154B9B6903F010037B617B6993
:101C20001EE0124B9B69114A43F0200393610F4B56
:101C30009B6903F020033B613B6911E00B4B9B69FF
:101C40000A4A43F040039361084B9B6903F0400349
:101C5000FB60FB6804E0A42205490648FFF70CFA84
:101C6000002318462037BD4680BD00BF001002404B
:101C7000007200081872000880B582B000AF78606A
:101C80000B46FB70FB780B2B59D801A252F823F0BE
:101C9000C11C0008EB1C0008C11C0008DD1C00086A
:101CA000CF1C0008EB1C0008F91C0008071D0008E9
:101CB000151D0008231D0008071D0008311D000820
:101CC0007B6800225A607B6800229A603EE07B6855
:101CD00000225A607B6801229A6037E07B6800220C
:101CE0005A607B6802229A6030E07B6801225A6069
:101CF0007B6800229A6029E07B6811225A607B6829
:101D000000229A6022E07B6800225A607B680022F1
:101D10009A601BE07B6802225A607B6800229A600E
:101D200014E07B6812225A607B6800229A600DE002
:101D30007B6803225A607B6800229A6006E0E922F1
:101D400005490648FFF798F9034600E000231846C6
:101D50000837BD4680BD00BF007200082872000829
:101D600080B582B000AF78600B46FB70FB78032B28
:101D70001AD801A252F823F0891D0008911D00080D
:101D8000991D0008A11D00087B680322DA6012E09B
:101D90007B680322DA600EE07B680122DA600AE0E9
:101DA0007B680222DA6006E0F92205490548FFF760
:101DB00063F9034600E0002318460837BD4680BD9E
:101DC000007200084072000880B588B000AF7860EB
:101DD00039603A687B68043319461046FFF744FDC2
:101DE0007B681B791846FFF733FE02467B681A6052
:101DF0003B681A8B7B689A837B689B8BBB607B6894
:101E00001B791846FFF7D0FE0346FB77FB7F002BBC
:101E100008D0FB7F40F2131278491846FFF712F9F9
:101E20000346E7E03B689A7E07F10803114618462F
:101E3000FFF722FF0346FB77FB7F002B08D0FB7FD9
:101E40004FF48B726D491846FFF7FCF80346D1E05A
:101E50003B68DA7E07F1080311461846FFF780FF5A
:101E60000346FB77FB7F002B08D0FB7F40F2191263
:101E700062491846FFF7E6F80346BBE03B681B6A79
:101E8000002B13D03B681B7F032B0CD0032B0EDCE5
:101E9000012B02D0022B03D009E0594BFB6006E076
:101EA000574BFB6003E0564BFB6000E000BF7B68D4
:101EB0001B6807F108021146184601F09BFC7B687D
:101EC0009B68002B0ED07B689B681B68002B09D099
:101ED0007B6859697B681B791A467B689B8B4948EC
:101EE000FFF77AFA3B681B6A002B00F082807B6860
:101EF0009B8B1846FFF7DCFDB861BB69002B07DA46
:101F000040F22F123D494048FFF7B6F8034671E012
:101F10003B681A6A3D49BB6941F82320BB690F2B16
:101F20003ED801A252F823F0691F0008711F000873
:101F3000791F0008811F0008891F0008911F0008F1
:101F4000911F0008911F0008911F0008911F0008B1
:101F5000991F0008991F0008991F0008991F000881
:101F6000991F0008991F00087B6806229A7717E0DE
:101F70007B6807229A7713E07B6808229A770FE044
:101F80007B6809229A770BE07B680A229A7707E040
:101F90007B6817229A7703E07B6828229A7700BF34
:101FA0007B689B7F58B23B685B7F1B09DBB203F009
:101FB0000F013B685B7F03F00F031A4601F041F904
:101FC0007B689B7F5BB2184601F057F97B689B6882
:101FD000002B0ED07B689B681B68002B09D07B68A8
:101FE00059697B681B791A467B689B7F0848FFF715
:101FF000F3F9002318462037BD4680BD0072000863
:10200000000011105872000870720008F0000020E3
:102010007C72000880B58CB000AF7860084611462D
:102020001A460346FB700B463B801346BB70FB7899
:102030003B730F4BFB6100233B6100237B613B88BB
:10204000BB84BB7887F82630002387F8273000232D
:10205000FB62002387F8283007F10C0319467868E3
:10206000FFF7B2FE034618463037BD4680BD00BFBD
:102070009C72000880B582B000AF78600B46FB70A0
:10208000FB78002B08D07B6818687B689B8B01224B
:10209000194601F033FD07E07B6818687B689B8B6D
:1020A0000022194601F02AFD00BF0837BD4680BD59
:1020B00080B582B000AF786039607B683A681A609A
:1020C0007B68002283F804217B680433802200218E
:1020D000184604F069F87B68843380220021184692
:1020E00004F062F800BF0837BD4680BD80B588B0F7
:1020F00002AFF8607A601A460B46FB7213463B81CA
:102100003B890133184604F031F803467B617B6953
:10211000FA7A1A707B68002B09D03B89002B06D015
:102120007B6901333A897968184604F02FF8FB6817
:1021300018683B8901339BB20A2200927A69AE216A
:1021400001F074FE786904F019F800BF1837BD4635
:1021500080BD80B588B002AFF8607A601A460B4641
:10216000FB7213463B81FB7AFB75FB68186807F12D
:1021700017020A2300930123AE2101F057FEFB68EA
:1021800018683B890A2200927A68AF2101F04CFF5F
:1021900000BF1837BD4680BD80B584B000AF786001
:1021A0004023FB7307F10F02012309217868FFF731
:1021B0009DFF00BF1037BD4680BD80B584B000AF25
:1021C00078600B46FB700023FB7307F10F020123BD
:1021D00002217868FFF7BDFFFB7B03F07F03DBB2D2
:1021E000FB73FB78DB015AB2FB7B5BB213435BB240
:1021F000DBB2FB7307F10F02012302217868FFF7BE
:1022000075FF00BF1037BD4680BD80B584B000AFFC
:1022100078600B46FB70FB785B00DBB203F00203D7
:10222000DBB2FB7307F10F02012303217868FFF78C
:102230005DFF00BF1037BD4680BD80B584B000AFE4
:1022400078600B46FB70FB785B00DBB203F00203A7
:10225000DBB2FB7307F10F02012321217868FFF73E
:1022600045FF00BF1037BD4680BD80B483B000AFCE
:1022700078607B68012283F8042100BF0C37BD46DB
:1022800080BC704780B584B000AF78600023BB810C
:1022900007F10C02022300217868FFF75AFF3B7B0D
:1022A000DB09DBB203F00103002B05D01948FFF76F
:1022B00093F8786800F06DF93B7B9B09DBB203F083
:1022C0000103002B02D01448FFF786F83B7B5B0923
:1022D000DBB203F00103002B02D01048FFF77CF8BB
:1022E0007B7B5B08DBB203F00103002B0AD00C48B8
:1022F000FFF772F807F10A0207F10B031946786835
:1023000000F0AEF97B68002283F8042100BF10378B
:10231000BD4680BDCC720008D0720008D47200089F
:10232000D872000880B584B000AF78600B46FB70AF
:1023300007F10F02012309217868FFF70AFFFB7BF1
:102340005BB223F007035AB297F9033013435BB231
:10235000DBB2FB7307F10F02012309217868FFF755
:10236000C5FE786800F0F6F800BF1037BD4680BDA6
:1023700080B584B000AF78600B46FB7007F10F02A8
:1023800001230A217868FFF7E4FEFB7B9B00DBB2A8
:1023900023F07303DBB2FB7307F10F0201230A2161
:1023A0007868FFF7A3FE00BF1037BD4680BD80B53B
:1023B00084B000AF78600B46FB7007F10F02012379
:1023C0000A217868FFF7C5FEFB7B5BB203F07C0354
:1023D0005AB297F9033013435BB2DBB2FB7307F1D8
:1023E0000F0201230A217868FFF780FE00BF103733
:1023F000BD4680BD80B584B000AF78600B46FB70F1
:1024000007F10F0201230A217868FFF7A2FEFB7B88
:102410005BB203F01F035AB2FB785B015BB213435C
:102420005BB2DBB2FB7307F10F0201230A2178686C
:10243000FFF75CFE00BF1037BD4680BD0000000006
:1024400080B584B000AF786039603868FEF798F8DE
:102450000DA3D3E90023FEF715FA02460B461046FA
:102460001946FEF7BDFB0346DBB2FB7307F10F0213
:1024700001230C217868FFF739FE00BF1037BD46F5
:1024800080BD00BFAFF300809A9999999999C93F8F
:1024900080B584B000AF786039603868FEF770F8B6
:1024A0000DA3D3E90023FEF7EDF902460B461046D3
:1024B0001946FEF795FB0346DBB2FB7307F10F02EB
:1024C00001230D217868FFF711FE00BF1037BD46CC
:1024D00080BD00BFAFF300809A9999999999C93F3F
:1024E00080B584B000AF7860084611461A460346AE
:1024F000FB700B46BB7013467B700023FB73FB78AD
:102500005B015AB2FB7B5BB213435BB2DBB2FB7382
:10251000BB781B015BB203F010035AB2FB7B5BB2CA
:1025200013435BB2DBB2FB7397F9013003F00F0387
:102530005AB2FB7B5BB213435BB2DBB2FB7307F1B6
:102540000F02012308217868FFF7D0FD00BF103784
:10255000BD4680BD80B584B000AF78600023FB73BA
:1025600007F10F02032304217868FFF7BFFD07F18D
:102570000F02032306217868FFF7B8FD07F10F0269
:10258000032305217868FFF7B1FD00BF1037BD4672
:1025900080BD80B588B000AF78600023FB74002355
:1025A000BB7407F11302012304217868FFF7D1FD02
:1025B00007F11202012306217868FFF7CAFDFA7CB1
:1025C000BB7CD31ADBB2FB7797F91F30002B03DCFF
:1025D000FB7F2033DBB2FB770023BB7735E007F1CD
:1025E0000C02062307217868FFF7B3FD3B7B1B0431
:1025F0001A467B7B1B021343BA7B1343C3F31103BD
:10260000BB61FB7B1B041A463B7C1B0213437A7C99
:102610001343C3F311037B6197F91E307A689B0063
:102620001344BA695A6097F91E307A6820339B00C8
:1026300013447A695A607969B86900F027F897F904
:102640001E30DBB20133DBB2BB7797F91E2097F95E
:102650001F309A42C3DB00BF00BF2037BD4680BD9C
:1026600080B584B000AFF860B9607A600123BA68C1
:102670001F21F868FFF76DFD01237A682021F868B3
:10268000FFF767FD00BF1037BD4680BD80B582B043
:1026900000AF786039603A6879680948FEF79CFEB7
:1026A000084A7B681360074A3B6853600822054963
:1026B000054802F00BFF00BF0837BD4680BD00BFD4
:1026C000DC72000828030020D801002080B58AB001
:1026D00000AF00F07DFC00F0ADF800F09DF900F0D7
:1026E00075F900F049F900F0EBF800F017F9002354
:1026F000BB750023BB760023BB770123BB8202237B
:102700003B830423BB8307F114031846FEF710FC38
:102710004048FEF761FE40F2B5633B6140F6AB63B3
:102720003B623D4BFB604DF60313BB6041F66163BA
:102730007B6000F0A5FC7862384BAA221A703B69D6
:10274000364AC2F80130FB68344AC2F80930BB6827
:10275000324AC2F80D307B68304AC2F811302F4B34
:1027600055225A752E492F48FFF7A2FC2D48FFF736
:1027700013FD2C48FFF7EEFE072301220321294811
:10278000FFF7AEFE01212748FFF711FE0021254883
:10279000FFF730FE04212348FFF7EAFD22492148D4
:1027A000FFF74EFE20491F48FFF772FE03211D4828
:1027B000FFF7B8FD01211B48FFF7FFFC0121194875
:1027C000FFF73BFD01211748FFF71FFD00233B806A
:1027D0003A46012300211348FFF7BBFC1148FFF7DD
:1027E00051FD00F04DFC02467B6AD31AB3F57A7FA7
:1027F000F4D94FF400510D4801F098F900F07CF93C
:10280000802206490A4802F061FE00F039FC786235
:10281000E4E700BFEC720008E0220200A8020020FA
:1028200030010020300300206666C64000100140E1
:10283000D801002080B590B000AF07F1180328221E
:102840000021184603F0B0FC3B1D00221A605A60BC
:102850009A60DA601A610123BB614FF48033FB6137
:1028600000233B620123BB6202237B634FF480336E
:10287000BB634FF4E013FB6307F11803184602F043
:10288000C5F90346002B01D000F0B0F90F237B609F
:102890000223BB600023FB604FF480633B61002395
:1028A0007B613B1D0221184602F032FC0346002BDF
:1028B00001D000F09BF900BF4037BD4680BD00004D
:1028C00080B500AF124B134A1A60114B124A5A607E
:1028D0000F4B00229A600E4B0022DA600C4B4FF433
:1028E00080421A610A4B00225A61094B00229A6108
:1028F000074B0022DA61064B00221A62044801F0FD
:1029000051F90346002B01D000F070F900BF80BDE3
:102910003001002000540040A086010080B500AFC7
:10292000124B134A1A60114B124A5A600F4B002285
:102930009A600E4B0022DA600C4B4FF480421A6111
:102940000A4B00225A61094B00229A61074B002270
:10295000DA61064B00221A62044801F023F90346AB
:10296000002B01D000F042F900BF80BD840100209F
:1029700000580040A086010080B500AF114B124AFC
:102980001A60104B4FF4E1325A600E4B00229A60ED
:102990000C4B0022DA600B4B00221A61094B0C220F
:1029A0005A61084B00229A61064B0022DA61054801
:1029B00002F03CFD0346002B01D000F017F900BFE8
:1029C00080BD00BFD80100200038014080B582B032
:1029D00000AF104B5B690F4A43F0010353610D4B8D
:1029E0005B6903F001037B607B68002200210E20FD
:1029F00000F027FC0E2000F040FC002200210F20F8
:102A000000F01FFC0F2000F038FC00BF0837BD4667
:102A100080BD00BF0010024080B588B000AF07F154
:102A2000100300221A605A609A60DA602E4B9B698C
:102A30002D4A43F0100393612B4B9B6903F0100365
:102A4000FB60FB68284B9B69274A43F02003936196
:102A5000254B9B6903F02003BB60BB68224B9B693D
:102A6000214A43F0080393611F4B9B6903F008035D
:102A70007B607B681C4B9B691B4A43F0040393619A
:102A8000194B9B6903F004033B603B6800224FF441
:102A90000051164801F032F84FF400533B61012316
:102AA0007B610023BB610223FB6107F11003194620
:102AB0000E4800F09FFE01233B610D4B7B6101231B
:102AC000BB6107F1100319460A4800F093FE00228B
:102AD0000021062000F0B5FB062000F0CEFB00BF71
:102AE0002037BD4680BD00BF0010024000100140ED
:102AF00000002110000C0140B0B586B002AF0023E9
:102B00003B810A230093012300229021334801F0E6
:102B10008DF907F108020A230093022390212F4820
:102B200001F082FA4FF000037B606FF00703FB6057
:102B30002BE07B7A1A46FB68083342FA03F303F072
:102B40000103002B1ED0F868FDF708FD02460B4676
:102B50004FF000004FF0804103F028FC04460D4682
:102B60007B681846FDF70CFD02460B4620462946B9
:102B7000FDF7A8FB02460B4610461946FEF750F833
:102B800003467B60FB680133FB60FB68002BD0DBF6
:102B90003B7A1846FEF74EF902467B681946104606
:102BA000FEF794F803467B607B680D491846FDF7F5
:102BB000CFFA03467B607B680A4AC2F805307B681F
:102BC0001846FDF7DDFC02460B460748FEF704FCFD
:102BD00000BF18461037BD46B0BD00BF84010020BD
:102BE00000007A44A80200202073000880B400AFDF
:102BF00072B600BFFEE7000080B483B000AF0E4B9A
:102C00009B690D4A43F0010393610B4B9B6903F0F1
:102C100001037B607B68084BDB69074A43F0805304
:102C2000D361054BDB6903F080533B603B6800BF19
:102C30000C37BD4680BC70470010024080B58AB09A
:102C400000AF786007F1180300221A605A609A609A
:102C5000DA607B681B682B4A934224D12A4B9B691C
:102C6000294A43F008039361274B9B6903F008034B
:102C70007B617B69C023BB611223FB6103237B6201
:102C800007F118031946214800F0B4FD1E4BDB691B
:102C90001D4A43F40013D3611B4BDB6903F400139B
:102CA0003B613B6929E07B681B68194A934224D148
:102CB000154B9B69144A43F008039361124B9B69BF
:102CC00003F00803FB60FB684FF44063BB61122311
:102CD000FB6103237B6207F1180319460B4800F0E0
:102CE00089FD094BDB69084A43F48003D361064B35
:102CF000DB6903F48003BB60BB6800BF2837BD46B7
:102D000080BD00BF0054004000100240000C014094
:102D10000058004080B588B000AF786007F110031C
:102D200000221A605A609A60DA607B681B68474A22
:102D3000934240F08680464B9B69454A43F480436A
:102D40009361434B9B6903F48043FB60FB68404BFA
:102D50009B693F4A43F0040393613D4B9B6903F039
:102D60000403BB60BB684FF400733B6102237B61CB
:102D70000323FB6107F110031946364800F03AFDC2
:102D80004FF480633B6100237B610023BB6107F14B
:102D9000100319462F4800F02DFD2F4B2F4A1A60C3
:102DA0002D4B00225A602C4B00229A602A4B802225
:102DB000DA60294B00221A61274B00225A61264B08
:102DC00000229A61244B0022DA61234800F070FA55
:102DD0000346002B01D0FFF709FF7B681E4ADA6328
:102DE0001D4A7B6853621E4B1E4A1A601C4B102200
:102DF0005A601B4B00229A60194B8022DA60184BF4
:102E000000221A61164B00225A61154B00229A616A
:102E1000134B0022DA61124800F04AFA0346002BF5
:102E200001D0FFF7E3FE7B680D4A9A630C4A7B688A
:102E3000536200220021252000F003FA252000F033
:102E40001CFA00BF2037BD4680BD00BF00380140DE
:102E500000100240000801402002002058000240FB
:102E6000640200204400024080B400AFFEE780B45A
:102E700000AFFEE780B400AFFEE780B400AFFEE72E
:102E800080B400AFFEE780B400AF00BFBD4680BC99
:102E9000704780B400AF00BFBD4680BC704780B4AF
:102EA00000AF00BFBD4680BC704780B500AF00F0EA
:102EB000D5F800BF80BD000080B500AF0348FFF724
:102EC000D4F9012000F04CFE00BF80BD300300208B
:102ED00080B500AF024800F059FB00BF80BD00BFC5
:102EE0006402002080B500AF024800F04FFB00BF35
:102EF00080BD00BF2002002080B500AF024802F074
:102F000055FB00BF80BD00BFD801002080B586B052
:102F100000AF7860144A154BD31A7B617B693B6123
:102F2000134B1B68002B02D1114B124A1A60104B35
:102F30001A687B6813443A699A4207D203F0ECF8A6
:102F400003460C221A604FF0FF3309E0084B1B6860
:102F5000FB60074B1A687B681344054A1360FB68E3
:102F600018461837BD4680BD005000200004000000
:102F7000380400205004002080B400AF00BFBD46DC
:102F800080BC7047FFF7F8FF0B480C490C4A002340
:102F900002E0D458C4500433C4188C42F9D3094A0F
:102FA000094C002301E013600432A242FBD303F07A
:102FB000B9F8FFF78BFB704700000020700000207D
:102FC000907300087000002050040020FEE700000D
:102FD00080B500AF084B1B68074A43F0100313602D
:102FE000032000F023F90F2000F008F8FFF704FE9B
:102FF0000023184680BD00BF0020024080B582B08B
:1030000000AF7860124B1A68124B1B7819464FF4C8
:103010007A73B3FBF1F3B2FBF3F3184600F03BF91C
:103020000346002B01D001230EE07B680F2B0AD84A
:10303000002279684FF0FF3000F003F9064A7B6800
:103040001360002300E0012318460837BD4680BD09
:1030500000000020080000200400002080B400AF21
:10306000054B1B781A46054B1B681344034A136033
:1030700000BFBD4680BC7047080000203C04002013
:1030800080B400AF024B1B681846BD4680BC704739
:103090003C04002080B485B000AF78607B6803F00A
:1030A0000703FB600C4BDB68BB60BA684FF6FF039D
:1030B0001340BB60FB681A02BB68134343F0BF6355
:1030C00043F40033BB60044ABB68D36000BF1437CD
:1030D000BD4680BC704700BF00ED00E080B400AF8B
:1030E000044BDB681B0A03F007031846BD4680BC8F
:1030F000704700BF00ED00E080B483B000AF03462E
:10310000FB7197F90730002B0BDBFB7903F01F02F3
:10311000064997F907305B09012000FA02F241F8ED
:10312000232000BF0C37BD4680BC704700E100E0A3
:1031300080B483B000AF03463960FB7197F9073064
:10314000002B0ADB3B68DAB20C4997F90730120111
:10315000D2B20B4483F800230AE03B68DAB2084994
:10316000FB7903F00F03043B1201D2B20B441A7631
:1031700000BF0C37BD4680BC704700BF00E100E0D7
:1031800000ED00E080B489B000AFF860B9607A600B
:10319000FB6803F00703FB61FB69C3F10703042B22
:1031A00028BF0423BB61FB690433062B02D9FB69EA
:1031B000033B00E000237B614FF0FF32BB6902FA62
:1031C00003F3DA43BB681A407B699A404FF0FF3142
:1031D0007B6901FA03F3D9437B680B40134318461C
:1031E0002437BD4680BC704780B582B000AF7860A0
:1031F0007B68013BB3F1807F01D301230FE00A4AD2
:103200007B68013B53600F214FF0FF30FFF790FFC9
:10321000054B00229A60044B07221A6000231846CF
:103220000837BD4680BD00BF10E000E080B582B029
:1032300000AF78607868FFF72DFF00BF0837BD4604
:1032400080BD80B586B000AF0346B9607A60FB737D
:1032500000237B61FFF742FF78617A68B96878697B
:10326000FFF790FF024697F90F3011461846FFF717
:103270005FFF00BF1837BD4680BD80B582B000AF8C
:103280000346FB7197F907301846FFF735FF00BF7B
:103290000837BD4680BD80B582B000AF78607868E1
:1032A000FFF7A2FF034618460837BD4680BD000061
:1032B00080B485B000AF78600023FB607B68002B92
:1032C00001D1012343E07B681B681A46224B13445B
:1032D000224AA2FB03231B099A007B681A647B68BD
:1032E0001F4ADA637B68022283F821207B681B680F
:1032F0001B68FB60FB6823F47F5323F03003FB6003
:103300007B685A687B689B681A437B68DB681A4352
:103310007B681B691A437B685B691A437B689B69FE
:103320001A437B68DB691343FA681343FB607B68CD
:103330001B68FA681A607B6800229A637B68012226
:1033400083F821207B68002283F820200023184680
:103350001437BD4680BC7047F8FFFDBFCDCCCCCC48
:103360000000024080B586B000AFF860B9607A60B6
:103370003B600023FB75FB6893F82030012B01D1E3
:1033800002234BE0FB68012283F82020FB6893F8BE
:103390002130DBB2012B3AD1FB68022283F82120D5
:1033A000FB6800229A63FB681B681A68FB681B684D
:1033B00022F001021A603B687A68B968F86800F088
:1033C000EBF9FB68DB6A002B08D0FB681B681A6806
:1033D000FB681B6842F00E021A600FE0FB681B6876
:1033E0001A68FB681B6822F004021A60FB681B68FD
:1033F0001A68FB681B6842F00A021A60FB681B68C7
:103400001A68FB681B6842F001021A6005E0FB685D
:10341000002283F820200223FB75FB7D1846183715
:10342000BD4680BD80B485B000AF78600023FB73DB
:103430007B6893F82130DBB2022B08D07B68042232
:103440009A637B68002283F82020012320E07B68B8
:103450001B681A687B681B6822F00E021A607B6882
:103460001B681A687B681B6822F001021A607B687F
:103470001A6C7B68DB6B012101FA02F25A607B68EF
:10348000012283F821207B68002283F82020FB7B27
:1034900018461437BD4680BC7047000080B584B024
:1034A00000AF78600023FB737B6893F82130DBB2B8
:1034B000022B05D07B6804229A630123FB7351E041
:1034C0007B681B681A687B681B6822F00E021A6012
:1034D0007B681B681A687B681B6822F001021A600F
:1034E0007B681B68224A934229D07B681B68214A6B
:1034F000934222D07B681B681F4A93421AD07B6894
:103500001B681E4A934212D07B681B681C4A934278
:103510000AD07B681B681B4A934202D14FF4801388
:103520000EE04FF080730BE04FF4803308E04FF46F
:10353000805305E04FF4807302E0102300E0012384
:10354000114A53607B68012283F821207B680022A6
:1035500083F820207B685B6B002B03D07B685B6B60
:1035600078689847FB7B18461037BD4680BD00BF82
:10357000080002401C0002403000024044000240AB
:10358000580002406C0002400000024080B584B048
:1035900000AF78607B68DB6B1B68FB607B681B6837
:1035A0001B68BB607B681B6C04229A40FB6813405D
:1035B000002B4FD0BB6803F00403002B4AD07B687C
:1035C0001B681B6803F02003002B07D17B681B6876
:1035D0001A687B681B6822F004021A607B681B680B
:1035E000664A934229D07B681B68654A934222D081
:1035F0007B681B68634A93421AD07B681B68624AE7
:10360000934212D07B681B68604A93420AD07B6861
:103610001B685F4A934202D14FF480030EE04FF0E3
:1036200080630BE04FF4802308E04FF4804305E013
:103630004FF4806302E0402300E00423554A5360C6
:103640007B68DB6A002B00F094807B68DB6A78681B
:1036500098478EE07B681B6C02229A40FB681340FF
:10366000002B56D0BB6803F00203002B51D07B68BF
:103670001B681B6803F02003002B0BD17B681B68C1
:103680001A687B681B6822F00A021A607B680122B4
:1036900083F821207B681B68384A934229D07B68D5
:1036A0001B68374A934222D07B681B68354A934295
:1036B0001AD07B681B68344A934212D07B681B681F
:1036C000324A93420AD07B681B68314A934202D146
:1036D0004FF400130EE04FF000730BE04FF4003393
:1036E00008E04FF4005305E04FF4007302E020239C
:1036F00000E00223274A53607B68002283F82020E1
:103700007B689B6A002B34D07B689B6A78689847FB
:103710002FE07B681B6C08229A40FB681340002B4B
:1037200028D0BB6803F00803002B23D07B681B68FC
:103730001A687B681B6822F00E021A607B681A6C9C
:103740007B68DB6B012101FA02F25A607B6801227F
:103750009A637B68012283F821207B68002283F82A
:1037600020207B681B6B002B04D07B681B6B786868
:10377000984700BF00BF1037BD4680BD080002401B
:103780001C00024030000240440002405800024049
:103790006C0002400000024080B485B000AFF860C9
:1037A000B9607A603B60FB681A6CFB68DB6B0121D7
:1037B00001FA02F25A60FB681B683A685A60FB68BB
:1037C0005B68102B08D1FB681B687A689A60FB68FD
:1037D0001B68BA68DA6007E0FB681B68BA689A6021
:1037E000FB681B687A68DA6000BF1437BD4680BC8E
:1037F0007047000080B48BB000AF78603960002360
:103800007B6200233B6269E101227B6A02FA03F3D7
:10381000FB613B681B68FA691340BB61BA69FB69CD
:103820009A4240F058813B685B689A4A93425ED066
:10383000984A934275D8984A934258D0964A9342F0
:103840006FD8964A934252D0944A934269D8944A88
:1038500093424CD0924A934263D8924A934246D0C4
:10386000904A93425DD8122B2AD8122B59D801A224
:1038700052F823F0EF380008C9380008DB38000898
:103880001D390008233900082339000823390008AE
:103890002339000823390008233900082339000898
:1038A0002339000823390008233900082339000888
:1038B0002339000823390008D1380008E53800080A
:1038C000794A934213D02CE03B68DB683B6229E0E5
:1038D0003B68DB6804333B6224E03B68DB68083309
:1038E0003B621FE03B68DB680C333B621AE03B68DD
:1038F0009B68002B02D104233B6213E03B689B686A
:10390000012B05D108233B627B68FA691A6109E043
:1039100008233B627B68FA695A6103E000233B623B
:1039200000E000BFBB69FF2B01D87B6801E07B682A
:1039300004337B61BB69FF2B02D87B6A9B0002E0EA
:103940007B6A083B9B003B617B691A680F213B69DE
:1039500001FA03F3DB431A40396A3B6901FA03F3C6
:103960001A437B691A603B685B6803F08053002B45
:1039700000F0B1804D4B9B694C4A43F001039361C9
:103980004A4B9B6903F00103BB60BB68484A7B6AF2
:103990009B08023352F82330FB607B6A03F0030379
:1039A0009B000F2202FA03F3DB43FA681340FB602B
:1039B0007B68404A934213D07B683F4A93420DD0C4
:1039C0007B683E4A934207D07B683D4A934201D1CF
:1039D000032306E0042304E0022302E0012300E0C5
:1039E00000237A6A02F0030292009340FA681343BC
:1039F000FB602F497B6A9B080233FA6841F8232059
:103A00003B685B6803F48013002B06D02D4B9A684B
:103A10002C49BB6913438B6006E02A4B9A68BB694B
:103A2000DB43284913408B603B685B6803F4001359
:103A3000002B06D0234BDA682249BB691343CB60C5
:103A400006E0204BDA68BB69DB431E491340CB60BC
:103A50003B685B6803F40033002B06D0194B5A68AF
:103A60001849BB6913434B6006E0164B5A68BB69A3
:103A7000DB43144913404B603B685B6803F48033BD
:103A8000002B21D00F4B1A680E49BB6913430B6002
:103A900021E000BF000032100000311000002210B1
:103AA0000000211000001210000011100010024050
:103AB0000000014000080140000C014000100140DE
:103AC00000140140000401400B4B1A68BB69DB4342
:103AD000094913400B607B6A01337B623B681A68BB
:103AE0007B6A22FA03F3002B7FF48EAE00BF00BF87
:103AF0002C37BD4680BC70470004014080B483B0C1
:103B000000AF78600B467B8013467B707B78002B80
:103B100003D07A887B681A6103E07B881A047B688B
:103B20001A6100BF0C37BD4680BC704780B485B0B9
:103B300000AF78600B467B807B68DB68FB607A882F
:103B4000FB6813401A04FB68D9437B880B401A4377
:103B50007B681A6100BF1437BD4680BC7047000007
:103B600080B582B000AF0346FB80084B5A69FB88E2
:103B70001340002B06D0054AFB885361FB8818468A
:103B800000F006F800BF0837BD4680BD00040140C4
:103B900080B483B000AF0346FB8000BF0C37BD4646
:103BA00080BC704780B584B000AF78607B68002B24
:103BB00001D101232BE17B6893F83D30DBB2002B70
:103BC00006D17B68002283F83C207868FFF736F83E
:103BD0007B68242283F83D207B681B681A687B6819
:103BE0001B6822F001021A607B681B681A687B68F8
:103BF0001B6842F400421A607B681B681A687B6885
:103C00001B6822F400421A6001F0CAFBF8607B686E
:103C10005B68814A934207D8FB68804A934294BF0D
:103C200001230023DBB206E0FB687D4A934294BF88
:103C300001230023DBB2002B01D00123E7E0FB6866
:103C4000784AA2FB03239B0CBB607B681B685B6804
:103C500023F03F017B681B68BA680A435A607B689F
:103C60001B681B6A23F03F017B685B686A4A9342CA
:103C700002D8BB68013309E0BB684FF4967202FBBF
:103C800003F3694AA2FB03239B0901337A68126894
:103C90000B4313627B681B68DB6923F44F4222F0FD
:103CA000FF027B685B685C498B4219D8FB68591E30
:103CB0007B685B685B00B1FBF3F3591C40F6FC7357
:103CC0000B40002B0AD0FB68591E7B685B685B00C9
:103CD000B1FBF3F30133C3F30B0351E004234FE0D3
:103CE0007B689B68002B11D1FB68581E7B68596864
:103CF0000B465B000B44B0FBF3F30133C3F30B0340
:103D0000002B0CBF01230023DBB212E0FB68581E1E
:103D10007B6859680B469B000B4499000B44B0FB31
:103D2000F3F30133C3F30B03002B0CBF0123002378
:103D3000DBB2002B01D0012322E07B689B68002BC3
:103D40000ED1FB68581E7B6859680B465B000B441C
:103D5000B0FBF3F30133C3F30B0343F400430FE071
:103D6000FB68581E7B6859680B469B000B44990002
:103D70000B44B0FBF3F30133C3F30B0343F44043B1
:103D8000796809681343CB617B681B681B6823F063
:103D9000C0017B68DA697B681B6A1A437B681B6811
:103DA0000A431A607B681B689B6823F4034323F073
:103DB000FF037A6811697A68D26811437A681268D9
:103DC0000B4393607B681B68DB6823F0FF017B6813
:103DD0005A697B689B691A437B681B680A43DA60EF
:103DE0007B681B681A687B681B6842F001021A60D6
:103DF0007B6800221A647B68202283F83D207B6860
:103E000000221A637B68002283F83E2000231846B4
:103E10001037BD4680BD00BFA08601007F841E0014
:103E2000FF083D0083DE1B43D34D621080B588B090
:103E300002AFF8607A601A460B467B8113463B81DD
:103E4000FFF71EF97861FB6893F83D30DBB2202B59
:103E500040F0E0807B690093192301227049F868E3
:103E600000F09EFC0346002B01D00223D3E0FB6848
:103E700093F83C30012B01D10223CCE0FB680122F6
:103E800083F83C20FB681B681B6803F00103012BCF
:103E900007D0FB681B681A68FB681B6842F00102C8
:103EA0001A60FB681B681A68FB681B6822F40062D2
:103EB0001A60FB68212283F83D20FB68102283F8FA
:103EC0003E20FB6800221A64FB687A685A62FB682D
:103ED0003A895A85FB685B8D9AB2FB681A85FB6844
:103EE000504ADA6279897B693A6AF86800F008FB1F
:103EF0000346002B01D001238DE000233B61FB68CA
:103F00001B685B693B61FB681B689B693B613B69A4
:103F100066E07A69396AF86800F05CFD0346002BB8
:103F20000DD0FB681B6C042B07D1FB681B681A685B
:103F3000FB681B6842F400721A6001236BE0FB68A7
:103F40005B6A1A78FB681B681A61FB685B6A5A1C1B
:103F5000FB685A62FB685B8D9BB2013B9AB2FB68BF
:103F60005A85FB681B8D013B9AB2FB681A85FB687A
:103F70001B685B6903F00403042B1BD1FB681B8DDA
:103F8000002B17D0FB685B6A1A78FB681B681A6104
:103F9000FB685B6A5A1CFB685A62FB685B8D9BB2CC
:103FA000013B9AB2FB685A85FB681B8D013B9AB2B4
:103FB000FB681A857A69396AF86800F053FD034690
:103FC000002B0DD0FB681B6C042B07D1FB681B6812
:103FD0001A68FB681B6842F400721A6001231AE039
:103FE000FB681B8D002B94D1FB681B681A68FB686B
:103FF0001B6842F400721A60FB68202283F83D209F
:10400000FB68002283F83E20FB68002283F83C20F6
:10401000002300E0022318461837BD4680BD00BFCC
:10402000020010000000FFFF80B58CB002AFF86006
:104030007A601A460B467B8113463B8100233B6224
:10404000FFF71EF87862FB6893F83D30DBB2202B57
:1040500040F04B827B6A0093192301227F49F86864
:1040600000F09EFB0346002B01D002233EE2FB68DA
:1040700093F83C30012B01D1022337E2FB68012287
:1040800083F83C20FB681B681B6803F00103012BCD
:1040900007D0FB681B681A68FB681B6842F00102C6
:1040A0001A60FB681B681A68FB681B6822F40062D0
:1040B0001A60FB68222283F83D20FB68102283F8F7
:1040C0003E20FB6800221A64FB687A685A62FB682B
:1040D0003A895A85FB685B8D9AB2FB681A85FB6842
:1040E0005F4ADA6279897B6A3A6BF86800F08AFA8B
:1040F0000346002B01D00123F8E1FB681B8D002B48
:1041000013D10023FB61FB681B685B69FB61FB68E3
:104110001B689B69FB61FB69FB681B681A68FB688D
:104120001B6842F400721A60CCE1FB681B8D012B06
:104130001ED1FB681B681A68FB681B6822F480624A
:104140001A6072B600BF0023BB61FB681B685B6925
:10415000BB61FB681B689B69BB61BB69FB681B6833
:104160001A68FB681B6842F400721A6062B635E098
:10417000FB681B8D022B1ED1FB681B681A68FB684D
:104180001B6842F400621A6072B600BF00237B61B4
:10419000FB681B685B697B61FB681B689B697B61D3
:1041A0007B69FB681B681A68FB681B6822F48062E5
:1041B0001A6062B612E0FB681B681A68FB681B682D
:1041C00042F480621A6000233B61FB681B685B69F4
:1041D0003B61FB681B689B693B613B6972E1FB6863
:1041E0001B8D032B00F21F81FB681B8D012B23D13C
:1041F0007A6A396BF86800F07DFC0346002B01D029
:10420000012373E1FB681B681A69FB685B6AD2B221
:104210001A70FB685B6A5A1CFB685A62FB681B8D4C
:10422000013B9AB2FB681A85FB685B8D9BB2013B30
:104230009AB2FB685A8545E1FB681B8D022B52D16F
:104240007B6A00933B6B00220649F86800F0A8FAED
:104250000346002B08D0012348E100BF02001000F4
:104260000000FFFF0400010072B600BFFB681B687E
:104270001A68FB681B6842F400721A60FB681B68CE
:104280001A69FB685B6AD2B21A70FB685B6A5A1CD7
:10429000FB685A62FB681B8D013B9AB2FB681A856A
:1042A000FB685B8D9BB2013B9AB2FB685A8562B694
:1042B00000BFFB681B681A69FB685B6AD2B21A70A0
:1042C000FB685B6A5A1CFB685A62FB681B8D013BEA
:1042D0009AB2FB681A85FB685B8D9BB2013B9AB270
:1042E000FB685A85EEE07B6A00933B6B00228149B4
:1042F000F86800F055FA0346002B01D00123F5E0E1
:10430000FB681B681A68FB681B6822F480621A60ED
:1043100072B600BFFB681B681A69FB685B6AD2B2A1
:104320001A70FB685B6A5A1CFB685A62FB681B8D3B
:10433000013B9AB2FB681A85FB685B8D9BB2013B1F
:104340009AB2FB685A856C4B1B68DB086B4AA2FB70
:1043500003231A0A13469B001344DA00D31A3B6264
:104360003B6A013B3B623B6A002B18D1FB68002291
:104370001A63FB68202283F83D20FB68002283F843
:104380003E20FB681B6C43F02002FB681A6462B697
:1043900000BFFB68002283F83C200123A6E0FB68F5
:1043A0001B685B6903F00403042BD9D1FB681B680D
:1043B0001A68FB681B6842F400721A60FB681B688D
:1043C0001A69FB685B6AD2B21A70FB685B6A5A1C96
:1043D000FB685A62FB681B8D013B9AB2FB681A8529
:1043E000FB685B8D9BB2013B9AB2FB685A8562B653
:1043F00000BFFB681B681A69FB685B6AD2B21A705F
:10440000FB685B6A5A1CFB685A62FB681B8D013BA8
:104410009AB2FB681A85FB685B8D9BB2013B9AB22E
:10442000FB685A854EE07A6A396BF86800F062FBE7
:104430000346002B01D0012358E0FB681B681A6972
:10444000FB685B6AD2B21A70FB685B6A5A1CFB6835
:104450005A62FB681B8D013B9AB2FB681A85FB68A8
:104460005B8D9BB2013B9AB2FB685A85FB681B6867
:104470005B6903F00403042B24D1FB681B8D032B21
:1044800007D1FB681B681A68FB681B6822F480620E
:104490001A60FB681B681A69FB685B6AD2B21A7003
:1044A000FB685B6A5A1CFB685A62FB681B8D013B08
:1044B0009AB2FB681A85FB685B8D9BB2013B9AB28E
:1044C000FB685A85FB681B8D002B7FF488AEFB6868
:1044D000202283F83D20FB68002283F83E20FB6801
:1044E000002283F83C20002300E0022318462837EE
:1044F000BD4680BD040001000000002089B5F8140D
:1045000080B588B002AFF8607A603B600B467B8173
:10451000FB68DB6A7B617B69082B06D07B69012B1A
:1045200003D07B6913F5803F08D1FB681B681A68CC
:10453000FB681B6842F480721A600BE0FB681B6B1F
:10454000122B07D1FB681B681A68FB681B6842F4D2
:1045500080721A603B6800937B6800224FF0011163
:10456000F86800F01DF90346002B0DD0FB681B68AE
:104570001B6803F48073B3F5807F03D1FB684FF4AD
:1045800000721A64032335E0FB681B69B3F5804FA2
:1045900008D17B89DBB21A46FB681B6802F0FE0279
:1045A0001A611BE07B89DB11DBB203F00603DBB28F
:1045B00063F00F03DAB2FB681B681A613B687A6824
:1045C0000E49F86800F066F90346002B01D001237C
:1045D00010E07B89DAB2FB681B681A613B687A6875
:1045E0000749F86800F056F90346002B01D0012373
:1045F00000E0002318461837BD4680BD08000100C2
:104600000200010080B588B002AFF8607A603B60BC
:104610000B467B81FB68DB6A7B61FB681B681A6861
:10462000FB681B6842F480621A607B69082B06D025
:104630007B69012B03D07B6913F5803F08D1FB68B0
:104640001B681A68FB681B6842F480721A600BE0F2
:10465000FB681B6B112B07D1FB681B681A68FB6892
:104660001B6842F480721A603B6800937B680022EA
:104670004FF00111F86800F093F80346002B0DD0BD
:10468000FB681B681B6803F48073B3F5807F03D15C
:10469000FB684FF400721A64032379E0FB681B691E
:1046A000B3F5804F08D17B89DBB243F00103DAB266
:1046B000FB681B681A615FE07B89DB11DBB203F0EA
:1046C0000603DBB263F00F03DAB2FB681B681A6102
:1046D0003B687A683049F86800F0DCF80346002B44
:1046E00001D0012354E07B89DAB2FB681B681A61B0
:1046F0003B687A682949F86800F0CCF80346002B3B
:1047000001D0012344E000233B61FB681B685B6927
:104710003B61FB681B689B693B613B69FB681B68ED
:104720001A68FB681B6842F480721A603B68009349
:104730007B6800224FF00111F86800F031F8034661
:10474000002B0DD0FB681B681B6803F48073B3F566
:10475000807F03D1FB684FF400721A64032317E0D3
:104760007B89DB11DBB203F00603DBB263F00E03DF
:10477000DAB2FB681B681A613B687A680749F86817
:1047800000F088F80346002B01D0012300E000234D
:1047900018461837BD4680BD080001000200010020
:1047A00080B584B000AFF860B9603B601346FB7120
:1047B00048E03B68B3F1FF3F44D0FEF761FC02469E
:1047C000BB69D31A3A689A4202D33B68002B39D1AD
:1047D000BB681B0CDBB2012B0DD1FB681B685B694E
:1047E000DA43BB6813409BB2002B0CBF01230023AC
:1047F000DBB21A460CE0FB681B689B69DA43BB68B6
:1048000013409BB2002B0CBF01230023DBB21A46DE
:10481000FB799A4216D1FB6800221A63FB682022BA
:1048200083F83D20FB68002283F83E20FB681B6C68
:1048300043F02002FB681A64FB68002283F83C20E6
:10484000012323E0BB681B0CDBB2012B0DD1FB68FD
:104850001B685B69DA43BB6813409BB2002B0CBF3B
:1048600001230023DBB21A460CE0FB681B689B693E
:10487000DA43BB6813409BB2002B0CBF012300231B
:10488000DBB21A46FB799A4293D0002318461037C0
:10489000BD4680BD80B584B000AFF860B9607A6075
:1048A0003B6071E0FB681B685B6903F48063B3F5F0
:1048B000806F23D1FB681B681A68FB681B6842F491
:1048C00000721A60FB681B686FF480625A61FB68B3
:1048D00000221A63FB68202283F83D20FB68002237
:1048E00083F83E20FB681B6C43F00402FB681A64EB
:1048F000FB68002283F83C20012367E07B68B3F16A
:10490000FF3F41D0FEF7BCFB02463B68D31A7A68F2
:104910009A4202D37B68002B36D1BB681B0CDBB2FA
:10492000012B0CD1FB681B685B69DA43BB68134041
:104930009BB2002B14BF01230023DBB20BE0FB680A
:104940001B689B69DA43BB6813409BB2002B14BF02
:1049500001230023DBB2002B16D0FB6800221A6370
:10496000FB68202283F83D20FB68002283F83E206C
:10497000FB681B6C43F02002FB681A64FB68002292
:1049800083F83C20012321E0BB681B0CDBB2012B28
:104990000CD1FB681B685B69DA43BB6813409BB2B0
:1049A000002B14BF01230023DBB20BE0FB681B6864
:1049B0009B69DA43BB6813409BB2002B14BF0123F1
:1049C0000023DBB2002B7FF46DAF002318461037B5
:1049D000BD4680BD80B584B000AFF860B9607A6034
:1049E00034E0F86800F0E3F80346002B01D001231F
:1049F00034E0BB68B3F1FF3F28D0FEF741FB02462D
:104A00007B68D31ABA689A4202D3BB68002B1DD1C7
:104A1000FB681B685B6903F08003802B16D0FB6882
:104A200000221A63FB68202283F83D20FB680022E5
:104A300083F83E20FB681B6C43F02002FB681A647D
:104A4000FB68002283F83C20012307E0FB681B6819
:104A50005B6903F08003802BC3D100231846103715
:104A6000BD4680BD80B584B000AFF860B9607A60A3
:104A700034E0F86800F09BF80346002B01D00123D6
:104A800034E0BB68B3F1FF3F28D0FEF7F9FA0246E5
:104A90007B68D31ABA689A4202D3BB68002B1DD137
:104AA000FB681B685B6903F00403042B16D0FB68EA
:104AB00000221A63FB68202283F83D20FB68002255
:104AC00083F83E20FB681B6C43F02002FB681A64ED
:104AD000FB68002283F83C20012307E0FB681B6889
:104AE0005B6903F00403042BC3D10023184610377D
:104AF000BD4680BD80B584B000AFF860B9607A6013
:104B000049E0FB681B685B6903F01003102B19D1A7
:104B1000FB681B686FF010025A61FB6800221A6381
:104B2000FB68202283F83D20FB68002283F83E20AA
:104B3000FB681A6CFB681A64FB68002283F83C204F
:104B4000012330E0FEF79CFA02467B68D31ABA686C
:104B50009A4202D3BB68002B1DD1FB681B685B69BE
:104B600003F04003402B16D0FB6800221A63FB6859
:104B7000202283F83D20FB68002283F83E20FB685A
:104B80001B6C43F02002FB681A64FB68002283F868
:104B90003C20012307E0FB681B685B6903F04003CE
:104BA000402BAED1002318461037BD4680BD80B4DF
:104BB00083B000AF78607B681B685B6903F4806337
:104BC000B3F5806F1BD17B681B686FF480625A61FC
:104BD0007B6800221A637B68202283F83D207B6873
:104BE000002283F83E207B681B6C43F004027B6844
:104BF0001A647B68002283F83C20012300E0002334
:104C000018460C37BD4680BC7047000080B586B0A2
:104C100000AF78607B68002B01D1012372E27B68D2
:104C20001B6803F00103002B00F08780924B5B6848
:104C300003F00C03042B0CD08F4B5B6803F00C03C8
:104C4000082B12D18C4B5B6803F48033B3F5803FA3
:104C50000BD1894B1B6803F40033002B6CD07B68AD
:104C60005B68002B68D101234CE27B685B68B3F57D
:104C7000803F06D1804B1B687F4A43F4803313602A
:104C80002EE07B685B68002B0CD17B4B1B687A4A5B
:104C900023F480331360784B1B68774A23F4802316
:104CA00013601DE07B685B68B3F5A02F0CD1724BDD
:104CB0001B68714A43F4802313606F4B1B686E4A74
:104CC00043F4803313600BE06B4B1B686A4A23F498
:104CD00080331360684B1B68674A23F4802313609A
:104CE0007B685B68002B13D0FEF7CAF9386108E0D7
:104CF000FEF7C6F902463B69D31A642B01D9032398
:104D000000E25D4B1B6803F40033002BF0D014E08D
:104D1000FEF7B6F9386108E0FEF7B2F902463B69E2
:104D2000D31A642B01D90323ECE1534B1B6803F422
:104D30000033002BF0D100E000BF7B681B6803F05C
:104D40000203002B63D04C4B5B6803F00C03002B79
:104D50000BD0494B5B6803F00C03082B1CD1464B6E
:104D60005B6803F48033002B16D1434B1B6803F0C0
:104D70000203002B05D07B681B69012B01D00123A6
:104D8000C0E13D4B1B6823F0F8027B685B69DB00E8
:104D9000394913430B603AE07B681B69002B20D034
:104DA000364B01221A60FEF76BF9386108E0FEF716
:104DB00067F902463B69D31A022B01D90323A1E10B
:104DC0002D4B1B6803F00203002BF0D02A4B1B680D
:104DD00023F0F8027B685B69DB00274913430B6013
:104DE00015E0264B00221A60FEF74AF9386108E008
:104DF000FEF746F902463B69D31A022B01D9032379
:104E000080E11D4B1B6803F00203002BF0D17B688F
:104E10001B6803F00803002B3AD07B689B69002BCA
:104E200019D0174B01221A60FEF72AF9386108E001
:104E3000FEF726F902463B69D31A022B01D9032358
:104E400060E10D4B5B6A03F00203002BF0D0012000
:104E500000F0CEFA1CE00A4B00221A60FEF710F9AF
:104E600038610FE0FEF70CF902463B69D31A022BBA
:104E700008D9032346E100BF00100240000042426F
:104E800080044242924B5B6A03F00203002BE9D19B
:104E90007B681B6803F00403002B00F0A68000234E
:104EA000FB758B4BDB6903F08053002B0DD1884BD6
:104EB000DB69874A43F08053D361854BDB6903F09C
:104EC0008053BB60BB680123FB75824B1B6803F4F6
:104ED0008073002B18D17F4B1B687E4A43F480738C
:104EE0001360FEF7CDF8386108E0FEF7C9F8024616
:104EF0003B69D31A642B01D9032303E1754B1B686B
:104F000003F48073002BF0D07B68DB68012B06D1A3
:104F10006F4B1B6A6E4A43F0010313622DE07B68FE
:104F2000DB68002B0CD16A4B1B6A694A23F0010332
:104F30001362674B1B6A664A23F0040313621CE08A
:104F40007B68DB68052B0CD1614B1B6A604A43F020
:104F5000040313625E4B1B6A5D4A43F00103136254
:104F60000BE05B4B1B6A5A4A23F001031362584B58
:104F70001B6A574A23F0040313627B68DB68002B2B
:104F800015D0FEF77DF838610AE0FEF779F80246A1
:104F90003B69D31A41F28832934201D90323B1E02D
:104FA0004B4B1B6A03F00203002BEED014E0FEF71C
:104FB00067F838610AE0FEF763F802463B69D31AE6
:104FC00041F28832934201D903239BE0404B1B6A94
:104FD00003F00203002BEED1FB7D012B05D13C4BEE
:104FE000DB693B4A23F08053D3617B68DB69002B8C
:104FF00000F08780364B5B6803F00C03082B61D010
:105000007B68DB69022B46D1334B00221A60FEF726
:1050100037F8386108E0FEF733F802463B69D31AE7
:10502000022B01D903236DE0294B1B6803F00073A9
:10503000002BF0D17B681B6AB3F5803F08D1244B6D
:105040005B6823F400327B689B68214913434B6003
:105050001F4B5B6823F474127B68196A7B685B6A78
:105060000B431B4913434B601B4B01221A60FEF795
:1050700007F8386108E0FEF703F802463B69D31AE7
:10508000022B01D903233DE0114B1B6803F0007391
:10509000002BF0D035E0104B00221A60FDF7F0FF36
:1050A000386108E0FDF7ECFF02463B69D31A022B9A
:1050B00001D9032326E0064B1B6803F00073002B85
:1050C000F0D11EE07B68DB69012B07D1012319E0D9
:1050D0000010024000700040600042420B4B5B68D1
:1050E000FB60FB6803F480327B681B6A9A4206D13E
:1050F000FB6803F470127B685B6A9A4201D001235B
:1051000000E0002318461837BD4680BD001002405D
:1051100080B584B000AF786039607B68002B01D126
:105120000123D0E06A4B1B6803F007033A689A42F8
:1051300010D9674B1B6823F0070265493B6813438E
:105140000B60634B1B6803F007033A689A4201D077
:105150000123B8E07B681B6803F00203002B20D01A
:105160007B681B6803F00403002B05D0594B5B6878
:10517000584A43F4E06353607B681B6803F00803FC
:10518000002B05D0534B5B68524A43F46053536085
:10519000504B5B6823F0F0027B689B684D491343DA
:1051A0004B607B681B6803F00103002B40D07B68D9
:1051B0005B68012B07D1474B1B6803F40033002BBE
:1051C00015D101237FE07B685B68022B07D1414B3F
:1051D0001B6803F00073002B09D1012373E03D4BE2
:1051E0001B6803F00203002B01D101236BE0394B54
:1051F0005B6823F003027B685B68364913434B60AE
:10520000FDF73EFFF8600AE0FDF73AFF0246FB6853
:10521000D31A41F28832934201D9032353E02D4B34
:105220005B6803F00C027B685B689B009A42EBD1E1
:10523000274B1B6803F007033A689A4210D2244BAD
:105240001B6823F0070222493B6813430B60204B85
:105250001B6803F007033A689A4201D0012332E049
:105260007B681B6803F00403002B08D0194B5B68B4
:1052700023F4E0627B68DB68164913434B607B686C
:105280001B6803F00803002B09D0124B5B6823F462
:1052900060527B681B69DB000E4913434B6000F0D2
:1052A00021F802460B4B5B681B0903F00F030A4908
:1052B000CB5C22FA03F3094A1360094B1B681846BA
:1052C000FDF79CFE002318461037BD4680BD00BF89
:1052D00000200240001002402C7300080000002053
:1052E0000400002080B487B000AF0023FB600023DF
:1052F000BB6000237B6100237B6000233B611E4B6E
:105300005B68FB60FB6803F00C03042B02D0082BE6
:1053100003D027E0194B3B6127E0FB689B0C03F0AF
:105320000F03174AD35C7B60FB6803F48033002BC8
:1053300010D0114B5B685B0C03F00103114AD35C86
:10534000BB607B680D4A03FB02F2BB68B2FBF3F360
:105350007B6104E07B680C4A02FB03F37B617B69A1
:105360003B6102E0054B3B6100BF3B6918461C37BF
:10537000BD4680BC704700BF0010024000127A009A
:10538000447300085473000800093D0080B400AF66
:10539000024B1B681846BD4680BC704700000020C9
:1053A00080B500AFFFF7F2FF0246054B5B681B0AB2
:1053B00003F007030349CB5C22FA03F3184680BDD0
:1053C000001002403C73000880B500AFFFF7DEFF1D
:1053D0000246054B5B68DB0A03F007030349CB5C1D
:1053E00022FA03F3184680BD001002403C73000807
:1053F00080B485B000AF78600A4B1B680A4AA2FBF4
:1054000003235B0A7A6802FB03F3FB6000BFFB68BF
:105410005A1EFA60002BF9D100BF00BF1437BD46F9
:1054200080BC704700000020D34D621080B582B070
:1054300000AF78607B68002B01D1012342E07B68DC
:1054400093F84130DBB2002B06D17B68002283F851
:1054500040207868FDF75EFC7B68242283F84120B9
:105460007B681B68DA687B681B6822F40052DA608C
:10547000786800F0C3FD7B681B681A697B681B684D
:1054800022F490421A617B681B685A697B681B682A
:1054900022F02A025A617B681B68DA687B681B6805
:1054A00042F40052DA607B6800225A647B68202252
:1054B00083F841207B68202283F842207B68002209
:1054C0005A63002318460837BD4680BD80B58CB0AE
:1054D00000AFF860B9601346FB80FB6893F8413079
:1054E000DBB2202B56D1BB68002B02D0FB88002BEF
:1054F00001D101234FE0BA68FB681A62FB68FA88A1
:105500009A84FB68FA88DA84FB6800225A64FB6894
:10551000212283F84120FB689B6B214A9A62FB6839
:105520009B6B204ADA62FB689B6B1F4A1A63FB681D
:105530009B6B00225A6307F10803FB62FB68986BC0
:10554000FB6A1968FB681B6804331A46FB88FDF781
:1055500009FFFB681B686FF040021A60FB681B685C
:105560001433BB61BB6953E8003F7B617B6943F047
:105570008003BB62FB681B681433BA6A7A623B62C1
:10558000396A7A6A41E80023FB61FB69002BE5D1A7
:10559000002300E0022318463037BD4680BD00BF1F
:1055A0002F5B0008C95B0008E55B000880B5BAB056
:1055B00000AF78607B681B681B68C7F8E4307B68C5
:1055C0001B68DB68C7F8E0307B681B685B69C7F85D
:1055D000DC300023C7F8D8300023C7F8D430D7F820
:1055E000E43003F00F03C7F8D830D7F8D830002BD9
:1055F0000FD1D7F8E43003F02003002B09D0D7F8FF
:10560000E03003F02003002B03D0786800F038FC72
:105610005BE2D7F8D830002B00F0DE80D7F8DC3022
:1056200003F00103002B06D1D7F8E03003F49073A8
:10563000002B00F0D180D7F8E43003F00103002BF9
:105640000BD0D7F8E03003F48073002B05D07B68D3
:105650005B6C43F001027B685A64D7F8E43003F0D6
:105660000403002B0BD0D7F8DC3003F00103002B30
:1056700005D07B685B6C43F002027B685A64D7F804
:10568000E43003F00203002B0BD0D7F8DC3003F03A
:105690000103002B05D07B685B6C43F004027B6840
:1056A0005A64D7F8E43003F00803002B11D0D7F880
:1056B000E03003F02003002B05D1D7F8DC3003F0F5
:1056C0000103002B05D07B685B6C43F008027B680C
:1056D0005A647B685B6C002B00F0F281D7F8E430F1
:1056E00003F02003002B08D0D7F8E03003F02003AC
:1056F000002B02D0786800F0C3FB7B681B685B69F5
:1057000003F04003002B14BF01230023DBB2C7F8D2
:10571000D4307B685B6C03F00803002B03D1D7F80F
:10572000D430002B4FD0786800F0CDFA7B681B682E
:105730005B6903F04003002B41D07B681B68143386
:10574000C7F89C30D7F89C3053E8003FC7F8983032
:10575000D7F8983023F04003C7F8D0307B681B6837
:105760001433D7F8D020C7F8A820C7F8A430D7F84A
:10577000A410D7F8A82041E80023C7F8A030D7F834
:10578000A030002BD9D17B68DB6B002B13D07B685A
:10579000DB6B7E4A5A637B68DB6B1846FDF77EFE47
:1057A0000346002B16D07B68DB6B5B6B7A68D26B91
:1057B000104698470EE0786800F0A5F90AE078688E
:1057C00000F0A1F906E0786800F09DF97B680022FE
:1057D0005A6475E100BF73E17B681B6B012B40F0DD
:1057E0004F81D7F8E43003F01003002B00F048811C
:1057F000D7F8E03003F01003002B00F041810023C4
:10580000BB607B681B681B68BB607B681B685B6850
:10581000BB60BB687B681B685B6903F04003002BBF
:1058200000F0B6807B68DB6B1B685B68A7F8BE3056
:10583000B7F8BE30002B00F045817B689B8DB7F830
:10584000BE209A4280F03E817B68B7F8BE20DA85A0
:105850007B68DB6B9B69202B00F088807B681B6872
:105860000C33C7F88830D7F8883053E8003FC7F8C2
:105870008430D7F8843023F48073C7F8B8307B685D
:105880001B680C33D7F8B820C7F89420C7F89030BD
:10589000D7F89010D7F8942041E80023C7F88C304F
:1058A000D7F88C30002BD9D17B681B6814337B6709
:1058B0007B6F53E8003F3B673B6F23F00103C7F862
:1058C000B4307B681B681433D7F8B420C7F8802045
:1058D000FB67F96FD7F8802041E80023BB67BB6FF7
:1058E000002BE1D17B681B6814333B663B6E53E8A9
:1058F000003FFB65FB6D23F04003C7F8B0307B68C9
:105900001B681433D7F8B020FA66BB66B96EFA6E1E
:1059100041E800237B667B6E002BE3D17B6820226D
:1059200083F842207B6800221A637B681B680C3373
:10593000FB64FB6C53E8003FBB64BB6C23F01003BB
:10594000C7F8AC307B681B680C33D7F8AC20BA655D
:105950007B65796DBA6D41E800233B653B6D002B9B
:10596000E3D17B68DB6B1846FDF75CFD7B680222A8
:105970005A637B689A8D7B68DB8D9BB2D31A9BB28E
:105980001946786800F0C8F89CE000BF8B5D0008FD
:105990007B689A8D7B68DB8D9BB2D31AA7F8CE30DB
:1059A0007B68DB8D9BB2002B00F08E80B7F8CE3089
:1059B000002B00F089807B681B680C33BB63BB6BDA
:1059C00053E8003F7B637B6B23F49073C7F8C830C8
:1059D0007B681B680C33D7F8C8207A643B64396C49
:1059E0007A6C41E80023FB63FB6B002BE3D17B68FF
:1059F0001B6814337B627B6A53E8003F3B623B6A5F
:105A000023F00103C7F8C4307B681B681433D7F850
:105A1000C4203A63FB62F96A3A6B41E80023BB6237
:105A2000BB6A002BE3D17B68202283F842207B688D
:105A300000221A637B681B680C333B613B6953E8A7
:105A4000003FFB60FB6823F01003C7F8C0307B68A1
:105A50001B680C33D7F8C020FA61BB61B969FA69D9
:105A600041E800237B617B69002BE3D17B68022244
:105A70005A63B7F8CE301946786800F04DF823E045
:105A8000D7F8E43003F08003002B09D0D7F8E030DA
:105A900003F08003002B03D0786800F08AF914E04B
:105AA000D7F8E43003F04003002B0ED0D7F8E030F5
:105AB00003F04003002B08D0786800F0C9F904E037
:105AC00000BF02E000BF00E000BFE837BD4680BD78
:105AD00080B483B000AF786000BF0C37BD4680BC97
