:020000040800F2
:100000000050002051160008B9150008BF1500085F
:10001000C5150008CB150008D11500080000000028
:10002000000000000000000000000000D7150008DC
:10003000E315000800000000EF150008FB1500089C
:1000400099160008991600089916000899160008D4
:1000500099160008991600083D090008590900087A
:100060007509000891090008AD09000899160008F3
:100070009916000899160008091600081D160008B0
:100080009916000899160008991600089916000894
:10009000991600089916000899160008C909000861
:1000A0009916000899160008991600089916000874
:1000B0009916000899160008991600089916000864
:1000C0009916000899160008991600089916000854
:1000D00099160008311600089916000899160008AC
:1000E000550A00089916000899160008000000003B
:1000F0000000000000000000000000000000000000
:0C01000000000000000000005FF808F1A3
:10010C0010B5054C237833B9044B13B10448AFF345
:10011C0000800123237010BD0C00002000000000A3
:10012C00D837000808B5034B1BB103490348AFF39C
:10013C00008008BD0000000010000020D837000827
:10014C0080B584B000AF0346FB710023FB7315E050
:10015C00FB7923F07F03DBB219460C4800F0DCFF7F
:10016C0001210B4800F0D8FF0021094800F0D4FF12
:10017C00FB795B00FB71FB7B0133FB73FB7B072B78
:10018C00E6D900BF00BF1037BD4680BD2C00002053
:10019C004C00002080B584B000AF78607B68997803
:1001AC007B681A880123274800F086FF0346FB73FF
:1001BC00FB7B002B07D0FB7B4E222349184600F01B
:1001CC0073F8034639E07B6899797B689A88012338
:1001DC001E4800F071FF0346FB73FB7B002B07D01E
:1001EC00FB7B50221849184600F05EF8034624E0C9
:1001FC007B68997A7B681A890123154800F05CFFAB
:10020C000346FB73FB7B002B07D0FB7B52220E4972
:10021C00184600F049F803460FE001210C4800F0A5
:10022C007BFF0021094800F077FF0021054800F012
:10023C0073FF084B01221A70002318461037BD4675
:10024C0080BD00BF2C000020F03700084C000020BF
:10025C006C0000202800002080B582B000AF03465F
:10026C00FB710F4B1B78002B16D00E4B1B6C0D4AE1
:10027C00B2F85C100022184601F0C4FFFB79184656
:10028C00FFF75EFF074B1B6C064AB2F85C100122AD
:10029C00184601F0B7FF00E000BF0837BD4680BD2F
:1002AC00280000202C00002080B584B000AF03464D
:1002BC00B9607A60FB73FB7B002B01D1002306E055
:1002CC00F97B7B68BA68044800F076F9FB7B18462A
:1002DC001037BD4680BD00BF0838000880B586B019
:1002EC0002AFF860B9607A60114B1B780133DAB257
:1002FC000F4B1A700E4B1B78632B02D80C4B6422DD
:10030C001A700B4B1B78C72B02D9094B64221A703D
:10031C00074B1B7819467B680093BB68FA68054845
:10032C0000F04AF9024B1B7818461037BD4680BDC9
:10033C00290000201C38000880B582B000AF0346AD
:10034C00FB71FB791F2B2AD87E20FFF785FFFB79E9
:10035C009F2B05D9FB791B09DBB23733DBB204E0E9
:10036C00FB791B09DBB23033DBB21846FFF774FFA5
:10037C00FB7903F00F03DBB2092B06D9FB7903F0F1
:10038C000F03DBB23733DBB205E0FB7903F00F036D
:10039C00DBB23033DBB21846FFF75EFF03E0FB79CC
:1003AC001846FFF759FF00BF0837BD4680BD80B522
:1003BC0084B000AF78600023FB6009E0FB687A68CA
:1003CC0013441B781846FFF747FFFB680133FB60AB
:1003DC00FB687A6813441B78002BEFD100BF00BF79
:1003EC001037BD4680BD000080B586B000AF786088
:1003FC000B46FB700023FB757B68002B03D1302070
:10040C00FFF72AFF3AE0FB78642B22D17B68002BA4
:10041C001FDA2D20FFF720FF7B685B427B6018E022
:10042C007968184BA3FB0123DA0813469B0013448D
:10043C005B00CA1AFB7DD2B218333B4403F80C2C78
:10044C007B68104AA2FB0323DB087B60FB7D013336
:10045C00FB757B68002BE3D10DE0FB7D013B183372
:10046C003B4413F80C3C3033DBB21846FFF7F4FE78
:10047C00FB7D013BFB75FB7D002BEED11837BD4698
:10048C0080BD00BFCDCCCCCC80B584B000AF786043
:10049C000B46FB700023FB600023FB727B68002B78
:1004AC0012D13020FFF7D8FE3AE0FB681B01FB604D
:1004BC007B6803F00F03FA681344FB607B681B092D
:1004CC007B60FB7A0133FB727B68002BEDD124E05F
:1004DC00FB68DBB203F00F03BB72BB7A092B06D8A7
:1004EC00BB7A3033DBB21846FFF7B6FE0FE0FB7871
:1004FC00582B06D1BB7A3733DBB21846FFF7ACFE6C
:10050C0005E0BB7A5733DBB21846FFF7A5FEFB6854
:10051C001B09FB60FB7A013BFB72FB7A002BD7D1EA
:10052C001037BD4680BD80B584B000AF78600B46F7
:10053C00FB700023FB600023BB72FB78422B02D1C3
:10054C002023BB7201E00823BB720023FB7210E076
:10055C00FB685B00FB607B6803F00103002B02D09F
:10056C00FB680133FB607B685B087B60FB7A0133C3
:10057C00FB72FA7ABB7A9A42EAD30023FB7211E03F
:10058C00FB6803F00103002B03D03120FFF764FE5E
:10059C0002E03020FFF760FEFB685B08FB60FB7A33
:1005AC000133FB72FA7ABB7A9A42E9D300BF00BFDF
:1005BC001037BD4680BD00000FB480B592B000AFBF
:1005CC0000237B6407F154037B6081E17B6C3A6D03
:1005DC0013441B78252B0AD07B6C3A6D13441B7883
:1005EC001846FFF739FE7B6C01337B6470E17B6C42
:1005FC0001333A6D13441B78002B00F069817B6C3E
:10060C0001333A6D13441B78423B362B00F25D816B
:10061C0001A252F823F000BF8D070008D70800088C
:10062C00D7080008D7080008D7080008D708000822
:10063C00D7080008D7080008D7080008D708000812
:10064C00D708000843080008D7080008D708000896
:10065C00D7080008D7080008D7080008D7080008F2
:10066C00D7080008D7080008D7080008D7080008E2
:10067C0065070008D7080008D7080008D708000845
:10068C00D7080008D7080008D7080008D7080008C2
:10069C00D7080008D7080008790700083D070008AC
:1006AC0001070008D7080008D7080008D708000879
:1006BC00D7080008D7080008D7080008D708000892
:1006CC00D7080008A1070008D7080008D7080008B9
:1006DC0083080008D7080008D70800082B07000873
:1006EC00D708000817070008D7080008D708000823
:1006FC00510700087B681A1D7A601B683B623B6AD5
:10070C0064211846FFF770FEDFE07B681A1D7A60E3
:10071C001B687B637521786BFFF766FED5E07B6801
:10072C001A1D7A601B683B63386BFFF740FECCE008
:10073C007B681A1D7A601B68FB77FB7F1846FFF7F6
:10074C00FBFDC2E07B681A1D7A601B68BB637821D5
:10075C00B86BFFF799FEB8E07B681A1D7A601B68CE
:10076C007B6158217869FFF78FFEAEE07B681A1D1C
:10077C007A601B68BB616221B869FFF7D4FEA4E004
:10078C007B681A1D7A601B68BB604221B868FFF752
:10079C00CAFE9AE07B681A1D7A601B68BB627B6894
:1007AC001A1D7A601B68FB8400233B643EE03B6CA3
:1007BC00BA6A13441B789F2B08D93B6CBA6A134452
:1007CC001B781B09DBB23733DBB207E03B6CBA6A30
:1007DC0013441B781B09DBB23033DBB21846FFF72E
:1007EC003BFD3B6CBA6A13441B7803F00F03DBB27E
:1007FC00092B09D93B6CBA6A13441B7803F00F031D
:10080C00DBB23733DBB208E03B6CBA6A13441B78BB
:10081C0003F00F03DBB23033DBB21846FFF71CFDDD
:10082C002020FFF719FD3B6C01333B64FB8C3A6CC9
:10083C009A42BCDB49E07B681A1D7A601B683B61FD
:10084C007B681A1D7A601B68FB810023FB630DE03B
:10085C00FB6B3A6913441B7875211846FFF7C4FDEE
:10086C002020FFF7F9FCFB6B0133FB63FB89FA6B70
:10087C009A42EDDB29E07B681A1D7A601B68FB62EB
:10088C00FB6A1B7875211846FFF7AEFD2E20FFF78B
:10089C00E3FCFB6A01331B7875211846FFF7A4FDB6
:1008AC002E20FFF7D9FCFB6A02331B787521184602
:1008BC00FFF79AFD2E20FFF7CFFCFB6A03331B7862
:1008CC0075211846FFF790FD00BF7B6C02337B64EB
:1008DC007B6C3A6D13441B78002B7FF477AE00BF12
:1008EC0000BF4837BD46BDE8804004B0704700BF2C
:1008FC0080B483B000AF786039607B681A783B684D
:10090C001A707B685A683B685A607B689A683B68C7
:10091C009A607B681A693B681A613B6800221A73FB
:10092C003B6800225A7300BF0C37BD4680BC704731
:10093C0080B500AF034B1B689847034B01225A61EB
:10094C0000BF80BD8C0000200004014080B500AFCA
:10095C00034B5B689847034B02225A6100BF80BD72
:10096C008C0000200004014080B500AF034B9B6855
:10097C009847034B04225A6100BF80BD8C000020B5
:10098C000004014080B500AF034BDB689847034B74
:10099C0008225A6100BF80BD8C0000200004014079
:1009AC0080B500AF034B1B699847034B10225A616B
:1009BC0000BF80BD8C0000200004014080B500AF5A
:1009CC001F4B5B6903F02003002B05D01D4B5B69AB
:1009DC0098471B4B20225A61194B5B6903F040036B
:1009EC00002B05D0174B9B699847154B40225A6139
:1009FC00134B5B6903F08003002B05D0114BDB69B3
:100A0C0098470F4B80225A610D4B5B6903F480733E
:100A1C00002B06D00B4B1B6A9847094B4FF4807286
:100A2C005A61074B5B6903F40073002B06D0054B2E
:100A3C005B6A9847024B4FF400725A6100BF80BD4D
:100A4C00000401408C00002080B500AF274B5B698F
:100A5C0003F48063002B06D0254B9B6A9847234BED
:100A6C004FF480625A61214B5B6903F40063002BE5
:100A7C0006D01F4BDB6A98471C4B4FF400625A613F
:100A8C001A4B5B6903F48053002B06D0184B1B6B7D
:100A9C009847164B4FF480525A61144B5B6903F420
:100AAC000053002B06D0124B5B6B98470F4B4FF447
:100ABC0000525A610D4B5B6903F48043002B06D046
:100ACC000B4B9B6B9847094B4FF480425A61074B79
:100ADC005B6903F40043002B06D0054BDB6B984796
:100AEC00024B4FF400425A6100BF80BD000401402C
:100AFC008C00002080B483B000AF0346FB71FB79FF
:100B0C00042B17D801A252F823F000BF2D0B0008BC
:100B1C00310B0008350B0008390B00083D0B0008A1
:100B2C00074B08E0074B06E0074B04E0074B02E0DD
:100B3C00074B00E0002318460C37BD4680BC7047BD
:100B4C0000080140000C014000100140001401405D
:100B5C000018014080B483B000AF0346FB80FB88D3
:100B6C0003F00103002B01D0002369E0FB8803F0A4
:100B7C000203002B01D0012362E0FB8803F0040385
:100B8C00002B01D002235BE0FB8803F00803002B51
:100B9C0001D0032354E0FB8803F01003002B01D099
:100BAC0004234DE0FB8803F02003002B01D0052328
:100BBC0046E0FB8803F04003002B01D006233FE006
:100BCC00FB8803F08003002B01D0072338E0FB885F
:100BDC0003F48073002B01D0082331E0FB8803F46D
:100BEC000073002B01D009232AE0FB8803F48063F7
:100BFC00002B01D00A2323E0FB8803F40063002BB5
:100C0C0001D00B231CE0FB8803F48053002B01D094
:100C1C000C2315E0FB8803F40053002B01D00D23AB
:100C2C000EE0FB8803F48043002B01D00E2307E079
:100C3C00B7F90630002B01DA0F2301E04FF0FF3338
:100C4C0018460C37BD4680BC7047000080B588B094
:100C5C0000AF0346FB71FB79042B4ED801A252F86E
:100C6C0023F000BF850C00089F0C0008B90C00088D
:100C7C00D30C0008ED0C0008254B9B69244A43F06B
:100C8C0004039361224B9B6903F00403FB61FB6932
:100C9C0038E01F4B9B691E4A43F0080393611C4BC1
:100CAC009B6903F00803BB61BB692BE0184B9B6984
:100CBC00174A43F010039361154B9B6903F0100323
:100CCC007B617B691EE0124B9B69114A43F0200348
:100CDC0093610F4B9B6903F020033B613B6911E06F
:100CEC000B4B9B690A4A43F040039361084B9B6989
:100CFC0003F04003FB60FB6804E0A42205490648AE
:100D0C00FFF7ECFA002318462037BD4680BD00BF24
:100D1C0000100240603800087838000880B582B0B6
:100D2C0000AF78600B46FB70FB780B2B59D801A2F7
:100D3C0052F823F0710D00089B0D0008710D00088E
:100D4C008D0D00087F0D00089B0D0008A90D0008F3
:100D5C00B70D0008C50D0008D30D0008B70D00082D
:100D6C00E10D00087B6800225A607B6800229A60C3
:100D7C003EE07B6800225A607B6801229A6037E073
:100D8C007B6800225A607B6802229A6030E07B68A4
:100D9C0001225A607B6800229A6029E07B6811224C
:100DAC005A607B6800229A6022E07B6800225A60BD
:100DBC007B6800229A601BE07B6802225A607B6889
:100DCC0000229A6014E07B6812225A607B68002231
:100DDC009A600DE07B6803225A607B6800229A605F
:100DEC0006E0E92205490648FFF778FA034600E0D9
:100DFC00002318460837BD4680BD00BF6038000888
:100E0C008838000880B582B000AF78600B46FB7064
:100E1C00FB78032B1AD801A252F823F0390E0008E4
:100E2C00410E0008490E0008510E00087B68032291
:100E3C00DA6012E07B680322DA600EE07B68012244
:100E4C00DA600AE07B680222DA6006E0F9220549E2
:100E5C000548FFF743FA034600E00023184608371D
:100E6C00BD4680BD60380008A038000880B588B049
:100E7C0000AF786039603A687B68043319461046D5
:100E8C00FFF736FD7B681B791846FFF733FE0246E9
:100E9C007B681A603B681A8B7B689A837B689B8B98
:100EAC00BB607B681B791846FFF7D0FE0346FB77C7
:100EBC00FB7F002B08D0FB7F40F2131278491846B9
:100ECC00FFF7F2F90346E7E03B689A7E07F1080367
:100EDC0011461846FFF722FF0346FB77FB7F002BDA
:100EEC0008D0FB7F4FF48B726D491846FFF7DCF985
:100EFC000346D1E03B68DA7E07F108031146184639
:100F0C00FFF780FF0346FB77FB7F002B08D0FB7FAE
:100F1C0040F2191262491846FFF7C6F90346BBE0C6
:100F2C003B681B6A002B13D03B681B7F032B0CD038
:100F3C00032B0EDC012B02D0022B03D009E0594B02
:100F4C00FB6006E0574BFB6003E0564BFB6000E098
:100F5C0000BF7B681B6807F108021146184600F0B9
:100F6C00CDFF7B689B68002B0ED07B689B681B6851
:100F7C00002B09D07B6859697B681B791A467B6802
:100F8C009B8B4948FFF718FB3B681B6A002B00F052
:100F9C0082807B689B8B1846FFF7DCFDB861BB69D0
:100FAC00002B07DA40F22F123D494048FFF796F923
:100FBC00034671E03B681A6A3D49BB6941F823203E
:100FCC00BB690F2B3ED801A252F823F01910000870
:100FDC0021100008291000083110000839100008F1
:100FEC004110000841100008411000084110000891
:100FFC004110000849100008491000084910000869
:10100C004910000849100008491000087B680622A6
:10101C009A7717E07B6807229A7713E07B6808229F
:10102C009A770FE07B6809229A770BE07B680A229B
:10103C009A7707E07B6817229A7703E07B6828226F
:10104C009A7700BF7B689B7F58B23B685B7F1B091C
:10105C00DBB203F00F013B685B7F03F00F031A4612
:10106C0000F073FC7B689B7F5BB2184600F089FC38
:10107C007B689B68002B0ED07B689B681B68002BE1
:10108C0009D07B6859697B681B791A467B689B7F02
:10109C000848FFF791FA002318462037BD4680BD5B
:1010AC006038000800001110B8380008D03800086B
:1010BC008C000020DC38000880B58CB000AF786064
:1010CC00084611461A460346FB700B463B801346F6
:1010DC00BB70FB783B730F4BFB6100233B61002320
:1010EC007B613B88BB84BB7887F82630002387F86C
:1010FC0027300023FB62002387F8283007F10C030C
:10110C0019467868FFF7B2FE034618463037BD46DD
:10111C0080BD00BFFC38000880B582B000AF78609D
:10112C000B46FB70FB78002B08D07B6818687B683B
:10113C009B8B0122194601F065F807E07B68186863
:10114C007B689B8B0022194601F05CF800BF0837C6
:10115C00BD4680BD80B590B000AF00F099FA00F0AC
:10116C0071F800F005F900F0DDF800F0B1F800239B
:10117C0087F83630002387F83A30002387F83E3062
:10118C000123BB8602233B870423BB8707F134036F
:10119C001846FEF7FFFF2648FFF70EFA40F2B5633C
:1011AC003B6340F6AB63FB62224BBB624DF6031311
:1011BC007B6241F661633B62AA237B603B6BBB6045
:1011CC00FB6AFB60BB6A3B617B6A7B613B6ABB6110
:1011DC005523FB61184BAA221A703B6B164AC2F8B6
:1011EC000130FB6A144AC2F80530BB6A124AC2F8D5
:1011FC0009307B6A104AC2F80D303B6A0E4AC2F8BD
:10120C0011300D4B55225A754FF400510B4801F01B
:10121C0011F84FF47A7000F09DFA1622064908482E
:10122C0001F082FC4FF47A7000F094FAECE700BF06
:10123C0020390008E02202009C010020001001402F
:10124C00CC00002080B590B000AF07F11803282225
:10125C000021184602F0B2FA3B1D00221A605A60B7
:10126C009A60DA601A610123BB614FF48033FB6131
:10127C0000233B620123BB6202237B634FF4803368
:10128C00BB634FF4E013FB6307F11803184600F03F
:10129C00EBFF0346002B01D000F0B6F80F237B6068
:1012AC000223BB600023FB604FF480633B6100238F
:1012BC007B613B1D0221184601F058FA0346002BB6
:1012CC0001D000F0A1F800BF4037BD4680BD000042
:1012DC0080B500AF114B124A1A60104B4FF4E1323B
:1012EC005A600E4B00229A600C4B0022DA600B4BBA
:1012FC0000221A61094B0C225A61084B00229A6198
:10130C00064B0022DA61054801F0BEFB0346002BB8
:10131C0001D000F079F800BF80BD00BFCC000020E8
:10132C000038014080B582B000AF104B5B690F4AAA
:10133C0043F0010353610D4B5B6903F001037B60C8
:10134C007B68002200210E2000F0FFFA0E2000F036
:10135C0018FB002200210F2000F0F7FA0F2000F0FC
:10136C0010FB00BF0837BD4680BD00BF0010024017
:10137C0080B588B000AF07F1100300221A605A60E4
:10138C009A60DA601E4B9B691D4A43F0100393610F
:10139C001B4B9B6903F01003FB60FB68184B9B69AC
:1013AC00174A43F020039361154B9B6903F020030C
:1013BC00BB60BB68124B9B69114A43F004039361F9
:1013CC000F4B9B6903F004037B607B6800224FF496
:1013DC0000510C4800F016FF4FF400533B61012301
:1013EC007B610023BB610223FB6107F110031946EB
:1013FC00044800F083FD00BF2037BD4680BD00BF10
:10140C00001002400010014080B400AF72B600BF63
:10141C00FEE7000080B483B000AF0E4B9B690D4A11
:10142C0043F0010393610B4B9B6903F001037B6059
:10143C007B68084BDB69074A43F08053D361054B4B
:10144C00DB6903F080533B603B6800BF0C37BD4643
:10145C0080BC70470010024080B588B000AF786047
:10146C0007F1100300221A605A609A60DA607B68F8
:10147C001B68474A934240F08680464B9B69454A1D
:10148C0043F480439361434B9B6903F48043FB60BB
:10149C00FB68404B9B693F4A43F0040393613D4B0F
:1014AC009B6903F00403BB60BB684FF400733B61A2
:1014BC0002237B610323FB6107F1100319463648B5
:1014CC0000F01CFD4FF480633B6100237B61002323
:1014DC00BB6107F1100319462F4800F00FFD2F4B8D
:1014EC002F4A1A602D4B00225A602C4B00229A6016
:1014FC002A4B8022DA60294B00221A61274B0022EA
:10150C005A61264B00229A61244B0022DA6123484F
:10151C0000F052FA0346002B01D0FFF775FF7B68F1
:10152C001E4ADA631D4A7B6853621E4B1E4A1A60C0
:10153C001C4B10225A601B4B00229A60194B8022C4
:10154C00DA60184B00221A61164B00225A61154BB7
:10155C0000229A61134B0022DA61124800F02CFA37
:10156C000346002B01D0FFF74FFF7B680D4A9A63AF
:10157C000C4A7B68536200220021252000F0E5F91B
:10158C00252000F0FEF900BF2037BD4680BD00BF0E
:10159C0000380140001002400008014014010020F6
:1015AC0058000240580100204400024080B400AFB3
:1015BC00FEE780B400AFFEE780B400AFFEE780B476
:1015CC0000AFFEE780B400AFFEE780B400AF00BF11
:1015DC00BD4680BC704780B400AF00BFBD4680BC28
:1015EC00704780B400AF00BFBD4680BC704780B56B
:1015FC0000AF00F093F800BF80BD000080B500AFD5
:10160C00024800F047FB00BF80BD00BF580100201E
:10161C0080B500AF024800F03DFB00BF80BD00BFAD
:10162C001401002080B500AF024801F0EDFA00BFB4
:10163C0080BD00BFCC00002080B400AF00BFBD4611
:10164C0080BC7047FFF7F8FF0B480C490C4A00238D
:10165C0002E0D458C4500433C4188C42F9D3094A5C
:10166C00094C002301E013600432A242FBD302F0C8
:10167C0081F8FFF76FFD7047000000200C00002080
:10168C00883900080C00002020020020FEE7000032
:10169C0080B500AF084B1B68074A43F0100313607A
:1016AC00032000F047F90F2000F008F8FFF7B2FE16
:1016BC000023184680BD00BF0020024080B582B0D8
:1016CC0000AF7860124B1A68124B1B7819464FF416
:1016DC007A73B3FBF1F3B2FBF3F3184600F05FF946
:1016EC000346002B01D001230EE07B680F2B0AD898
:1016FC00002279684FF0FF3000F027F9064A7B682A
:10170C001360002300E0012318460837BD4680BD56
:10171C0000000020080000200400002080B400AF6E
:10172C00054B1B781A46054B1B681344034A136080
:10173C0000BFBD4680BC7047080000201C02002082
:10174C0080B400AF024B1B681846BD4680BC704786
:10175C001C02002080B584B000AF7860FFF7F0FF6A
:10176C00B8607B68FB60FB68B3F1FF3F05D00A4BA8
:10177C001B781A46FB681344FB6000BFFFF7E0FFC1
:10178C000246BB68D31AFA689A42F7D800BF00BF6A
:10179C001037BD4680BD00BF0800002080B485B066
:1017AC0000AF78607B6803F00703FB600C4BDB68D1
:1017BC00BB60BA684FF6FF031340BB60FB681A02AC
:1017CC00BB68134343F0BF6343F40033BB60044A6C
:1017DC00BB68D36000BF1437BD4680BC704700BFE8
:1017EC0000ED00E080B400AF044BDB681B0A03F093
:1017FC0007031846BD4680BC704700BF00ED00E0F3
:10180C0080B483B000AF0346FB7197F90730002B0F
:10181C000BDBFB7903F01F02064997F907305B09D4
:10182C00012000FA02F241F8232000BF0C37BD461C
:10183C0080BC704700E100E080B483B000AF034689
:10184C003960FB7197F90730002B0ADB3B68DAB281
:10185C000C4997F907301201D2B20B4483F80023DC
:10186C000AE03B68DAB20849FB7903F00F03043B4A
:10187C001201D2B20B441A7600BF0C37BD4680BCA5
:10188C00704700BF00E100E000ED00E080B489B0DB
:10189C0000AFF860B9607A60FB6803F00703FB6186
:1018AC00FB69C3F10703042B28BF0423BB61FB694D
:1018BC000433062B02D9FB69033B00E000237B6158
:1018CC004FF0FF32BB6902FA03F3DA43BB681A40EC
:1018DC007B699A404FF0FF317B6901FA03F3D943DE
:1018EC007B680B40134318462437BD4680BC7047B9
:1018FC0080B582B000AF78607B68013BB3F1807F2C
:10190C0001D301230FE00A4A7B68013B53600F218E
:10191C004FF0FF30FFF790FF054B00229A60044B0D
:10192C0007221A60002318460837BD4680BD00BF49
:10193C0010E000E080B582B000AF78607868FFF707
:10194C002DFF00BF0837BD4680BD80B586B000AF07
:10195C000346B9607A60FB7300237B61FFF742FF9B
:10196C0078617A68B9687869FFF790FF024697F951
:10197C000F3011461846FFF75FFF00BF1837BD4602
:10198C0080BD80B582B000AF0346FB7197F907307C
:10199C001846FFF735FF00BF0837BD4680BD80B540
:1019AC0082B000AF78607868FFF7A2FF0346184654
:1019BC000837BD4680BD000080B485B000AF7860AC
:1019CC000023FB607B68002B01D1012343E07B6883
:1019DC001B681A46224B1344224AA2FB03231B0901
:1019EC009A007B681A647B681F4ADA637B68022260
:1019FC0083F821207B681B681B68FB60FB6823F461
:101A0C007F5323F03003FB607B685A687B689B68CC
:101A1C001A437B68DB681A437B681B691A437B6833
:101A2C005B691A437B689B691A437B68DB691343C8
:101A3C00FA681343FB607B681B68FA681A607B6862
:101A4C0000229A637B68012283F821207B680022A4
:101A5C0083F82020002318461437BD4680BC7047FD
:101A6C00F8FFFDBFCDCCCCCC0000024080B586B0D9
:101A7C0000AFF860B9607A603B600023FB75FB68CF
:101A8C0093F82030012B01D102234BE0FB6801229B
:101A9C0083F82020FB6893F82130DBB2012B3AD17C
:101AAC00FB68022283F82120FB6800229A63FB6802
:101ABC001B681A68FB681B6822F001021A603B68FD
:101ACC007A68B968F86800F0EBF9FB68DB6A002B00
:101ADC0008D0FB681B681A68FB681B6842F00E0292
:101AEC001A600FE0FB681B681A68FB681B6822F021
:101AFC0004021A60FB681B681A68FB681B6842F0DA
:101B0C000A021A60FB681B681A68FB681B6842F0C3
:101B1C0001021A6005E0FB68002283F820200223F2
:101B2C00FB75FB7D18461837BD4680BD80B485B06B
:101B3C0000AF78600023FB737B6893F82130DBB235
:101B4C00022B08D07B6804229A637B68002283F8FE
:101B5C002020012320E07B681B681A687B681B68C7
:101B6C0022F00E021A607B681B681A687B681B687F
:101B7C0022F001021A607B681A6C7B68DB6B012116
:101B8C0001FA02F25A607B68012283F821207B68FB
:101B9C00002283F82020FB7B18461437BD4680BCFE
:101BAC007047000080B584B000AF78600023FB73F1
:101BBC007B6893F82130DBB2022B05D07B680422C2
:101BCC009A630123FB7351E07B681B681A687B687E
:101BDC001B6822F00E021A607B681B681A687B680F
:101BEC001B6822F001021A607B681B68224A934230
:101BFC0029D07B681B68214A934222D07B681B68E2
:101C0C001F4A93421AD07B681B681E4A934212D01B
:101C1C007B681B681C4A93420AD07B681B681B4A72
:101C2C00934202D14FF480130EE04FF080730BE01F
:101C3C004FF4803308E04FF4805305E04FF4807389
:101C4C0002E0102300E00123114A53607B6801225B
:101C5C0083F821207B68002283F820207B685B6B53
:101C6C00002B03D07B685B6B78689847FB7B18462E
:101C7C001037BD4680BD00BF080002401C0002406A
:101C8C003000024044000240580002406C00024008
:101C9C000000024080B584B000AF78607B68DB6BDD
:101CAC001B68FB607B681B681B68BB607B681B6CDC
:101CBC0004229A40FB681340002B4FD0BB6803F002
:101CCC000403002B4AD07B681B681B6803F02003BD
:101CDC00002B07D17B681B681A687B681B6822F095
:101CEC0004021A607B681B68664A934229D07B68A1
:101CFC001B68654A934222D07B681B68634A9342F7
:101D0C001AD07B681B68624A934212D07B681B68AE
:101D1C00604A93420AD07B681B685F4A934202D1A7
:101D2C004FF480030EE04FF080630BE04FF4802300
:101D3C0008E04FF4804305E04FF4806302E0402359
:101D4C0000E00423554A53607B68DB6A002B00F0EB
:101D5C0094807B68DB6A786898478EE07B681B6CA4
:101D6C0002229A40FB681340002B56D0BB6803F04C
:101D7C000203002B51D07B681B681B6803F0200307
:101D8C00002B0BD17B681B681A687B681B6822F0E0
:101D9C000A021A607B68012283F821207B681B6889
:101DAC00384A934229D07B681B68374A934222D029
:101DBC007B681B68354A93421AD07B681B68344A8F
:101DCC00934212D07B681B68324A93420AD07B68DC
:101DDC001B68314A934202D14FF400130EE04FF0CE
:101DEC0000730BE04FF4003308E04FF4005305E0B0
:101DFC004FF4007302E0202300E00223274A5360D3
:101E0C007B68002283F820207B689B6A002B34D0EF
:101E1C007B689B6A786898472FE07B681B6C08226C
:101E2C009A40FB681340002B28D0BB6803F00803D2
:101E3C00002B23D07B681B681A687B681B6822F018
:101E4C000E021A607B681A6C7B68DB6B012101FA4D
:101E5C0002F25A607B6801229A637B68012283F844
:101E6C0021207B68002283F820207B681B6B002BD1
:101E7C0004D07B681B6B7868984700BF00BF103795
:101E8C00BD4680BD080002401C00024030000240EC
:101E9C0044000240580002406C0002400000024026
:101EAC0080B485B000AFF860B9607A603B60FB68C5
:101EBC001A6CFB68DB6B012101FA02F25A60FB68B9
:101ECC001B683A685A60FB685B68102B08D1FB688A
:101EDC001B687A689A60FB681B68BA68DA6007E06E
:101EEC00FB681B68BA689A60FB681B687A68DA60E2
:101EFC0000BF1437BD4680BC7047000080B48BB067
:101F0C0000AF7860396000237B6200233B6269E19B
:101F1C0001227B6A02FA03F3FB613B681B68FA69D6
:101F2C001340BB61BA69FB699A4240F058813B6827
:101F3C005B689A4A93425ED0984A934275D8984A05
:101F4C00934258D0964A93426FD8964A934252D0B5
:101F5C00944A934269D8944A93424CD0924A934201
:101F6C0063D8924A934246D0904A93425DD8122B42
:101F7C002AD8122B59D801A252F823F003200008BA
:101F8C00DD1F0008EF1F0008312000083720000873
:101F9C0037200008372000083720000837200008B9
:101FAC0037200008372000083720000837200008A9
:101FBC003720000837200008372000083720000899
:101FCC00E51F0008F91F0008794A934213D02CE052
:101FDC003B68DB683B6229E03B68DB6804333B62AF
:101FEC0024E03B68DB6808333B621FE03B68DB683E
:101FFC000C333B621AE03B689B68002B02D1042334
:10200C003B6213E03B689B68012B05D108233B62C4
:10201C007B68FA691A6109E008233B627B68FA69FC
:10202C005A6103E000233B6200E000BFBB69FF2B59
:10203C0001D87B6801E07B6804337B61BB69FF2BB3
:10204C0002D87B6A9B0002E07B6A083B9B003B61E9
:10205C007B691A680F213B6901FA03F3DB431A40D1
:10206C00396A3B6901FA03F31A437B691A603B68CE
:10207C005B6803F08053002B00F0B1804D4B9B69E3
:10208C004C4A43F0010393614A4B9B6903F00103F3
:10209C00BB60BB68484A7B6A9B08023352F823300A
:1020AC00FB607B6A03F003039B000F2202FA03F32D
:1020BC00DB43FA681340FB607B68404A934213D0C1
:1020CC007B683F4A93420DD07B683E4A934207D0CF
:1020DC007B683D4A934201D1032306E0042304E0CC
:1020EC00022302E0012300E000237A6A02F00302DB
:1020FC0092009340FA681343FB602F497B6A9B085C
:10210C000233FA6841F823203B685B6803F48013C0
:10211C00002B06D02D4B9A682C49BB6913438B605E
:10212C0006E02A4B9A68BB69DB43284913408B6055
:10213C003B685B6803F40013002B06D0234BDA6872
:10214C002249BB691343CB6006E0204BDA68BB69BC
:10215C00DB431E491340CB603B685B6803F40033E0
:10216C00002B06D0194B5A681849BB6913434B60B6
:10217C0006E0164B5A68BB69DB43144913404B60AD
:10218C003B685B6803F48033002B21D00F4B1A683B
:10219C000E49BB6913430B6021E000BF00003210F5
:1021AC00000031100000221000002110000012105D
:1021BC000000111000100240000001400008014016
:1021CC00000C0140001001400014014000040140CB
:1021DC000B4B1A68BB69DB43094913400B607B6AE4
:1021EC0001337B623B681A687B6A22FA03F3002B8B
:1021FC007FF48EAE00BF00BF2C37BD4680BC70474D
:10220C000004014080B483B000AF78600B467B8043
:10221C0013467B707B78002B03D07A887B681A611D
:10222C0003E07B881A047B681A6100BF0C37BD463B
:10223C0080BC704780B485B000AF78600B467B8063
:10224C007B68DB68FB607A88FB6813401A04FB68C8
:10225C00D9437B880B401A437B681A6100BF143743
:10226C00BD4680BC7047000080B586B000AF78607A
:10227C007B68002B01D1012372E27B681B6803F0A1
:10228C000103002B00F08780924B5B6803F00C037A
:10229C00042B0CD08F4B5B6803F00C03082B12D172
:1022AC008C4B5B6803F48033B3F5803F0BD1894BC7
:1022BC001B6803F40033002B6CD07B685B68002B2D
:1022CC0068D101234CE27B685B68B3F5803F06D193
:1022DC00804B1B687F4A43F4803313602EE07B688D
:1022EC005B68002B0CD17B4B1B687A4A23F4803340
:1022FC001360784B1B68774A23F4802313601DE02E
:10230C007B685B68B3F5A02F0CD1724B1B68714ACC
:10231C0043F4802313606F4B1B686E4A43F4803385
:10232C0013600BE06B4B1B686A4A23F48033136019
:10233C00684B1B68674A23F4802313607B685B68D7
:10234C00002B13D0FFF7FCF9386108E0FFF7F8F920
:10235C0002463B69D31A642B01D9032300E25D4B7F
:10236C001B6803F40033002BF0D014E0FFF7E8F9FE
:10237C00386108E0FFF7E4F902463B69D31A642B95
:10238C0001D90323ECE1534B1B6803F40033002BFE
:10239C00F0D100E000BF7B681B6803F00203002B48
:1023AC0063D04C4B5B6803F00C03002B0BD0494BF8
:1023BC005B6803F00C03082B1CD1464B5B6803F4E1
:1023CC008033002B16D1434B1B6803F00203002B08
:1023DC0005D07B681B69012B01D00123C0E13D4B6B
:1023EC001B6823F0F8027B685B69DB0039491343F7
:1023FC000B603AE07B681B69002B20D0364B012226
:10240C001A60FFF79DF9386108E0FFF799F9024669
:10241C003B69D31A022B01D90323A1E12D4B1B6875
:10242C0003F00203002BF0D02A4B1B6823F0F802B8
:10243C007B685B69DB00274913430B6015E0264B77
:10244C0000221A60FFF77CF9386108E0FFF778F991
:10245C0002463B69D31A022B01D9032380E11D4BA1
:10246C001B6803F00203002BF0D17B681B6803F0A0
:10247C000803002B3AD07B689B69002B19D0174BB3
:10248C0001221A60FFF75CF9386108E0FFF758F990
:10249C0002463B69D31A022B01D9032360E10D4B91
:1024AC005B6A03F00203002BF0D0012000F0CEFA9F
:1024BC001CE00A4B00221A60FFF742F938610FE06A
:1024CC00FFF73EF902463B69D31A022B08D90323C6
:1024DC0046E100BF0010024000004242800442422C
:1024EC00924B5B6A03F00203002BE9D17B681B68FB
:1024FC0003F00403002B00F0A6800023FB758B4B2C
:10250C00DB6903F08053002B0DD1884BDB69874AC4
:10251C0043F08053D361854BDB6903F08053BB6080
:10252C00BB680123FB75824B1B6803F48073002B83
:10253C0018D17F4B1B687E4A43F480731360FFF7FE
:10254C00FFF8386108E0FFF7FBF802463B69D31A45
:10255C00642B01D9032303E1754B1B6803F48073CF
:10256C00002BF0D07B68DB68012B06D16F4B1B6A0C
:10257C006E4A43F0010313622DE07B68DB68002B8D
:10258C000CD16A4B1B6A694A23F001031362674B37
:10259C001B6A664A23F0040313621CE07B68DB6849
:1025AC00052B0CD1614B1B6A604A43F00403136288
:1025BC005E4B1B6A5D4A43F0010313620BE05B4BFD
:1025CC001B6A5A4A23F001031362584B1B6A574A81
:1025DC0023F0040313627B68DB68002B15D0FFF734
:1025EC00AFF838610AE0FFF7ABF802463B69D31A43
:1025FC0041F28832934201D90323B1E04B4B1B6A61
:10260C0003F00203002BEED014E0FFF799F83861C9
:10261C000AE0FFF795F802463B69D31A41F288327B
:10262C00934201D903239BE0404B1B6A03F0020346
:10263C00002BEED1FB7D012B05D13C4BDB693B4ADA
:10264C0023F08053D3617B68DB69002B00F087801B
:10265C00364B5B6803F00C03082B61D07B68DB699D
:10266C00022B46D1334B00221A60FFF769F8386110
:10267C0008E0FFF765F802463B69D31A022B01D933
:10268C0003236DE0294B1B6803F00073002BF0D182
:10269C007B681B6AB3F5803F08D1244B5B6823F43D
:1026AC0000327B689B68214913434B601F4B5B686E
:1026BC0023F474127B68196A7B685B6A0B431B49B1
:1026CC0013434B601B4B01221A60FFF739F838613A
:1026DC0008E0FFF735F802463B69D31A022B01D903
:1026EC0003233DE0114B1B6803F00073002BF0D06B
:1026FC0035E0104B00221A60FFF722F8386108E031
:10270C00FFF71EF802463B69D31A022B01D90323AB
:10271C0026E0064B1B6803F00073002BF0D11EE083
:10272C007B68DB69012B07D1012319E00010024003
:10273C0000700040600042420B4B5B68FB60FB6822
:10274C0003F480327B681B6A9A4206D1FB6803F45F
:10275C0070127B685B6A9A4201D0012300E000236F
:10276C0018461837BD4680BD0010024080B584B0B5
:10277C0000AF786039607B68002B01D10123D0E079
:10278C006A4B1B6803F007033A689A4210D9674BEF
:10279C001B6823F0070265493B6813430B60634BCE
:1027AC001B6803F007033A689A4201D00123B8E092
:1027BC007B681B6803F00203002B20D07B681B682E
:1027CC0003F00403002B05D0594B5B68584A43F4C3
:1027DC00E06353607B681B6803F00803002B05D093
:1027EC00534B5B68524A43F460535360504B5B68E5
:1027FC0023F0F0027B689B684D4913434B607B6868
:10280C001B6803F00103002B40D07B685B68012B35
:10281C0007D1474B1B6803F40033002B15D1012360
:10282C007FE07B685B68022B07D1414B1B6803F090
:10283C000073002B09D1012373E03D4B1B6803F09F
:10284C000203002B01D101236BE0394B5B6823F0B1
:10285C0003027B685B68364913434B60FEF770FFDD
:10286C00F8600AE0FEF76CFF0246FB68D31A41F2EF
:10287C008832934201D9032353E02D4B5B6803F05C
:10288C000C027B685B689B009A42EBD1274B1B6860
:10289C0003F007033A689A4210D2244B1B6823F0CA
:1028AC00070222493B6813430B60204B1B6803F063
:1028BC0007033A689A4201D0012332E07B681B6817
:1028CC0003F00403002B08D0194B5B6823F4E0627F
:1028DC007B68DB68164913434B607B681B6803F00D
:1028EC000803002B09D0124B5B6823F460527B6801
:1028FC001B69DB000E4913434B6000F021F80246C4
:10290C000B4B5B681B0903F00F030A49CB5C22FAE3
:10291C0003F3094A1360094B1B681846FEF7CEFEF9
:10292C00002318461037BD4680BD00BF0020024072
:10293C000010024054390008000000200400002060
:10294C0080B487B000AF0023FB600023BB60002382
:10295C007B6100237B6000233B611E4B5B68FB604B
:10296C00FB6803F00C03042B02D0082B03D027E0E8
:10297C00194B3B6127E0FB689B0C03F00F03174AD4
:10298C00D35C7B60FB6803F48033002B10D0114BBD
:10299C005B685B0C03F00103114AD35CBB607B6882
:1029AC000D4A03FB02F2BB68B2FBF3F37B6104E05C
:1029BC007B680C4A02FB03F37B617B693B6102E0A1
:1029CC00054B3B6100BF3B6918461C37BD4680BCBC
:1029DC00704700BF0010024000127A006C390008EA
:1029EC007C39000800093D0080B400AF024B1B6825
:1029FC001846BD4680BC70470000002080B500AF73
:102A0C00FFF7F2FF0246054B5B681B0A03F0070356
:102A1C000349CB5C22FA03F3184680BD0010024038
:102A2C006439000880B500AFFFF7DEFF0246054BA6
:102A3C005B68DB0A03F007030349CB5C22FA03F360
:102A4C00184680BD001002406439000880B485B07F
:102A5C0000AF78600A4B1B680A4AA2FB03235B0A8F
:102A6C007A6802FB03F3FB6000BFFB685A1EFA6036
:102A7C00002BF9D100BF00BF1437BD4680BC704796
:102A8C0000000020D34D621080B582B000AF78609A
:102A9C007B68002B01D1012342E07B6893F8413025
:102AAC00DBB2002B06D17B68002283F840207868CB
:102ABC00FEF7D2FC7B68242283F841207B681B68DC
:102ACC00DA687B681B6822F40052DA60786800F0E0
:102ADC00C3FD7B681B681A697B681B6822F49042F3
:102AEC001A617B681B685A697B681B6822F02A0292
:102AFC005A617B681B68DA687B681B6842F4005279
:102B0C00DA607B6800225A647B68202283F84120BB
:102B1C007B68202283F842207B6800225A630023C2
:102B2C0018460837BD4680BD80B58CB000AFF86044
:102B3C00B9601346FB80FB6893F84130DBB2202B65
:102B4C0056D1BB68002B02D0FB88002B01D101238E
:102B5C004FE0BA68FB681A62FB68FA889A84FB68D3
:102B6C00FA88DA84FB6800225A64FB68212283F815
:102B7C004120FB689B6B214A9A62FB689B6B204A45
:102B8C00DA62FB689B6B1F4A1A63FB689B6B002223
:102B9C005A6307F10803FB62FB68986BFB6A1968C0
:102BAC00FB681B6804331A46FB88FEF75FFFFB6863
:102BBC001B686FF040021A60FB681B681433BB6122
:102BCC00BB6953E8003F7B617B6943F08003BB62C8
:102BDC00FB681B681433BA6A7A623B62396A7A6A98
:102BEC0041E80023FB61FB69002BE5D1002300E0E9
:102BFC00022318463037BD4680BD00BF9731000810
:102C0C00313200084D32000880B5BAB000AF7860A0
:102C1C007B681B681B68C7F8E4307B681B68DB6843
:102C2C00C7F8E0307B681B685B69C7F8DC300023B1
:102C3C00C7F8D8300023C7F8D430D7F8E43003F005
:102C4C000F03C7F8D830D7F8D830002B0FD1D7F8EE
:102C5C00E43003F02003002B09D0D7F8E03003F068
:102C6C002003002B03D0786800F038FC5BE2D7F827
:102C7C00D830002B00F0DE80D7F8DC3003F00103F5
:102C8C00002B06D1D7F8E03003F49073002B00F042
:102C9C00D180D7F8E43003F00103002B0BD0D7F828
:102CAC00E03003F48073002B05D07B685B6C43F041
:102CBC0001027B685A64D7F8E43003F00403002B5C
:102CCC000BD0D7F8DC3003F00103002B05D07B6868
:102CDC005B6C43F002027B685A64D7F8E43003F073
:102CEC000203002B0BD0D7F8DC3003F00103002BD0
:102CFC0005D07B685B6C43F004027B685A64D7F8A0
:102D0C00E43003F00803002B11D0D7F8E03003F0C7
:102D1C002003002B05D1D7F8DC3003F00103002B86
:102D2C0005D07B685B6C43F008027B685A647B6857
:102D3C005B6C002B00F0F281D7F8E43003F0200339
:102D4C00002B08D0D7F8E03003F02003002B02D082
:102D5C00786800F0C3FB7B681B685B6903F0400379
:102D6C00002B14BF01230023DBB2C7F8D4307B68DF
:102D7C005B6C03F00803002B03D1D7F8D430002B85
:102D8C004FD0786800F0CDFA7B681B685B6903F064
:102D9C004003002B41D07B681B681433C7F89C3070
:102DAC00D7F89C3053E8003FC7F89830D7F89830E4
:102DBC0023F04003C7F8D0307B681B681433D7F876
:102DCC00D020C7F8A820C7F8A430D7F8A410D7F89B
:102DDC00A82041E80023C7F8A030D7F8A030002B7A
:102DEC00D9D17B68DB6B002B13D07B68DB6B7E4A05
:102DFC005A637B68DB6B1846FEF7D4FE0346002B48
:102E0C0016D07B68DB6B5B6B7A68D26B104698478D
:102E1C000EE0786800F0A5F90AE0786800F0A1F9F6
:102E2C0006E0786800F09DF97B6800225A6475E131
:102E3C0000BF73E17B681B6B012B40F04F81D7F80F
:102E4C00E43003F01003002B00F04881D7F8E03099
:102E5C0003F01003002B00F041810023BB607B6862
:102E6C001B681B68BB607B681B685B68BB60BB68CE
:102E7C007B681B685B6903F04003002B00F0B68095
:102E8C007B68DB6B1B685B68A7F8BE30B7F8BE309D
:102E9C00002B00F045817B689B8DB7F8BE209A42D1
:102EAC0080F03E817B68B7F8BE20DA857B68DB6BEF
:102EBC009B69202B00F088807B681B680C33C7F85B
:102ECC008830D7F8883053E8003FC7F88430D7F8FB
:102EDC00843023F48073C7F8B8307B681B680C33DC
:102EEC00D7F8B820C7F89420C7F89030D7F89010CE
:102EFC00D7F8942041E80023C7F88C30D7F88C30F1
:102F0C00002BD9D17B681B6814337B677B6F53E82C
:102F1C00003F3B673B6F23F00103C7F8B4307B687D
:102F2C001B681433D7F8B420C7F88020FB67F96FFF
:102F3C00D7F8802041E80023BB67BB6F002BE1D1A1
:102F4C007B681B6814333B663B6E53E8003FFB65A4
:102F5C00FB6D23F04003C7F8B0307B681B6814335B
:102F6C00D7F8B020FA66BB66B96EFA6E41E800235A
:102F7C007B667B6E002BE3D17B68202283F842209A
:102F8C007B6800221A637B681B680C33FB64FB6C48
:102F9C0053E8003FBB64BB6C23F01003C7F8AC30A4
:102FAC007B681B680C33D7F8AC20BA657B65796DF0
:102FBC00BA6D41E800233B653B6D002BE3D17B6888
:102FCC00DB6B1846FEF7B2FD7B6802225A637B6806
:102FDC009A8D7B68DB8D9BB2D31A9BB219467868AD
:102FEC0000F0C8F89CE000BFF33300087B689A8DB2
:102FFC007B68DB8D9BB2D31AA7F8CE307B68DB8D58
:10300C009BB2002B00F08E80B7F8CE30002B00F076
:10301C0089807B681B680C33BB63BB6B53E8003F38
:10302C007B637B6B23F49073C7F8C8307B681B6899
:10303C000C33D7F8C8207A643B64396C7A6C41E85D
:10304C000023FB63FB6B002BE3D17B681B68143301
:10305C007B627B6A53E8003F3B623B6A23F00103CF
:10306C00C7F8C4307B681B681433D7F8C4203A63A4
:10307C00FB62F96A3A6B41E80023BB62BB6A002B26
:10308C00E3D17B68202283F842207B6800221A63FC
:10309C007B681B680C333B613B6953E8003FFB606A
:1030AC00FB6823F01003C7F8C0307B681B680C3337
:1030BC00D7F8C020FA61BB61B969FA6941E800230D
:1030CC007B617B69002BE3D17B6802225A63B7F8E2
:1030DC00CE301946786800F04DF823E0D7F8E4308C
:1030EC0003F08003002B09D0D7F8E03003F0800305
:1030FC00002B03D0786800F08AF914E0D7F8E4309C
:10310C0003F04003002B0ED0D7F8E03003F040035F
:10311C00002B08D0786800F0C9F904E000BF02E089
:10312C0000BF00E000BFE837BD4680BD80B483B06F
:10313C0000AF786000BF0C37BD4680BC704780B4D0
:10314C0083B000AF786000BF0C37BD4680BC7047C1
:10315C0080B483B000AF786000BF0C37BD4680BC34
:10316C00704780B483B000AF786000BF0C37BD46A9
:10317C0080BC704780B483B000AF78600B467B8016
:10318C0000BF0C37BD4680BC704780B590B000AF17
:10319C0078607B685B6AFB637B681B681B6803F069
:1031AC002003002B37D1FB6B0022DA84FB6B1B68EE
:1031BC0014337B627B6A53E8003F3B623B6A23F02B
:1031CC008003BB63FB6B1B681433BA6B3A63FB6203
:1031DC00F96A3A6B41E80023BB62BB6A002BE5D16C
:1031EC00FB6B1B680C333B613B6953E8003FFB6096
:1031FC00FB6843F040037B63FB6B1B680C337A6BFF
:10320C00FA61BB61B969FA6941E800237B617B69AA
:10321C00002BE5D102E0F86BFFF788FF00BF4037C9
:10322C00BD4680BD80B584B000AF78607B685B6ABA
:10323C00FB60F868FFF783FF00BF1037BD4680BD09
:10324C0080B584B000AF78600023FB607B685B6A5C
:10325C00BB60BB681B685B6903F08003002B14BF69
:10326C0001230023DBB2FB60BB6893F84130DBB277
:10327C00212B08D1FB68002B05D0BB680022DA8417
:10328C00B86800F027F8BB681B685B6903F0400363
:10329C00002B14BF01230023DBB2FB60BB6893F847
:1032AC004230DBB2222B08D1FB68002B05D0BB6867
:1032BC000022DA85B86800F034F8BB685B6C43F028
:1032CC001002BB685A64B868FFF74BFF00BF103799
:1032DC00BD4680BD80B489B000AF78607B681B6848
:1032EC000C33FB60FB6853E8003FBB60BB6823F00A
:1032FC00C003FB617B681B680C33FA69BA617B61A4
:10330C007969BA6941E800233B613B69002BE5D13F
:10331C007B68202283F8412000BF2437BD4680BC47
:10332C00704780B495B000AF78607B681B680C3335
:10333C007B637B6B53E8003F3B633B6B23F49073E5
:10334C00FB647B681B680C33FA6C3A64FB63F96BA7
:10335C003A6C41E80023BB63BB6B002BE5D17B6867
:10336C001B6814333B623B6A53E8003FFB61FB690B
:10337C0023F00103BB647B681B681433BA6CFA62DC
:10338C00BB62B96AFA6A41E800237B627B6A002B54
:10339C00E5D17B681B6B012B19D17B681B680C3347
:1033AC00FB60FB6853E8003FBB60BB6823F0100375
:1033BC007B647B681B680C337A6CBA617B617969BE
:1033CC00BA6941E800233B613B69002BE5D17B687E
:1033DC00202283F842207B6800221A6300BF5437F6
:1033EC00BD4680BC704780B584B000AF78607B6808
:1033FC005B6AFB60FB680022DA85FB680022DA84DA
:10340C00F868FFF7AEFE00BF1037BD4680BD80B434
:10341C0085B000AF78607B6893F84130DBB2212B2C
:10342C003ED17B689B68B3F5805F14D17B681B69C8
:10343C00002B10D17B681B6AFB60FB681B881A464B
:10344C007B681B68C2F308025A607B681B6A9A1C73
:10345C007B681A6208E07B681B6A591C7A681162E7
:10346C001A787B681B685A607B68DB8C9BB2013BCB
:10347C009BB27A681946D184002B0FD17B681B68EC
:10348C00DA687B681B6822F08002DA607B681B6854
:10349C00DA687B681B6842F04002DA60002300E0C7
:1034AC00022318461437BD4680BC704780B582B0E5
:1034BC0000AF78607B681B68DA687B681B6822F059
:1034CC004002DA607B68202283F841207868FFF79D
:1034DC002DFE002318460837BD4680BD80B58CB044
:1034EC0000AF78607B6893F84230DBB2222B40F05F
:1034FC00AE807B689B68B3F5805F17D17B681B69D6
:10350C00002B13D10023FB627B689B6ABB627B6838
:10351C001B685B689BB2C3F308039AB2BB6A1A8040
:10352C007B689B6A9A1C7B689A6226E07B689B6A24
:10353C00FB620023BB627B689B68B3F5805F07D09E
:10354C007B689B68002B0AD17B681B69002B06D11A
:10355C007B681B685B68DAB2FB6A1A7008E07B68F0
:10356C001B685B68DBB203F07F03DAB2FB6A1A708C
:10357C007B689B6A5A1C7B689A627B68DB8D9BB26A
:10358C00013B9BB27A681946D185002B5DD17B68D3
:10359C001B68DA687B681B6822F02002DA607B68A3
:1035AC001B68DA687B681B6822F48072DA607B68BF
:1035BC001B685A697B681B6822F001025A617B68A0
:1035CC00202283F842207B6800225A637B681B6BA5
:1035DC00012B35D17B6800221A637B681B680C3386
:1035EC007B617B6953E8003F3B613B6923F010032F
:1035FC007B627B681B680C337A6A3A62FB61F969FF
:10360C003A6A41E80023BB61BB69002BE5D17B68BA
:10361C001B681B6803F01003102B0AD10023FB60FE
:10362C007B681B681B68FB607B681B685B68FB60C6
:10363C00FB687B689B8D19467868FFF79BFD02E061
:10364C007868FFF785FD002302E0002300E00223E9
:10365C0018463037BD4680BD80B584B000AF786069
:10366C007B681B681B6923F440517B68DA687B68B4
:10367C001B680A431A617B689A687B681B691A434A
:10368C007B685B691343BB607B681B68DB6823F456
:10369C00B05323F00C037A681268B9680B43D360FB
:1036AC007B681B685B6923F440717B689A697B6853
:1036BC001B680A435A617B681B682C4A934203D1EE
:1036CC00FFF7B0F9F86002E0FFF798F9F860FA68D4
:1036DC0013469B0013449A001A447B685B689B005A
:1036EC00B2FBF3F3224AA2FB03235B091901FA682C
:1036FC0013469B0013449A001A447B685B689B003A
:10370C00B2FBF3F21A4BA3FB02035B09642000FB30
:10371C0003F3D31A1B013233154AA2FB03235B09B3
:10372C0003F0F0031944FA6813469B0013449A0003
:10373C001A447B685B689B00B2FBF3F20C4BA3FB57
:10374C0002035B09642000FB03F3D31A1B01323321
:10375C00074AA2FB03235B0903F00F027B681B687B
:10376C000A449A6000BF1037BD4680BD0038014046
:10377C001F85EB5170B500260C4D0D4C641BA4102D
:10378C00A64209D100F022F800260A4D0A4C641B0F
:10379C00A410A64205D170BD55F8043B98470136DC
:1037AC00EEE755F8043B98470136F2E780390008FC
:1037BC008039000880390008843900080346024427
:1037CC00934200D1704703F8011BF9E7F8B500BF2D
:1037DC00F8BC08BC9E467047F8B500BFF8BC08BCE6
:0437EC009E4670473E
:1037F0002E2E2F417070732F5372632F6465765F86
:1038000074726163652E630045453E202564206126
:10381000742025733A25640A0D00000047453E20B8
:1038200025642025732061742025733A25640A0DD0
:103830000000000056453E202564202564202573A5
:103840002061742025733A25640A0D0041535345C5
:103850005254203E2025733A25640A0D00000000D2
:103860002E2E2F417070732F5372632F68616C5F1F
:103870006770696F2E630000556E6B6E6F7720471F
:1038800050494F2021212100556E6B6E6F772047E4
:1038900050494F204D6F6465202121210000000018
:1038A000556E6B6E6F77204750494F20537065659A
:1038B0006420212121000000496E6974204770694D
:1038C0006F202573202D2025642C2025580A0D00FB
:1038D000497271204C696E6521212100496E69741D
:1038E000204770696F20495251202573202D2C20CC
:1038F00025642C2025580A0D00000000000000005F
:103900004368616E6765204770696F204D6F64651D
:10391000202573202D2025642025640A0D00000039
:103920000D0A0A0A0A2A2A2A2A2A2A48554D414EED
:10393000204845414C5448204D4F4E49544F524920
:103940004E472053454E534F522A2A2A2A2A2A0DDF
:103950000A00000000000000000000000102030453
:103960000607080900000000010203040203040521
:10397000060708090A0B0C0D0E0F101001020000BB
:043980003101000809
:043984000D01000829
:0C3988000024F40010000000010000000A
:040000050800165188
:00000001FF
